:020000040800F2
:1000000000C00020116D000891220008AD220008F8
:10001000B9220008C5220008D12200080000000013
:10002000000000000000000000000000DD220008C9
:10003000E522000800000000E9220008F122000883
:10004000596D0008596D0008596D0008596D000878
:10005000596D0008596D0008596D0008596D000868
:10006000596D00088D230008596D000841240008CF
:100070002D2300081D230008596D0008596D000844
:10008000596D0008596D0008596D0008596D000838
:10009000596D0008596D0008596D0008A12300082A
:1000A000596D0008596D0008596D0008D9230008E2
:1000B0009922000861240008596D0008FD220008FB
:1000C0000D230008596D00083D230008596D0008F4
:1000D000596D0008596D0008596D0008596D0008E8
:1000E0004D230008596D0008596D0008596D00082E
:1000F000596D0008596D00080D240008596D00085D
:10010000596D0008596D0008596D0008596D0008B7
:10011000596D0008596D0008596D0008596D0008A7
:10012000596D0008596D0008596D000851240008E8
:1001300000000000000000000000000000000000BF
:1001400000000000000000000000000000000000AF
:10015000000000000000000000000000000000009F
:10016000000000000000000000000000000000008F
:10017000000000000000000000000000000000007F
:10018000000000000000000000000000000000006F
:10019000000000000000000000000000000000005F
:1001A000000000000000000000000000000000004F
:1001B000000000000000000000000000000000003F
:1001C000000000000000000000000000000000002F
:1001D000000000000000000000000000000000001F
:0401E0005FF8E0F1F3
:1001E80010B5054C237833B9044B13B10448AFF369
:1001F80000800123237010BD2400002000000000AF
:10020800A86D0008084B10B51BB108490848AFF3A2
:1002180000800848036803B910BD074B002BFBD0CA
:10022800BDE81040184700BF00000000280000206B
:10023800A86D0008240000200000000081F00041A3
:1002480002E000BF83F0004330B54FEA41044FEAB3
:10025800430594EA050F08BF90EA020F1FBF54EA4E
:10026800000C55EA020C7FEA645C7FEA655C00F0EA
:10027800E2804FEA5454D4EB5555B8BF6D420CDDBB
:100288002C4480EA020281EA030382EA000083EA3E
:10029800010180EA020281EA0303362D88BF30BDDE
:1002A80011F0004F4FEA01314FF4801C4CEA113134
:1002B80002D0404261EB410113F0004F4FEA033393
:1002C8004CEA133302D0524263EB430394EA050F1E
:1002D80000F0A780A4F10104D5F1200E0DDB02FA8D
:1002E8000EFC22FA05F2801841F1000103FA0EF221
:1002F800801843FA05F359410EE0A5F120050EF1E7
:10030800200E012A03FA0EFC28BF4CF0020C43FA17
:1003180005F3C01851EBE37101F0004507D54FF024
:10032800000EDCF1000C7EEB00006EEB0101B1F574
:10033800801F1BD3B1F5001F0CD349085FEA3000BA
:100348004FEA3C0C04F101044FEA445212F5800FC5
:1003580080F09A80BCF1004F08BF5FEA500C50F162
:10036800000041EB045141EA050130BD5FEA4C0C45
:10037800404141EB010111F4801FA4F10104E9D1CE
:1003880091F0000F04BF01460020B1FA81F308BFC5
:100398002033A3F10B03B3F120020CDA0C3208DD91
:1003A80002F1140CC2F10C0201FA0CF021FA02F16C
:1003B8000CE002F11402D8BFC2F1200C01FA02F1DC
:1003C80020FA0CFCDCBF41EA0C019040E41AA2BF01
:1003D80001EB0451294330BD6FEA04041F3C1CDAC9
:1003E8000C340EDC04F11404C4F1200220FA04F0E9
:1003F80001FA02F340EA030021FA04F345EA030193
:1004080030BDC4F10C04C4F1200220FA02F001FA54
:1004180004F340EA0300294630BD21FA04F02946D6
:1004280030BD94F0000F83F4801306BF81F480116F
:100438000134013D4EE77FEA645C18BF7FEA655CE2
:1004480029D094EA050F08BF90EA020F05D054EAB4
:10045800000C04BF1946104630BD91EA030F1EBFB9
:100468000021002030BD5FEA545C05D140004941BD
:1004780028BF41F0004130BD14F580043CBF01F5B0
:10048800801130BD01F0004545F0FE4141F4700196
:100498004FF0000030BD7FEA645C1ABF1946104671
:1004A8007FEA655C1CBF0B46024650EA013406BF72
:1004B80052EA033591EA030F41F4002130BD00BF31
:1004C80090F0000F04BF0021704730B54FF48064EE
:1004D80004F132044FF000054FF0000150E700BF6F
:1004E80090F0000F04BF0021704730B54FF48064CE
:1004F80004F1320410F0004548BF40424FF00001BB
:100508003EE700BF42004FEAE2014FEA31014FEAFD
:1005180002701FBF12F07F4393F07F4F81F060514C
:10052800704792F0000F14BF93F07F4F704730B5BB
:100538004FF4607401F0004521F0004120E700BF4E
:1005480050EA010208BF704730B54FF000050AE0D5
:1005580050EA010208BF704730B511F0004502D5D6
:10056800404261EB41014FF4806404F132045FEAD8
:10057800915C3FF4DCAE4FF003025FEADC0C18BF7D
:1005880003325FEADC0C18BF033202EBDC02C2F173
:10059800200300FA03FC20FA02F001FA03FE40EA05
:1005A8000E0021FA02F11444C1E600BF70B54FF005
:1005B800FF0C4CF4E06C1CEA11541DBF1CEA1355E7
:1005C80094EA0C0F95EA0C0F00F0DEF82C4481EA4F
:1005D800030621EA4C5123EA4C5350EA013518BF6F
:1005E80052EA033541F4801143F4801338D0A0FB5C
:1005F80002CE4FF00005E1FB02E506F00042E0FB09
:1006080003E54FF00006E1FB03569CF0000F18BF0E
:100618004EF0010EA4F1FF04B6F5007F64F54074B6
:1006280004D25FEA4E0E6D4146EB060642EAC62149
:1006380041EA55514FEAC52040EA5E504FEACE2EB6
:10064800B4F1FD0C88BFBCF5E06F1ED8BEF1004FB9
:1006580008BF5FEA500E50F1000041EB045170BD35
:1006680006F0004646EA010140EA020081EA030179
:10067800B4EB5C04C2BFD4EB0C0541EA045170BD75
:1006880041F480114FF0000E013C00F3AB8014F1EF
:10069800360FDEBF002001F0004170BDC4F1000438
:1006A800203C35DA0C341BDC04F11404C4F12005B9
:1006B80000FA05F320FA04F001FA05F240EA020014
:1006C80001F0004221F0004110EBD37021FA04F64A
:1006D80042EB06015EEA430E08BF20EAD37070BD04
:1006E800C4F10C04C4F1200500FA04F320FA05F063
:1006F80001FA04F240EA020001F0004110EBD37065
:1007080041F100015EEA430E08BF20EAD37070BDD4
:10071800C4F1200500FA05F24EEA020E20FA04F3AD
:1007280001FA05F243EA020321FA04F001F000415C
:1007380021FA04F220EA020000EBD3705EEA430ECD
:1007480008BF20EAD37070BD94F0000F0FD101F0FC
:100758000046400041EB010111F4801F08BF013C35
:10076800F7D041EA060195F0000F18BF704703F073
:100778000046520043EB030313F4801F08BF013DFA
:10078800F7D043EA0603704794EA0C0F0CEA1355B6
:1007980018BF95EA0C0F0CD050EA410618BF52EA70
:1007A8004306D1D181EA030101F000414FF0000076
:1007B80070BD50EA410606BF1046194652EA430684
:1007C80019D094EA0C0F02D150EA013613D195EAF8
:1007D8000C0F05D152EA03361CBF104619460AD140
:1007E80081EA030101F0004141F0FE4141F470014A
:1007F8004FF0000070BD41F0FE4141F4780170BD3A
:1008080070B54FF0FF0C4CF4E06C1CEA11541DBF9E
:100818001CEA135594EA0C0F95EA0C0F00F0A7F8A0
:10082800A4EB050481EA030E52EA03354FEA0131CD
:1008380000F088804FEA03334FF0805545EA1313E0
:1008480043EA12634FEA022245EA111545EA1065A8
:100858004FEA00260EF000419D4208BF964244F13F
:10086800FD0404F5407402D25B084FEA3202B61A5E
:1008780065EB03055B084FEA32024FF480104FF432
:10088800002CB6EB020E75EB030E22BFB61A7546A6
:1008980040EA0C005B084FEA3202B6EB020E75EB39
:1008A800030E22BFB61A754640EA5C005B084FEAA1
:1008B8003202B6EB020E75EB030E22BFB61A75466E
:1008C80040EA9C005B084FEA3202B6EB020E75EB79
:1008D800030E22BFB61A754640EADC0055EA060E3A
:1008E80018D04FEA051545EA16754FEA06164FEA7D
:1008F800C30343EA52734FEAC2025FEA1C1CC0D129
:1009080011F4801F0BD141EA00014FF000004FF0B5
:10091800004CB6E711F4801F04BF01430020B4F176
:10092800FD0C88BFBCF5E06F3FF6AFAEB5EB030C2E
:1009380004BFB6EB020C5FEA500C50F1000041EB2B
:10094800045170BD0EF0004E4EEA113114EB5C04F8
:10095800C2BFD4EB0C0541EA045170BD41F48011CB
:100968004FF0000E013C90E645EA060E8DE60CEAD3
:10097800135594EA0C0F08BF95EA0C0F3FF43BAFF0
:1009880094EA0C0F0AD150EA01347FF434AF95EAA7
:100998000C0F7FF425AF104619462CE795EA0C0F8B
:1009A80006D152EA03353FF4FDAE1046194622E758
:1009B80050EA410618BF52EA43067FF4C5AE50EA32
:1009C80041047FF40DAF52EA43057FF4EBAE12E722
:1009D8004FF0FF3C06E000BF4FF0010C02E000BF03
:1009E8004FF0010C4DF804CD4FEA410C7FEA6C5CE6
:1009F8004FEA430C18BF7FEA6C5C1BD001B050EA89
:100A0800410C0CBF52EA430C91EA030F02BF90EA73
:100A1800020F0020704710F1000F91EA030F58BF32
:100A2800994208BF90422CBFD8176FEAE37040F094
:100A3800010070474FEA410C7FEA6C5C02D150EA32
:100A4800013C07D14FEA430C7FEA6C5CD6D152EAED
:100A5800033CD3D05DF8040B704700BF84461046B2
:100A680062468C461946634600E000BF01B5FFF7B1
:100A7800B7FF002848BF10F1000F01BD4DF808ED81
:100A8800FFF7F4FF0CBF012000205DF808FB00BF52
:100A98004DF808EDFFF7EAFF34BF012000205DF8AC
:100AA80008FB00BF4DF808EDFFF7E0FF94BF0120F9
:100AB80000205DF808FB00BF4DF808EDFFF7CEFFFA
:100AC80094BF012000205DF808FB00BF4DF808ED39
:100AD800FFF7C4FF34BF012000205DF808FB00BF0A
:100AE8004FEA410212F5001215D211D56FF478734E
:100AF800B3EB625212D94FEAC12343F0004343EAF1
:100B0800505311F0004F23FA02F018BF40427047CB
:100B18004FF00000704750EA013005D111F0004055
:100B280008BF6FF0004070474FF00000704700BFEB
:100B38004A0011D212F5001211D20DD56FF4787354
:100B4800B3EB62520ED44FEAC12343F0004343EAA9
:100B5800505323FA02F070474FF00000704750EAF4
:100B6800013002D14FF0FF3070474FF0000070475E
:100B78004FEA4102B2F1E04324BFB3F5001CDCF1B7
:100B8800FE5C0DD901F0004C4FEAC0024CEA5070EF
:100B9800B2F1004F40EB830008BF20F0010070471E
:100BA80011F0804F21D113F13872BCBF01F0004021
:100BB800704741F480114FEA5252C2F11802C2F153
:100BC800200C10FA0CF320FA02F018BF40F00100D4
:100BD8004FEAC1234FEAD32303FA0CFC40EA0C0086
:100BE80023FA02F34FEA4303CCE77FEA625307D1C3
:100BF80050EA01331EBF4FF0FE4040F440007047FA
:100C080001F0004040F0FE4040F40000704700BF93
:100C180080F0004002E000BF81F0004142001FBFA9
:100C28005FEA410392EA030F7FEA226C7FEA236CB2
:100C38006AD04FEA1262D2EB1363C1BFD2184140A7
:100C480048404140B8BF5B42192B88BF704710F03D
:100C5800004F40F4000020F07F4018BF404211F0E0
:100C6800004F41F4000121F07F4118BF494292EA48
:100C7800030F3FD0A2F1010241FA03FC10EB0C0074
:100C8800C3F1200301FA03F100F0004302D5494201
:100C980060EB4000B0F5000F13D3B0F1807F06D3AE
:100CA80040084FEA310102F10102FE2A51D2B1F1A6
:100CB800004F40EBC25008BF20F0010040EA03009B
:100CC8007047490040EB000010F4000FA2F1010248
:100CD800EDD1B0FA80FCACF1080CB2EB0C0200FAD2
:100CE8000CF0AABF00EBC25052421843BCBFD04020
:100CF8001843704792F0000F81F4000106BF80F49A
:100D080000000132013BB5E74FEA41037FEA226C5C
:100D180018BF7FEA236C21D092EA030F04D092F027
:100D2800000F08BF0846704790EA010F1CBF00205B
:100D3800704712F07F4F04D1400028BF40F00040B8
:100D4800704712F100723CBF00F50000704700F0D8
:100D5800004343F0FE4040F4000070477FEA2262FF
:100D680016BF08467FEA23630146420206BF5FEAD0
:100D7800412390EA010F40F4800070474FF00003D0
:100D880004E000BF10F0004348BF40425FEA000C97
:100D980008BF704743F0964301464FF000001CE03F
:100DA80050EA010208BF70474FF000030AE000BF95
:100DB80050EA010208BF704711F0004302D54042D3
:100DC80061EB41015FEA010C02BF84460146002045
:100DD80043F0B64308BFA3F18053A3F50003BCFA60
:100DE8008CF2083AA3EBC25310DB01FA02FC63440D
:100DF80000FA02FCC2F12002BCF1004F20FA02F214
:100E080043EB020008BF20F00100704702F1200206
:100E180001FA02FCC2F1200250EA4C0021FA02F267
:100E280043EB020008BF20EADC7070474FF0FF0C6C
:100E38001CEAD0521EBF1CEAD15392EA0C0F93EA67
:100E48000C0F6FD01A4480EA010C400218BF5FEA09
:100E580041211ED04FF0006343EA501043EA51117C
:100E6800A0FB01310CF00040B1F5000F3EBF490076
:100E780041EAD3715B0040EA010062F17F02FD2A7A
:100E88001DD8B3F1004F40EBC25008BF20F001005D
:100E9800704790F0000F0CF0004C08BF49024CEA74
:100EA800502040EA51207F3AC2BFD2F1FF0340EA06
:100EB800C250704740F400004FF00003013A5DDC77
:100EC80012F1190FDCBF00F000407047C2F10002B8
:100ED800410021FA02F1C2F1200200FA02FC5FEAA5
:100EE800310040F1000053EA4C0308BF20EADC70EF
:100EF800704792F0000F00F0004C02BF400010F461
:100F0800000F013AF9D040EA0C0093F0000F01F00D
:100F1800004C02BF490011F4000F013BF9D041EA2F
:100F28000C018FE70CEAD15392EA0C0F18BF93EA31
:100F38000C0F0AD030F0004C18BF31F0004CD8D15B
:100F480080EA010000F00040704790F0000F17BFE2
:100F580090F0004F084691F0000F91F0004F14D028
:100F680092EA0C0F01D142020FD193EA0C0F03D180
:100F78004B0218BF084608D180EA010000F0004083
:100F880040F0FE4040F40000704740F0FE4040F45E
:100F9800400070474FF0FF0C1CEAD0521EBF1CEAFD
:100FA800D15392EA0C0F93EA0C0F69D0A2EB03021B
:100FB80080EA010C49024FEA402037D04FF08053B5
:100FC80043EA111143EA10130CF000408B4238BF7A
:100FD8005B0042F17D024FF4000C8B4224BF5B1A88
:100FE80040EA0C00B3EB510F24BFA3EB510340EAD6
:100FF8005C00B3EB910F24BFA3EB910340EA9C0084
:10100800B3EBD10F24BFA3EBD10340EADC001B01F3
:1010180018BF5FEA1C1CE0D1FD2A3FF650AF8B4297
:1010280040EBC25008BF20F0010070470CF0004CA4
:101038004CEA50207F32C2BFD2F1FF0340EAC250CF
:10104800704740F400004FF00003013A37E792F090
:10105800000F00F0004C02BF400010F4000F013AEE
:10106800F9D040EA0C0093F0000F01F0004C02BFE9
:10107800490011F4000F013BF9D041EA0C0195E752
:101088000CEAD15392EA0C0F08D142027FF47DAFEB
:1010980093EA0C0F7FF470AF084676E793EA0C0FDB
:1010A80004D14B023FF44CAF08466EE730F0004CD9
:1010B80018BF31F0004CCAD130F000427FF45CAF69
:1010C80031F000437FF43CAF5FE700BF4FF0FF3CD7
:1010D80006E000BF4FF0010C02E000BF4FF0010C2A
:1010E8004DF804CD4FEA40024FEA41037FEA226CF3
:1010F80018BF7FEA236C11D001B052EA530C18BF15
:1011080090EA010F58BFB2EB030088BFC81738BF79
:101118006FEAE17018BF40F0010070477FEA226C67
:1011280002D15FEA402C05D17FEA236CE4D15FEA63
:10113800412CE1D05DF8040B704700BF8446084697
:101148006146FFE70FB5FFF7C9FF002848BF10F158
:10115800000F0FBD4DF808EDFFF7F4FF0CBF01209D
:1011680000205DF808FB00BF4DF808EDFFF7EAFF27
:1011780034BF012000205DF808FB00BF4DF808EDE2
:10118800FFF7E0FF94BF012000205DF808FB00BFD7
:101198004DF808EDFFF7D2FF94BF012000205DF85D
:1011A80008FB00BF4DF808EDFFF7C8FF34BF01206A
:1011B80000205DF808FB00BF4FEA4002B2F1FE4F85
:1011C8000FD34FF09E03B3EB12620DD94FEA002301
:1011D80043F0004310F0004F23FA02F018BF4042DA
:1011E80070474FF00000704712F1610F01D14202C1
:1011F80005D110F0004008BF6FF0004070474FF075
:101208000000704708B5436A9A6A12F0500F1CD163
:101218009A6A42F400729A621A68926802F460222A
:10122800B2F5602F0DD1DA685AB99A6A22F4807241
:101238009A629A6A12F4805F03D19A6A42F00102B4
:101248009A62184604F004FC08BD1B6A1B6B984799
:1012580008BD00BF704700BF08B5406AFFF7FAFF36
:1012680008BD00BF704700BF08B5406A836A43F0F5
:1012780040038362C36A43F00403C362FFF7F2FFCB
:1012880008BD00BFF0B482B00023019390F8243069
:10129800012B00F0C780012380F824304B68062B0F
:1012A8001BD80668756B4FF4787292FAA2F4B4FAF8
:1012B80084F4013B03FB04F41F2707FA04F425EA2E
:1012C80004040D6892FAA2F2B2FA82F203FB02F267
:1012D80005FA02F22243726337E00C2B1AD806682B
:1012E800376B4FF4787292FAA2F5B5FA85F5073B99
:1012F80003FB05F51F2404FA05F527EA05050C6824
:1013080092FAA2F2B2FA82F203FB02F39C402C4357
:1013180034631AE00668F46A4FF4787292FAA2F518
:10132800B5FA85F50D3B03FB05F51F2707FA05F50B
:1013380024EA05050C6892FAA2F2B2FA82F203FBDB
:1013480002F304FA03F32B43F3620D68092D1BD94A
:101358000668F768382292FAA2F4B4FA84F4A5F180
:101368000A0303FB04F4072505FA04F427EA040436
:101378008D6892FAA2F2B2FA82F203FB02F305FA3E
:1013880003F22243F26018E007683E69382292FAB5
:10139800A2F4B4FA84F405FB04F4072303FA04F472
:1013A80026EA04048E6892FAA2F2B2FA82F205FBE7
:1013B80002F306FA03F323433B610B68103B012B4E
:1013C80026D80368194A93421CD19A6812F4000F70
:1013D80020D19A6842F400029A600B68102B1BD146
:1013E800134B1B68134AA2FB03239B0C03EB8303D9
:1013F8005A00019202E0019B013B0193019B002BE3
:10140800F9D10AE0836A43F020038362012304E0F0
:10141800002302E0002300E00023002280F82420BB
:10142800184600E0022002B0F0BC704700240140DA
:101438000000002083DE1B4330B583B000230193F6
:1014480003689A6812F0010F2FD19A6842F00102DE
:101458009A60174B1B68174AA2FB03239B0C019346
:1014680002E0019B013B0193019B002BF9D104464B
:1014780002F0A6F8054611E002F0A2F8401B022887
:101488000CD9A36A43F01003A362E36A43F0010393
:10149800E362002384F82430012007E023689B6876
:1014A80013F0010FE8D0002000E0002003B030BDA9
:1014B8000000002083DE1B4390F82430012B71D0FC
:1014C80010B50446012380F82430FFF7B5FF034622
:1014D800002863D1A26A22F4407222F0010242F489
:1014E8008072A262226830498A4205D1A1F58061E2
:1014F800496811F4702F0ED1A16A21F48011A162FC
:10150800516811F4806F1CD0A16A21F4405141F454
:101518008051A16215E0A16A41F48011A1622349BA
:101528008A4203D001F580618A420AD11F4949687D
:1015380011F4806F05D0A16A21F4405141F4805123
:10154800A162A16A11F4805F04D0E16A21F006016A
:10155800E16201E00021E162002184F824106FF0CB
:10156800020111602268916801F46021B1F5602FD1
:101578000ED10D498A4205D1A1F58061496811F45F
:10158800702F05D1916841F4A0019160184610BDF3
:10159800916841F480119160184610BD002284F8CA
:1015A800242010BD0220704700280140002401407B
:1015B800F8B504684A4DAC4203D005F58065AC42E5
:1015C80005D1474B5B6813F4702F40F0858090F885
:1015D8002440012C00F0828017460E460446012361
:1015E80080F82430FFF728FF0546002870D1A36A49
:1015F80023F4706323F0010343F48073A362226829
:10160800384B9A4205D1A3F580635B6813F4702FB9
:101618000ED1A36A23F48013A362536813F4806F76
:101628001CD0A36A23F4405343F48053A36215E00B
:10163800A36A43F48013A362294B9A4203D003F5AB
:1016480080639A420AD1264B5B6813F4806F05D0F9
:10165800A36A23F4405343F48053A362A36A13F4A8
:10166800805F04D0E36A23F00603E36201E000230D
:10167800E362002384F82430236A1B4A9A62236AAF
:101688001A4ADA62236A1A4A1A6323686FF0020256
:101698001A602268936843F48073936021683B461C
:1016A80032464C31206A01F06BFB2268936803F4E0
:1016B8006023B3F5602F05D1936843F4A0039360CA
:1016C8002846F8BD936843F4801393602846F8BD14
:1016D800002384F82430F8BD0120F8BD0220F8BDAD
:1016E80000240140002801400D1200086112000882
:1016F8007112000838B503689A6812F0010F1ED0FD
:1017080004469A6822F001029A6001F059FF0546E2
:101718000EE001F055FF401B022809D9A36A43F0E7
:101728001003A362E36A43F00103E362012038BDBA
:1017380023689B6813F0010FEBD1002038BD00200F
:1017480038BD00BF002800F09D8070B50446836A4C
:1017580023B9C36280F8243004F0DEFE2046FFF788
:10176800C9FFA36A13F0100F40F08680002840F0EC
:101778008380A36A23F4885323F0020343F002030F
:10178800A36263682168404A914206D1E269B2F5D2
:10179800402F03D14FF4002200E0E2691A43E568C4
:1017A800022393FAA3F3B3FA83F305FA03F313437B
:1017B800A268B2F5807F04D0012A05D14FF4807663
:1017C80003E04FF4807600E000266269012A15D113
:1017D80065B9A269013A4FF4604595FAA5F5B5FADD
:1017E80085F5AA4042F40062164307E0A26A42F077
:1017F8002002A262E26A42F00102E2624A6822F42E
:10180800694232434A6021688D68204A2A401A4357
:101818008A60A268B2F5807F01D0012A0AD12269C4
:10182800013A4FF4700191FAA1F1B1FA81F102FA8B
:1018380001F100E000212568EA6A22F470020A43F7
:10184800EA6222689168124A0A40934208D100234A
:10185800E362A36A23F0030343F00103A36270BDAC
:10186800A36A23F0120343F01003A362E36A43F070
:101878000103E362012070BDA36A43F01003A36271
:10188800012070BD01207047003C0140FDF7E1FFD9
:10189800FE0E1FFF90F83830012B1CD030B4012504
:1018A80080F83850022380F8393004680A684B6899
:1018B8001A438B681A43CB681A430B691A434B695E
:1018C8001A438B691343636480F83950002380F806
:1018D8003830184601E00220704730BC704700BF1E
:1018E800704700BF704700BF074AD36823F4E0631E
:1018F8001B041B0C000200F4E060184340F0BF60BA
:1019080040F40030D060704700ED00E030B4164B72
:10191800DB68C3F30223C3F10704042C28BF0424A3
:101928001D1D062D01D9DD1E00E00025012303FA47
:1019380004F4013C2140A940AB40013B1A400A4352
:10194800002806DA00F00F001201D2B2074B1A5431
:1019580007E01201D2B200F1604000F5614080F862
:10196800002330BC704700BF00ED00E014ED00E03C
:10197800420900F01F00012303FA00F0014B43F86D
:101988002200704700E100E0430900F01F00012237
:1019980002FA00F02033024A42F82300704700BFE1
:1019A80000E100E00138B0F1807F0AD2064B5860B0
:1019B800F021064A82F823100020986007221A6056
:1019C80070470120704700BF10E000E000ED00E024
:1019D800042805D1054A136843F0040313607047CF
:1019E800024A136823F004031360704710E000E014
:1019F800704700BF08B5FFF7FBFF08BDF0B583B01F
:101A080000263446DFE00122A2400B6813409A42C8
:101A180040F0D8804D68122D2DD00BD8022D27D03C
:101A280003D85DB3012D1ED035E0032D30D0112D24
:101A38001BD030E0664FBD4220D008D8A7F58017EC
:101A4800BD421BD007F58037BD4224D116E0614F57
:101A5800BD4213D007F58037BD420FD0A7F58017D8
:101A6800BD4218D10AE0CE6815E0CE68043612E00F
:101A7800CE6808360FE0CE680C360CE08D684DB1A4
:101A8800012D02D10261082605E04261082602E024
:101A9800002600E00426FF2B01D8864601E000F16D
:101AA800040EFF2B01D8A20002E0A4F10802920064
:101AB800DEF800700F25954027EA050506FA02F2C0
:101AC8002A43CEF800204A6812F0805F7AD0424A52
:101AD800956945F001059561926902F0010201924C
:101AE800019AA708BD1C3D4A52F825E004F00302FC
:101AF80092000F2595402EEA050E394DA84215D0C3
:101B080005F58065A84213D005F58065A84211D077
:101B180005F58065A8420FD005F58065A8420DD06F
:101B280005F58065A8420BD105250AE0002508E0E7
:101B3800012506E0022504E0032502E0042500E073
:101B4800062505FA02F24EEA02020237234D45F84D
:101B580027204A6812F4803F05D005F580652A6879
:101B68001A432A6004E01F4D2A6822EA03022A6009
:101B78004A6812F4003F04D01A4D6A681A436A6032
:101B880004E0184D6A6822EA03026A604A6812F49F
:101B9800801F04D0134DAA681A43AA6004E0114DAF
:101BA800AA6822EA0302AA604A6812F4001F04D055
:101BB8000C4DEA681343EB6004E00A4DEA6822EA38
:101BC8000303EB6001340F2C7FF61DAF03B0F0BDAB
:101BD80000002110000031100010024000000140F8
:101BE80000080140000401408368194201D0012027
:101BF80070470020704700BF0AB1016170470904AF
:101C0800016170470F4B1A6842F001021A60596867
:101C18000D4A0A405A601A6822F0847222F480320F
:101C28001A601A6822F480221A605A6822F4FE02A6
:101C38005A604FF41F029A604FF00062034B9A609B
:101C4800704700BF001002400000FFF800ED00E000
:101C580070B4036A23F001030362036A4668826969
:101C680022F073020C6842EA040523F002028B6832
:101C780013430F4CA04202D00E4A904205D123F0E4
:101C88000803CA68134323F00403094CA04202D096
:101C9800084A904205D126F440764A6932438E6953
:101CA8001643466085614A684263036270BC7047A8
:101CB800002C01400034014030B4036A23F48073DF
:101CC8000362036A4568C26922F073020C68224302
:101CD80023F400738C6843EA0423124CA04203D017
:101CE80004F50064A04206D123F40063CC6843EAFB
:101CF800042323F480630B4CA04203D004F5006452
:101D0800A04207D125F440554C6945EA04158C6971
:101D180045EA04154560C2614A68C263036230BC83
:101D2800704700BF002C014030B4036A23F480538D
:101D38000362036A4468C26922F4E6420D6842EA13
:101D4800052223F400538D6843EA0533094DA84260
:101D580003D005F50065A84204D124F480444D69F8
:101D680044EA85144460C2614A680264036230BC74
:101D7800704700BF002C0140704700BF022380F865
:101D880039300268136843F001031360012380F8B7
:101D980039300020704700BF022380F839300368CB
:101DA800196A41F21112114208D1196A40F24442EB
:101DB800114203D11A6822F001021A60012380F847
:101DC80039300020704700BF704700BF704700BF20
:101DD800704700BF704700BF704700BF704700BF23
:101DE80010B5044603681A6912F0020F17D0DA68B2
:101DF80012F0020F13D06FF002021A61012303766A
:101E080003689B6913F0030F02D0FFF7E3FF04E0B8
:101E1800FFF7DEFF2046FFF7DFFF00232376236866
:101E28001A6912F0040F19D0DA6812F0040F15D0ED
:101E38006FF004021A610223237623689B6913F466
:101E4800407F03D02046FFF7C5FF05E02046FFF797
:101E5800BFFF2046FFF7C0FF0023237623681A69D7
:101E680012F0080F19D0DA6812F0080F15D06FF0C9
:101E780008021A61042323762368DB6913F0030F31
:101E880003D02046FFF7A6FF05E02046FFF7A0FF96
:101E98002046FFF7A1FF0023237623681A6912F072
:101EA800100F19D0DA6812F0100F15D06FF0100269
:101EB8001A61082323762368DB6913F4407F03D073
:101EC8002046FFF787FF05E02046FFF781FF204601
:101ED800FFF782FF0023237623681A6912F0010FA7
:101EE80009D0DA6812F0010F05D06FF001021A610B
:101EF8002046FFF76BFF23681A6912F0800F09D09C
:101F0800DA6812F0800F05D06FF080021A6120465F
:101F1800FFF7E8FC23681A6912F0400F09D0DA6865
:101F280012F0400F05D06FF040021A612046FFF70B
:101F380055FF23681A6912F0200F09D0DA6812F0E9
:101F4800200F05D06FF020021A612046FFF7C8FC69
:101F580010BD00BF0368224A904212D002F5006209
:101F680090420ED0B0F1804F0BD0A2F5983290423B
:101F780007D002F58062904203D002F58062904259
:101F880003D123F070034A681343154A904212D0D4
:101F980002F5006290420ED0B0F1804F0BD0A2F54E
:101FA8009832904207D002F58062904203D002F541
:101FB8008062904203D123F44073CA6813430360DC
:101FC8008B68C3620B688362054B984203D003F5A4
:101FD8000063984201D10B69036301234361704791
:101FE800002C0140B8B110B5044690F8393013F010
:101FF800FF0F04D1002380F83830FFF7BDFE02231D
:1020080084F83930211D2068FFF7A4FF012384F8E4
:102018003930002010BD0120704700BFB8B110B59D
:10202800044690F8393013F0FF0F04D1002380F8EC
:102038003830FFF7C9FE022384F83930211D2068A3
:10204800FFF788FF012384F83930002010BD0120F4
:10205800704700BF30B4036A23F010030362036AB9
:102068004468826922F4E6420D6842EA052223F0B8
:1020780020038D6843EA0513114DA84203D005F5E6
:102088000065A84206D123F08003CD6843EA051312
:1020980023F040030A4DA84203D005F50065A84285
:1020A80007D124F440644D6944EA85048D6944EA03
:1020B8008504446082614A688263036230BC704769
:1020C800002C014038B590F83830012B66D00D4609
:1020D8000446012380F83830022380F839300C2A6E
:1020E80055D8DFE802F0075454541A5454542E5467
:1020F800545441000068FFF7ABFD2268936943F030
:10210800080393612268936923F0040393612268AA
:1021180091692B690B43936139E00068FFF79AFFD7
:102128002268936943F4006393612268936923F4F6
:102138008063936122689369296943EA0123936163
:1021480025E00068FFF7B8FD2268D36943F008036B
:10215800D3612268D36923F00403D3612268D1696B
:102168002B690B43D36112E00068FFF7DDFD22689D
:10217800D36943F40063D3612268D36923F480638D
:10218800D3612268D369296943EA0123D361012312
:1021980084F83930002084F8380038BD022038BD72
:1021A80010B4012303FA01F4036A23EA0403036267
:1021B800036A8A401A43026210BC704710B504468D
:1021C80001220068FFF7ECFF23680C4A934205D010
:1021D80002F50062934203D1012202E0012200E0ED
:1021E80000221AB15A6C42F400425A6422681368F9
:1021F80043F001031360002010BD00BF002C014014
:1022080010B504460C291FD8DFE801F0071E1E1E72
:102218000D1E1E1E131E1E1E19000268D36843F0F1
:102228000203D36010E00268D36843F00403D3606C
:102238000AE00268D36843F00803D36004E0026848
:10224800D36843F01003D36001222068FFF7A8FF8A
:1022580023680C4A934205D002F50062934203D1E9
:10226800012202E0012200E000221AB15A6C42F475
:1022780000425A642268136843F001031360002087
:1022880010BD00BF002C014000BF00BF00BFFBE72E
:1022980008B5012003F004F90148FFF7A1FD08BDC6
:1022A800A405002008B502F00BFE02F0C1FAFEE713
:1022B80008B502F005FE02F0BBFAFEE708B502F029
:1022C800FFFD02F0B5FAFEE708B502F0F9FD02F0ED
:1022D800AFFAFEE700BF00BF00BFFBE7704700BFD3
:1022E80000BF00BF00BFFBE708B501F061F9FFF7C9
:1022F80081FB08BD08B5024801F006FF08BD00BF14
:10230800BC03002008B5024801F086FF08BD00BFE5
:10231800BC03002008B5024800F05EFD08BD00BF00
:10232800F802002008B5024800F056FD08BD00BFBD
:102338007003002008B5024801F06EFF08BD00BF19
:10234800BC03002008B50E4B5B6913F4806F09D1FC
:102358000B4B5B6913F4006F04D1094B5B6913F4F1
:10236800805F0BD003F01AF8054B4FF480625A6176
:102378004FF400625A614FF480525A6108BD00BFA1
:102388000004014008B503F02FFB0822014B5A61F5
:1023980008BD00BF0004014008B50C4B5B6913F091
:1023A800200F09D1094B5B6913F0400F04D1074B8B
:1023B8005B6913F0800F08D002F090FC034B2022D9
:1023C8005A6140225A6180225A6108BD00040140C6
:1023D80008B50A4B1B686FF002021A616FF004021D
:1023E8001A616FF008021A616FF010021A6102F0A8
:1023F800DDFF0348FFF760F808BD00BF400200207A
:10240800D400002008B50A4B1B686FF002021A615D
:102418006FF004021A616FF008021A616FF010027F
:102428001A6102F063FC0348FFF746F808BD00BFD5
:10243800D4010020A400002008B5024800F0CCFC1C
:1024480008BD00BF1801002008B5024800F0C4FC10
:1024580008BD00BF6C000020024B1B686FF0010232
:102468001A6170476C01002030B583B004460368D8
:1024780013F0010F00F09680B24B5B6803F00C0379
:10248800042B0AD0AF4B5B6803F00C03082B1BD15D
:10249800AC4B5B6813F4803F16D04FF4003393FACB
:1024A800A3F3A84B1A684FF4003393FAA3F3B3FAD3
:1024B80083F303F01F0322FA03F313F0010F71D023
:1024C8006368002B6ED1A0E26368B3F5803F05D145
:1024D8009C4A136843F48033136026E063B903F120
:1024E800804303F504331A6822F480321A601A68AC
:1024F80022F480221A6018E0B3F5A02F0CD103F162
:102508008043A3F53C331A6842F480221A601A68A3
:1025180042F480321A6008E08A4B1A6822F480324A
:102528001A601A6822F480221A606368EBB101F01D
:1025380047F8054605E001F043F8401B642800F21F
:1025480066824FF4003393FAA3F37E4B1A684FF474
:10255800003393FAA3F3B3FA83F303F01F0322FAC9
:1025680003F313F0010FE6D01CE001F029F805464B
:1025780005E001F025F8401B642800F24A824FF478
:10258800003393FAA3F36F4B1A684FF4003393FAAE
:10259800A3F3B3FA83F303F01F0322FA03F313F050
:1025A800010FE6D1236813F0020F00F09080654B0D
:1025B8005B6813F00C0F0AD0624B5B6803F00C03E6
:1025C800082B27D15F4B5B6813F4803F22D102238D
:1025D80093FAA3F35B4B1A68022393FAA3F3B3FAB3
:1025E80083F303F01F0322FA03F313F0010F03D060
:1025F8002369012B40F00F825248036823F0F80149
:102608006369F82292FAA2F2B2FA82F293400B437B
:1026180003605CE023699BB3012292FAA2F3B3FA48
:1026280083F39B0003F1844303F584031A6000F0ED
:10263800C7FF054605E000F0C3FF401B022800F273
:10264800EC81022393FAA3F33E4B1A68022393FA10
:10265800A3F3B3FA83F303F01F0322FA03F313F08F
:10266800010FE8D03748036823F0F8016369F822BE
:1026780092FAA2F2B2FA82F293400B43036026E088
:10268800012393FAA3F3B3FA83F39B0003F1844382
:1026980003F5840300221A6000F092FF054605E066
:1026A80000F08EFF401B022800F2B981022393FA42
:1026B800A3F3244B1A68022393FAA3F3B3FA83F320
:1026C80003F01F0322FA03F313F0010FE8D1236884
:1026D80013F0080F52D0A3693BB3012292FAA2F378
:1026E800B3FA83F3184941F8232000F069FF05463F
:1026F80005E000F065FF401B022800F292810223EA
:1027080093FAA3F293FAA3F20E4A526A93FAA3F346
:10271800B3FA83F303F01F0322FA03F313F0010F54
:10272800E7D0012000F052FF28E0012393FAA3F339
:10273800B3FA83F30021044A42F8231000F040FF63
:10274800054609E0001002408004424200F038FFCC
:10275800401B022800F26781022393FAA3F293FA3E
:10276800A3F2BA4A526A93FAA3F3B3FA83F303F0D3
:102778001F0322FA03F313F0010FE7D1236813F0C4
:10278800040F00F0A180B14BDA6942F08052DA619F
:10279800DB6903F080530193019BAD4A136843F44E
:1027A8008073136000F00CFF054605E000F008FF99
:1027B800401B642800F23981A54B1B6813F4807F05
:1027C800F4D0E368012B05D1A04A136A43F0010352
:1027D800136222E063B903F1804303F504331A6AF4
:1027E80022F001021A621A6A22F004021A6214E044
:1027F800052B09D1954B1A6A42F004021A621A6A2B
:1028080042F001021A6208E0904B1A6A22F00102B3
:102818001A621A6A22F004021A62E36853B300F0DB
:10282800CFFE054607E000F0CBFE401B41F288339F
:10283800984200F2FC80022393FAA3F293FAA3F3DE
:10284800B3FA83F35B0943F00203DBB2022B02D134
:102858007E4B1A6A01E07D4B5A6A022393FAA3F36E
:10286800B3FA83F303F01F0322FA03F313F0010F03
:10287800D9D029E000F0A4FE054607E000F0A0FE4C
:10288800401B41F28833984200F2D380022393FA26
:10289800A3F293FAA3F3B3FA83F35B0943F00203B9
:1028A800DBB2022B02D1694B1A6A01E0674B5A6A04
:1028B800022393FAA3F3B3FA83F303F01F0322FA74
:1028C80003F313F0010FD9D1E369002B00F0B380B3
:1028D8005E4A526802F00C02082A00F0AE80022B11
:1028E80068D14FF0807393FAA3F3B3FA83F39B0094
:1028F80003F1844303F5840300221A6000F060FEAC
:10290800054605E000F05CFE401B022800F29780B7
:102918004FF0007393FAA3F34C4B1A684FF000730F
:1029280093FAA3F3B3FA83F303F01F0322FA03F332
:1029380013F0010FE6D1236AB3F5803F06D143496E
:102948004B6823F40032A36813434B603F48436845
:1029580023F47411236A626A13430B4343604FF0F4
:10296800807393FAA3F3B3FA83F39B0003F18443D0
:1029780003F5840301221A6000F022FE044604E0F5
:1029880000F01EFE001B02285BD84FF0007393FA7C
:10299800A3F32E4B1A684FF0007393FAA3F3B3FA1C
:1029A80083F303F01F0322FA03F313F0010FE7D0B8
:1029B800002049E04FF0807393FAA3F3B3FA83F34E
:1029C8009B0003F1844303F5840300221A6000F09E
:1029D800F7FD044604E000F0F3FD001B022832D89E
:1029E8004FF0007393FAA3F3184B1A684FF0007373
:1029F80093FAA3F3B3FA83F303F01F0322FA03F362
:102A080013F0010FE7D100201EE001201CE0032095
:102A18001AE0032018E0012016E0032014E0032048
:102A280012E0032010E003200EE003200CE0032056
:102A38000AE0032008E0002006E0012004E003206B
:102A480002E0032000E0032003B030BD0010024084
:102A58000070004030B486B01F4D02AC2868696829
:102A6800AA68EB680FC42B8AADF804301B4B5B686F
:102A780003F00C02082A2AD103F470114FF47012E3
:102A880092FAA2F2B2FA82F221FA02F206A90A44F2
:102A980012F8102C13F4803F15D0104B5B6803F428
:102AA80000314FF4003393FAA3F3B3FA83F321FA16
:102AB80003F306A90B4413F8140C094BB3FBF0F00D
:102AC80000FB02F004E0074800FB02F000E00448C5
:102AD80006B030BC704700BFC06D0008001002404F
:102AE80000127A0000093D0070B5744B1B6803F0B2
:102AF80007038B420BD2714A136823F007030B4379
:102B08001360136803F00703994240F0C680036816
:102B180013F0020F06D06A4C636823F0F002836852
:102B2800134363600D460446036813F0010F75D024
:102B38004268012A13D14FF4003393FAA3F3604B90
:102B480019684FF4003393FAA3F3B3FA83F303F04D
:102B58001F0321FA03F313F0010F27D19FE0022A84
:102B680013D14FF0007393FAA3F3554B19684FF044
:102B7800007393FAA3F3B3FA83F303F01F0321FA64
:102B880003F313F0010F11D18BE0022393FAA3F39F
:102B98004B4B1968022393FAA3F3B3FA83F303F0B8
:102BA8001F0321FA03F313F0010F7CD044494B684B
:102BB80023F0030313434B6000F002FD06466368ED
:102BC800012B0ED106E000F0FBFC801B41F288339C
:102BD80098426AD83A4B5B6803F00C03042BF2D195
:102BE8001CE0022B15D106E000F0EAFC801B41F244
:102BF800883398425BD8324B5B6803F00C03082B90
:102C0800F2D10BE000F0DCFC801B41F288339842E3
:102C18004FD82B4B5B6813F00C0FF3D1274B1B6875
:102C280003F007039D420AD2244A136823F00703DE
:102C38002B431360136803F007039D423BD12368BD
:102C480013F0040F06D01E494B6823F4E062E368D2
:102C580013434B60236813F0080F07D0184A5368D2
:102C680023F46053216943EAC1035360FFF7F2FE7E
:102C7800134B5B6803F0F002F02393FAA3F3B3FA63
:102C880083F322FA03F30F4AD35CD8400E4B186043
:102C9800002000F067FC002070BD012070BD0120FD
:102CA80070BD012070BD012070BD032070BD0320E0
:102CB80070BD032070BD012070BD00BF0020024020
:102CC80000100240D46D000800000020014B186875
:102CD800704700BF0000002008B5FFF7F7FF084B5A
:102CE8005B6803F4E0624FF4E06393FAA3F3B3FA8A
:102CF80083F322FA03F3034AD35CD84008BD00BF2C
:102D080000100240E46D000810B404686360436872
:102D1800102B04D103689A600368D96003E0036844
:102D280099600368DA6010BC704700BF20B310B424
:102D3800034690F821200AB980F82020022283F85F
:102D480021201C68226822F47F5121F03001586844
:102D58009A681043DA6810431A6910435A69104395
:102D68009A691043DA6902430A43226000205863D3
:102D7800012283F8212001E00120704710BC704730
:102D880038B590F82040012C24D00446012084F85E
:102D98002000022084F821002568286820F001001E
:102DA80028602046FFF7B0FF2268136843F002034B
:102DB80013602268136843F00403136022681368E1
:102DC80043F0080313602268136843F0010313609B
:102DD800002038BD022038BD10B504460368B54A46
:102DE800934248D902F560721268B3498B4221D0E8
:102DF80014318B4220D014318B421FD014318B42B6
:102E08001FD014318B421FD014318B421FD0143184
:102E18008B421FD001F562718B421ED014318B4258
:102E28001DD014318B421CD014318B421CD14FF46D
:102E380000411BE0082119E0802117E04FF40061F0
:102E480014E04FF4004111E04FF400210EE04FF47C
:102E580000010BE04FF0006108E0082106E0802146
:102E680004E04FF4006101E04FF40021114214BF67
:102E78000122002246E0914A12688F498B4221D0F4
:102E880014318B4220D014318B421FD014318B4225
:102E98001FD014318B421FD014318B421FD01431F4
:102EA8008B421FD001F562718B421ED014318B42C8
:102EB8001DD014318B421CD014318B421CD14FF4DD
:102EC80000411BE0082119E0802117E04FF4006160
:102ED80014E04FF4004111E04FF400210EE04FF4EC
:102EE80000010BE04FF0006108E0082106E08021B6
:102EF80004E04FF4006101E04FF40021114214BFD7
:102F080001220022002A00F0A2801A6812F0080F9D
:102F180000F09D801A6822F008021A602368654A4A
:102F2800934243D9783A934221D01432934220D025
:102F3800143293421FD0143293421FD0143293425A
:102F48001FD0143293421FD0143293421FD002F57F
:102F5800627293421ED0143293421DD014329342AF
:102F68001CD0143293421CD14FF400421BE00822BB
:102F780019E0802217E04FF4006214E04FF4004299
:102F880011E04FF400220EE04FF400020BE04FF086
:102F9800006208E0082206E0802204E04FF40062A4
:102FA80001E04FF40022464B5A6042E0424A934205
:102FB80021D01432934220D0143293421FD01432BD
:102FC80093421FD0143293421FD0143293421FD021
:102FD800143293421FD002F5627293421ED014320B
:102FE80093421DD0143293421CD0143293421CD108
:102FF8004FF400421BE0082219E0802217E04FF44A
:10300800006214E04FF4004211E04FF400220EE099
:103018004FF400020BE04FF0006208E0082206E0DF
:10302800802204E04FF4006201E04FF40022234BB9
:103038005A60636B43F001036363042384F821300F
:10304800002384F82030236B0BB12046984723686F
:10305800184A934250D902F56072126816498B4299
:1030680021D014318B4220D014318B421FD014311F
:103078008B4227D014318B4227D014318B4227D072
:1030880014318B4227D001F562718B4226D014315E
:103098008B4225D014318B4224D014318B4224D159
:1030A8004FF4804123E0042121E040211FE04FF448
:1030B80080611CE0800002400800024000000240DD
:1030C800000402404FF4804111E04FF480210EE0EB
:1030D8004FF480010BE04FF0806108E0042106E026
:1030E800402104E04FF4806101E04FF48021114257
:1030F80014BF0122002246E0B44A1268B4498B4248
:1031080021D014318B4220D014318B421FD014317E
:103118008B421FD014318B421FD014318B421FD0E9
:1031280014318B421FD001F562718B421ED01431CD
:103138008B421DD014318B421CD014318B421CD1D0
:103148004FF480411BE0042119E0402117E04FF4BF
:10315800806114E04FF4804111E04FF480210EE0CB
:103168004FF480010BE04FF0806108E0042106E095
:10317800402104E04FF4806101E04FF480211142C6
:1031880014BF01220022002A00F09F801A6812F062
:10319800040F00F09A801A6812F0200F03D11A6801
:1031A80022F004021A6023688A4A934243D9783A83
:1031B800934221D01432934220D0143293421FD02C
:1031C800143293421FD0143293421FD014329342C8
:1031D8001FD0143293421FD002F5627293421ED060
:1031E800143293421DD0143293421CD014329342AD
:1031F8001CD14FF480421BE0042219E0402217E062
:103208004FF4806214E04FF4804211E04FF48022C2
:103218000EE04FF480020BE04FF0806208E00422D9
:1032280006E0402204E04FF4806201E04FF480227F
:10323800694B5A6042E0664A934221D01432934265
:1032480020D0143293421FD0143293421FD014322C
:1032580093421FD0143293421FD0143293421FD08E
:1032680002F5627293421ED0143293421DD014327A
:1032780093421CD0143293421CD14FF480421BE07D
:10328800042219E0402217E04FF4806214E04FF462
:10329800804211E04FF480220EE04FF480020BE0F0
:1032A8004FF0806208E0042206E0402204E04FF478
:1032B800806201E04FF48022444B5A60112384F865
:1032C8002130E36A0BB1204698472368414A93426C
:1032D80048D902F5607212683D498B4221D01431F9
:1032E8008B4220D014318B421FD014318B421FD017
:1032F80014318B421FD014318B421FD014318B42B2
:103308001FD001F562718B421ED014318B421DD043
:1033180014318B421CD014318B421CD14FF4005114
:103328001BE0022119E0202117E04FF4007114E09E
:103338004FF4005111E04FF400310EE04FF400114A
:103348000BE04FF0007108E0022106E0202104E0C4
:103358004FF4007101E04FF40031114214BF012213
:1033680000224EE0194A126819498B4221D01431C3
:103378008B4220D014318B421FD014318B421FD086
:1033880014318B421FD014318B4227D014318B4219
:1033980027D001F562718B4226D014318B4225D09B
:1033A80014318B4224D014318B4224D14FF4005174
:1033B80023E0022121E020211FE04FF400711CE0EE
:1033C8004FF4005119E04FF4003116E000000240BC
:1033D8000800024080000240000402404FF400113F
:1033E8000BE04FF0007108E0022106E0202104E024
:1033F8004FF4007101E04FF40031114214BF012273
:103408000022002A00F0A4801A6812F0020F00F0CF
:103418009F801A6812F0200F03D11A6822F0020266
:103428001A6023684B4A934243D9783A934221D091
:103438001432934220D0143293421FD01432934254
:103448001FD0143293421FD0143293421FD014322B
:1034580093421FD002F5627293421ED014329342F7
:103468001DD0143293421CD0143293421CD14FF415
:1034780000521BE0022219E0202217E04FF40072EC
:1034880014E04FF4005211E04FF400320EE04FF414
:1034980000120BE04FF0007208E0022206E0202242
:1034A80004E04FF4007201E04FF400322A4B5A60F6
:1034B80042E02A4A934221D01432934220D0143257
:1034C80093421FD0143293421FD0143293421FD01C
:1034D800143293421FD0143293421FD002F5627205
:1034E80093421ED0143293421DD0143293421CD002
:1034F800143293421CD14FF400521BE0022219E00F
:10350800202217E04FF4007214E04FF4005211E04B
:103518004FF400320EE04FF400120BE04FF000724F
:1035280008E0022206E0202204E04FF4007201E0E5
:103538004FF400320A4B5A60636B6363012384F8CB
:103548002130002384F82030A36A0BB12046984725
:1035580010BD00BF80000240000402400800024085
:103568000000024010B50446FFF7B0FB064BA3FB72
:1035780000308009FEF716FA002221464FF0FF308E
:10358800FEF7C4F9002010BDD34D621008B5074AF4
:10359800136843F0100313600320FEF7A5F9002019
:1035A800FFF7E0FF02F07AFF002008BD002002408C
:1035B800024A136801331360704700BF40000020BF
:1035C800014B1868704700BF4000002010B582B05A
:1035D8000190FFF7F5FF0446FFF7F2FF001B019B80
:1035E8009842F9D302B010BD438D9BB22BB9026843
:1035F800536823F4806353600AE00268436A591CE5
:1036080041621B781361438D9BB2013B9BB243859A
:1036180000207047438D9BB253B10268436A591C1E
:1036280041621B781361438D9BB2013B9BB243857A
:1036380000207047438D9BB253B10268436A591CFE
:1036480041621B781361438D9BB2013B9BB243855A
:1036580000207047438D9BB253B1436A5A1C4262A3
:10366800026812691A70438D9BB2013B9BB2438575
:1036780000207047438D9BB253B1436A5A1C426283
:10368800026812691A70438D9BB2013B9BB2438555
:103698000020704782B003685A6901929B690193C0
:1036A800019B002002B070474368114A934208D832
:1036B8005800B1FBF0F0C0F30B03032B16D804201D
:1036C8007047826832B903EB4300B1FBF0F040F475
:1036D800004007E003EB830000EB8000B1FBF0F053
:1036E80040F44040C0F30B0303B90120704700BF0A
:1036F800A086010003685A6912F4806F0DD05A69D8
:1037080022F480625A6104238363202380F83530D1
:10371800002380F83430012070470020704700BF34
:103728002DE9F04106460C4690461D46FFF748FF36
:103738000746B8F1000F12D03DE0B5F1FF3F0ED0BB
:1037480025B1FFF73DFFC01B854208D2202386F82C
:103758003530002386F834300320BDE8F081C4F307
:103768000743012B08D133685B6924EA03039BB242
:10377800003318BF012307E033689B6924EA030379
:103788009BB2003318BF0123002BD6D10020BDE81F
:10379800F081B5F1FF3F0ED025B1FFF711FFC01B37
:1037A800854208D2202386F83530002386F8343045
:1037B8000320BDE8F081C4F30743012B08D1336827
:1037C8005B6924EA03039BB2B3FA83F35B0907E05E
:1037D80033689B6924EA03039BB2B3FA83F35B095A
:1037E800002BD6D10020BDE8F08100BFF8B5044613
:1037F8000D461646FFF7E4FE074628E023685A6997
:1038080012F4806F12D01A6842F400721A602268AB
:10381800536923F4806353610423A363202384F84A
:103828003530002384F834300120F8BDB6F1FF3F6D
:103838000DD026B1FFF7C4FEC01B864207D2202355
:1038480084F83530002384F834300320F8BDC5F3FC
:103858000743012B08D123685B6925EA03039BB260
:10386800003318BF012307E023689B6925EA030397
:103878009BB2003318BF0123002BBFD10020F8BD35
:1038880070B504460E4615460268136843F4807303
:1038980013602B4600224FF00111FFF741FF48BB90
:1038A8002369B3F5804F04D1236806F0FE061E6134
:1038B80014E02268F31103F0060343F0F0031361E8
:1038C8002A4610492046FFF791FF20B1A36B042B2D
:1038D80012D1012313E02368F6B21E612A460A4971
:1038E8002046FFF783FF034648B1A36B042B05D19D
:1038F800012304E0032302E0032300E00323184626
:1039080070BD00BF0800010002000100F0B583B0DF
:1039180004460E4615460268136843F48063136034
:103928000268136843F4807313602B4600224FF03B
:103938000111FFF7F5FE00284BD12369B3F5804F3D
:1039480005D1236846F00106F6B21E6135E023680A
:10395800F71107F0060747F0F0021A612A462349D3
:103968002046FFF743FF20B1A36B042B33D101237B
:1039780038E02368F6B21E612A461D492046FFF743
:1039880035FF20B1A36B042B27D101232AE023683C
:103998005A6901929A690192019A1A6842F48072EE
:1039A8001A602B4600224FF001112046FFF7B8FE9F
:1039B800A8B9236847F0F1071F612A460C49204639
:1039C800FFF714FF034668B1A36B042B09D1012349
:1039D80008E0032306E0032304E0032302E00323B3
:1039E80000E00323184603B0F0BD00BF0800010043
:1039F8000200010070B504460D46FFF7E1FD0646DA
:103A080018E02046FFF776FED8B9B5F1FF3F11D090
:103A180025B1FFF7D5FD801B85420BD2A36B43F080
:103A28002003A363202384F83530002384F834303E
:103A3800032070BD23685B6913F0800FE1D000207C
:103A480070BD012070BD00BF70B504460D46FFF77C
:103A5800B7FD064618E02046FFF74CFED8B9B5F189
:103A6800FF3F11D025B1FFF7ABFD801B85420BD27C
:103A7800A36B43F02003A363202384F8353000238D
:103A880084F83430032070BD23685B6913F0040F99
:103A9800E1D0002070BD012070BD00BF70B50546A3
:103AA8000C46FFF78DFD064622E05A6912F0100F0A
:103AB8000CD05A6922F010025A610023AB6320220D
:103AC80085F8352085F83430012070BD24B1FFF722
:103AD80077FD801B84420BD2AB6B43F02003AB63B2
:103AE800202385F83530002385F83430032070BD55
:103AF8002B685A6912F0400FD7D0002070BD00BF64
:103B080000284ED038B5044690F8353013F0FF0F32
:103B180004D1002380F8343002F07AFD242384F89D
:103B280035302268136823F001031360FFF7D4F8D7
:103B380001461D4BA3FB00239B0C226853602068A1
:103B480065681A4A954201D8013308E04FF4967225
:103B580002FB03F3164AA2FB03239B09013303620A
:103B680025682046FFF7A0FDE8612268E169236A1D
:103B78000B43136022682169E3680B439360226852
:103B88006169A3690B43D3602268136843F001039A
:103B980013600020A063202384F8353084F83600B1
:103BA80038BD0120704700BF83DE1B43A08601009B
:103BB800D34D6210F0B583B01E4690F83530DBB2B5
:103BC800202B7BD104460F461546002A78D0002EBC
:103BD80078D00A2301224149FFF7A2FD002873D1BA
:103BE80094F83430012B71D0012384F834302268E2
:103BF800136823F400631360212384F835301023FD
:103C080084F836300023A363089A39462046FFF724
:103C180037FE60B1A36B042B04D1002384F8343041
:103C2800012358E0002384F83430032353E0236849
:103C38005A6901929B690193019B21E008992046EA
:103C4800FFF7D8FE48B1A36B042B41D12268136853
:103C580043F40073136001233DE023686A1C29784C
:103C68001961731E9BB22168486910F0040F05D0D2
:103C780023B1AA1C6B780B61B31E9BB21E46154676
:103C8800002EDBD108992046FFF7DEFE034648B137
:103C9800A36B042B1ED12268136843F400731360CE
:103CA800012318E021680A6842F400720A602022A1
:103CB80084F83520002284F834200CE002230AE03E
:103CC800012308E0012306E0022304E0022302E0C6
:103CD800032300E00323184603B0F0BD02001000E0
:103CE800F0B585B01E4690F83530DBB2202B40F099
:103CF800F28004460D461746002A00F0EE80002E9A
:103D080000F0ED800A2301227E49FFF709FD002813
:103D180040F0E78094F83430012B00F0E480012370
:103D280084F834302268136823F400631360222374
:103D380084F83530102384F836300023A3630A9AB8
:103D480029462046FFF7E2FD054660B1A36B042B28
:103D580004D1002384F834300125CFE0002384F80F
:103D680034300325CAE0012E11D12268136823F4E8
:103D78008063136072B623685A6901929A69019246
:103D8800019A1A6842F400721A6062B698E0022E2C
:103D980011D12268136843F40063136072B6236874
:103DA8005A6902929A690292029A1A6822F4806207
:103DB8001A6062B684E02268136843F48063136073
:103DC80023685A6903929B690393039B78E0032E47
:103DD80059D8012E11D10A992046FFF75FFE28B164
:103DE800A36B202B40F08180032587E023681B69A3
:103DF8003B70013EB6B2013762E0022E1AD10A9B2F
:103E0800002241492046FFF78BFC00286FD172B68B
:103E18002268136843F40073136023681A693B46E9
:103E280003F8022B62B6226812697A70023EB6B2B3
:103E38001F4645E00A9B002233492046FFF770FCE5
:103E4800002856D12268136823F48063136072B681
:103E580023681B693B700A9B00222B492046FFF709
:103E68005FFC002847D12268136843F4007313608D
:103E780023681B697B7062B623681B69BB70033EAD
:103E8800B6B203371CE00A992046FFF707FE20B1B7
:103E9800A36B202B31D1032530E0781C23681B69E4
:103EA8003B70731E9BB22268516911F0040F05D054
:103EB80013697B70023EB6B2023701E01E46074620
:103EC800002E84D1202384F83530002384F836303E
:103ED80084F8343012E0022510E001250EE00125B7
:103EE8000CE002250AE0022508E0012506E003258A
:103EF80004E0032502E0032500E00125284605B07B
:103F0800F0BD00BF0200100004000100704700BFB0
:103F180008B501684A6822F4E0624A6001684A69A3
:103F280022F480624A6101680A6822F480620A60A9
:103F3800202280F83520FFF7E9FF002008BD00BFE8
:103F4800704700BF00B583B001684A6822F4E06298
:103F58004A6001684A6901920A6842F001020A60EF
:103F68000192019A01680A6822F480620A6020229C
:103F780080F83520FFF7E4FF002003B05DF804FB6C
:103F8800704700BF08B5438D9BB25BB10268436AB6
:103F9800591C41621B781361438D9BB2013B9BB254
:103FA800438519E00268536823F4E06353600268AC
:103FB800136843F40073136090F83630DBB2402B7B
:103FC80005D1202380F83530FFF7DAFF04E02023FD
:103FD80080F8353001F08CFB002008BD704700BF29
:103FE80008B5438D9BB2032B0BD9436A5A1C426216
:103FF800026812691A70438D9BB2013B9BB24385DC
:1040080028E0023B012B05D80268536823F480633B
:1040180053601FE00268536823F4E0635360436A07
:104028005A1C4262026812691A70438D9BB2013BA6
:104038009BB2438590F83630DBB2402B05D1202364
:1040480080F83530FFF7CAFF04E0202380F83530C8
:1040580001F05AFB002008BD08B5438D9BB2032B25
:1040680010D10268136823F480631360436A5A1CF2
:104078004262026812691A70438D9BB2013B9BB27F
:1040880043853FE0438D9BB2022B30D102685368D1
:1040980023F4407353600268136843F40073136099
:1040A800436A5A1C4262026812691A70438D9BB2B5
:1040B800013B9BB24385436A5A1C426202681269FB
:1040C8001A70438D9BB2013B9BB2438590F8363002
:1040D800DBB2402B05D1202380F83530FFF77EFF77
:1040E80010E0202380F8353001F00EFB0AE0436A27
:1040F8005A1C4262026812691A70438D9BB2013BD6
:104108009BB24385002008BD38B590F83630DBB245
:10411800102B04D090F83630DBB2402B36D1036830
:104128009A6912F0040F18D05C695A6802F4806129
:104138005A6902F004025B6803F4007314F0800FFC
:1041480004D019B112B9FFF74FFA38BD002A62D06E
:10415800002B60D0FFF716FF38BD5C695A6802F47F
:1041680080615A6902F004025B6803F4007314F07A
:10417800400F04D019B112B9FFF732FF38BD002A39
:1041880049D0002B47D0FFF767FF38BD03685D694A
:104198005A6802F40072596901F010019C6904F030
:1041A800040415F0020F03D012B1FFF773FA38BDFB
:1041B80019B112B1FFF7C6FE38BDB4B15C695A68CF
:1041C80002F480615A6902F004025B6803F4007328
:1041D80014F0800F04D019B112B9FFF71BFA38BDDB
:1041E800CAB1C3B1FFF726FA38BD5C695A6802F450
:1041F80080615A6902F004025B6803F4007314F0EA
:10420800400F04D019B112B9FFF724FA38BD12B122
:104218000BB1FFF72FFA38BD10B50446036859698A
:104228005A6811F4807F0FD002F4807262B1826BF9
:1042380042F0010282635A6922F480725A6102686C
:10424800136843F400431360236859695A6802F4F9
:10425800807211F4007F08D03AB1A26B42F00202DA
:10426800A2635A6922F400725A612268516953683C
:1042780003F4807311F4806F1ED0EBB194F83630DC
:10428800DBB2618D89B294F83500C0B2202B06D11B
:1042980029B9212803D12046FFF73AFE0CE0A36B89
:1042A80043F00403A363136843F4007313602268A4
:1042B800536923F480635361236859695A6802F487
:1042C800807211F4006F08D03AB1A26B42F0080274
:1042D800A2635A6922F400625A61A36B53B1202386
:1042E80084F835302268136823F40063136020468D
:1042F80001F016FA10BD00BFF0B583B0044603689C
:1043080013F0010F6FD0474BDA6942F08052DA613F
:10431800DB6903F080530193019B434A136843F41C
:1043280080731360FFF74CF9054604E0FFF748F97E
:10433800401B64286FD83C4B1B6813F4807FF5D072
:10434800384B1B6A13F4407346D0626802F440721B
:10435800934241D03348016A21F440764FF48033C8
:1043680093FAA3F2B2FA82F2304D012745F822708F
:1043780093FAA3F3B3FA83F3002245F823200662E5
:1043880011F0010F28D0FFF71BF9054606E0FFF7EB
:1043980017F9401B41F2883398423ED8022393FA1A
:1043A800A3F293FAA3F3B3FA83F35B0943F002038E
:1043B800DBB2022B02D11B4B1A6A01E0194B5A6A75
:1043C800022393FAA3F3B3FA83F303F01F0322FA49
:1043D80003F313F0010FDAD012490B6A23F4407289
:1043E800636813430B62236813F0020F06D00D496C
:1043F8004B6823F44042A36813434B60236813F0CF
:10440800100F0CD007494B6823F4800263691343EB
:104418004B60002004E0032002E0032000E00020BD
:1044280003B0F0BD0010024000700040000442429A
:10443800704700BF68B310B504460368DA6812F025
:10444800010F03D0DB6813F0020F24D1637B13F054
:10445800FF0F04D1002323732046FFF7E9FF02234F
:104468006373236845F255521A6021684B6823F03C
:104478000702636813434B6021688B6823F47F63EA
:1044880023F00F03A26813438B600123637300209A
:1044980010BD01207047012010BD00BF037B012B18
:1044A8000FD00223437303684CF6CC421A600368AA
:1044B8004AF6AA221A60012343730023037318469D
:1044C80070470220704700BF38B5037B012B20D00E
:1044D80004460123037302234373FFF771F805466B
:1044E8000AE0FFF76DF8401BB0F57A7F04D9032086
:1044F80060730023237338BD2368DA6812F0020F53
:10450800EFD14AF6AA221A600123637300202073B0
:1045180038BD022038BD00BF10B584B01D4B5A69A4
:1045280042F002025A615B6903F002030093009BA8
:10453800002211463B20FDF7E9F93B20FDF718FA68
:104548001548164B036000238360C36043614FF432
:104558006022C261436001230361FDF7F3F808B1EB
:1045680001F08AFA0A23019300230393012302939B
:1045780001A90948FCF786FE08B101F07DFA064C4E
:104588002046FCF799FF012205492046FDF710F85F
:1045980004B010BD00100240A4000020003C0140FF
:1045A8006400002010B53B20FDF7EEF9034B1C8892
:1045B800A4B23B20FDF7DCF9204610BD64000020C2
:1045C8000122014B9A7170476400002010B584B035
:1045D8002E4B5A6942F001025A615B6903F00103EC
:1045E8000093009B022201210B20FDF78FF90B207D
:1045F800FDF7BEF92648274B03604FF480738360AC
:104608000023C36043614FF46022C2614360042306
:104618000361FDF797F808B101F02EFA0B23019317
:104628000123029301A91A48FCF72CFE08B101F0F6
:1046380023FA0C2301930223029301A91448FCF7DF
:1046480021FE08B101F018FA022301930323029313
:1046580001A90F48FCF716FE08B101F00DFA032373
:104668000193042302930DEB03010948FCF70AFEAA
:1046780008B101F001FA064C2046FCF71DFF0422A0
:1046880005492046FCF794FF04B010BD0010024015
:10469800D4000020002401400C01002010B50B209C
:1046A800FDF772F9034BDC88A4B20B20FDF760F923
:1046B800204610BD0C01002010B50B20FDF764F951
:1046C800034B1C88A4B20B20FDF752F9204610BDFD
:1046D8000C0100200122014B9A7270470C01002046
:1046E80010B586B00F4B9A6942F008029A619B692F
:1046F80003F008030193019BE02302930A4B039301
:10470800032305930024049402A90848FDF776F9C9
:10471800224621461720FDF7F9F81720FDF728F95A
:1047280006B010BD0010024000003110000C01401E
:104738004FF40002014B1A61704700BF00080140A6
:104748008022014B1A617047000801404FF4803203
:10475800014B1A61704700BF000C01400122014B58
:104768001A617047000C01404FF40032014B1A6186
:10477800704700BF000C01400222014B1A617047CC
:10478800000C0140034B1A68136A43F001031362DB
:10479800704700BFD4010020044B1A68136A23F045
:1047A80001031B041B0C1362704700BFD4010020D7
:1047B800034B1A68136A43F010031362704700BF73
:1047C800D4010020044B1A68136A23F010031B0459
:1047D8001B0C1362704700BFD4010020034B1A68FA
:1047E800136A43F480731362704700BFD40100203A
:1047F800044B1A68136A23F480731B041B0C13629E
:10480800704700BFD4010020064B1B6803FB00F073
:10481800054BA3FB00308009044B1B685863986361
:10482800D863704710020020D34D6210D4010020D5
:1048380010B50020FFF7E8FF104C0123A373FFF722
:104848007FFFFFF78BFFFFF797FFFFF7A5FFFFF746
:10485800B9FFFFF7CDFF002211461720FDF756F8E4
:104868001720FDF791F8064B20225A6140225A6121
:1048780080225A6100232371637110BD1002002049
:10488800000401402DE9F04399B0644B9A6942F461
:1048980000529A619A6902F400520192019A604AA0
:1048A8001268D2085F49A1FB0212120A013A5E4F50
:1048B8003A609A6942F400529A619A6902F4005285
:1048C8000292029A9A6942F004029A619A6902F085
:1048D80004020392039A9A6942F008029A619A695B
:1048E80002F008020492049A9A6942F010029A614E
:1048F8009B6903F010030593059BFFF721FFFFF762
:104908002DFFFFF739FF012615964FF00308CDF864
:104918005C80169618AC802344F8103D2146434825
:10492800FDF76CF81496DFF8149121464846FDF718
:1049380065F80225149521464846FDF75FF8159558
:10494800CDF85C8016954FF4E073149321463848EF
:10495800FDF754F8374D384B2B6000246C603B68EA
:10496800EB602C61AC606C612846FDF757FB0C943A
:104978000B940A9408944FF4806307934FF40063F0
:1049880006932823099306A92846FCF783FF60238A
:104998000D9311940F944FF00808CDF840801294AD
:1049A80013940E9422460DA92846FDF78BFB0E940E
:1049B80004220DA92846FDF785FB0E9442460DA951
:1049C8002846FDF77FFB21462846FDF7F7FB042123
:1049D8002846FDF7F3FB41462846FDF7EFFB0C217F
:1049E8002846FDF70DFC2046FFF70EFFFFF7A8FE4F
:1049F800FFF7B4FEFFF7C0FEFFF7CEFEFFF7E2FEBB
:104A0800FFF7F6FEBE73324621462E20FCF77EFFE6
:104A18002E20FCF7ADFF19B0BDE8F083001002406E
:104A28000000002089B5F814100200200008014099
:104A380000100140D401002000340140000C014066
:104A480008B5FFF71FFFFFF74BFE044B00221A7152
:104A58005A71DA801A81FFF7EBFE08BD10020020B8
:104A680010B56A4B9B6803F0E003694CA381FFF71C
:104A780067FEFFF773FEFFF77FFEFFF78DFEFFF778
:104A8800A1FEFFF7B5FEA37B13F0FF0F40F0BC803B
:104A9800A37A13F0FF0F42D0A3899BB2602B1CD0DE
:104AA80004D8202B09D0402B0FD036E0A02B24D0DF
:104AB800C02B2AD0802B30D117E00022544BDA7358
:104AC800FFF760FEFFF742FE6CE00222504BDA73FC
:104AD800FFF76EFEFFF748FE64E001224C4BDA73E5
:104AE800FFF750FEFFF740FE5CE00422484BDA7304
:104AF800FFF71EFEFFF772FE54E00522444BDA73FF
:104B0800FFF724FEFFF76AFE4CE00322404BDA73FE
:104B1800FFF70EFEFFF74CFE44E000BF42E03C4BBF
:104B28009B899BB2602B1CD004D8202B09D0402B2A
:104B38000FD036E0A02B24D0C02B2AD0802B30D128
:104B480017E00022324BDA73FFF7F2FDFFF730FE71
:104B580028E002222E4BDA73FFF7F8FDFFF73EFE3E
:104B680020E001222A4BDA73FFF7E2FDFFF736FE59
:104B780018E00422264BDA73FFF704FEFFF7F4FD72
:104B880010E00522224BDA73FFF712FEFFF7ECFD67
:104B980008E003221E4BDA73FFF7F4FDFFF7D6FD9A
:104BA80000E000BF1A4BDB7B13F0FF0F09D1184B55
:104BB8001B7CDBB2052B04D1154A5369013B5361B9
:104BC8001EE0134BDB7BDBB2052B09D1104B1B7CA2
:104BD80013F0FF0F04D10E4A5369013353610FE0FC
:104BE8000B4BDA7BD2B21B7CDBB29A4204D9084A5F
:104BF8005369013B536103E0054A5369013353612B
:104C0800034AD37BDBB2137410BD00BF000C014014
:104C18001002002038B50020FFF7F6FD094D0024EA
:104C28002C81EC80224621461720FCF76FFE1720C6
:104C3800FCF79EFE2046FFF7E7FDAC73FFF710FF79
:104C480038BD00BF1002002010B50446B0F57A7FC9
:104C580001DD4FF47A7414F57A7F00DA1B4C002CCE
:104C68000DDA604280B204B2194B1B780BB9FFF71A
:104C7800CBFD0123174A9372154A13700BE0144BAE
:104C88001B78012B02D1A0B2FFF7BEFD0023114A09
:104C980093720F4A1370A4B204F114039BB2282B29
:104CA80005D801230B4A93730B4A13700AE00022BC
:104CB800084B9A73084B1B780BB1FFF7D1FE002203
:104CC800054B1A702046FFF79FFD10BD18FCFFFF2B
:104CD800440000201002002045000020024B012261
:104CE8001A715A71704700BF1002002008B51B4B9B
:104CF8005B7913F0FF0F0ED0184B1B7913F0FF0FE1
:104D080009D1FFF7ADFE154B002159711A8992B2EE
:104D1800DA8019810EE0114B5B7913F0FF0F09D08F
:104D28000E4B1B7913F0FF0F04D00C4A1379013B8B
:104D3800DBB21371094A13899BB201339BB2138109
:104D480013899BB241F28732934205D9034B41F252
:104D580088321A810022DA8008BD00BF10020020C4
:104D68004FF00052014B1A61704700BF000C014020
:104D78004FF40052014B1A61704700BF000C01400C
:104D88004FF08042014B1A61704700BF000C014090
:104D98004FF48042014B1A61704700BF000C01407C
:104DA8004FF00042014B1A61704700BF000C0140F0
:104DB8004FF40042014B1A61704700BF000C0140DC
:104DC80010B586B0104B9A6942F010029A619B693F
:104DD80003F010030193019B4FF4E05302930B4B34
:104DE8000393032305930024049402A90848FCF7BD
:104DF80005FE224621462820FCF788FD2820FCF7DE
:104E0800B7FD06B010BD00BF001002400000311011
:104E180000100140034B1A68136A43F00103136240
:104E2800704700BF40020020044B1A68136A23F041
:104E380001031B041B0C1362704700BF40020020D3
:104E4800034B1A68136A43F010031362704700BFDC
:104E580040020020044B1A68136A23F010031B0455
:104E68001B0C1362704700BF40020020034B1A68F6
:104E7800136A43F480731362704700BF4002002036
:104E8800044B1A68136A23F480731B041B0C136207
:104E9800704700BF40020020064B1B6803FB00F070
:104EA800054BA3FB00308009044B1B6858639863CB
:104EB800D863704728020020D34D621040020020BA
:104EC80010B50020FFF7E8FF124C0123A373FFF78A
:104ED8004FFFFFF75DFFFFF76BFFFFF7A5FFFFF73A
:104EE800B9FFFFF7CDFF002211462820FCF70EFD81
:104EF8002820FCF749FD084B4FF480525A614FF4C3
:104F080000625A614FF480625A6100232371637111
:104F180010BD00BF28020020000401402DE9F04127
:104F280096B06A4B9A6942F400629A619A6902F4EF
:104F380000620092009A664A1268D2086549A1FB8D
:104F48000212120A013A644F3A609A6942F4006206
:104F58009A619A6902F400620192019A9A6942F090
:104F680004029A619A6902F004020292029A9A690A
:104F780042F008029A619B6903F008030393039BBC
:104F8800FFF7F6FEFFF704FFFFF712FF012613965F
:104F980014964FF00308CDF8548016AC4FF4005324
:104FA80044F8103D4D4D21462846FCF727FD4FF4A7
:104FB8008043129321462846FCF720FD4FF4004316
:104FC800129321462846FCF719FD022313931493E4
:104FD800CDF854804FF480731293A5F5806521466F
:104FE8002846FCF70BFD4FF4007312932146284620
:104FF800FCF704FD4FF48068CDF848802146284628
:10500800FCF7FCFC364D374B2B6000246C603B688A
:10501800EB602C61AC606C612846FCF7FFFF0A94DA
:10502800099408940694CDF814804FF4006304930F
:105038002823079304A92846FCF72CFC60230B932C
:105048000F940D944FF00808CDF8388010941194FF
:105058000C9422460BA92846FDF734F80C94042238
:105068000BA92846FDF72EF80C9442460BA92846B2
:10507800FDF728F821462846FDF7A0F80421284620
:10508800FDF79CF841462846FDF798F80C2128467C
:10509800FDF7B6F82046FFF7FFFEFFF769FEFFF7BA
:1050A80077FEFFF785FEFFF7BFFEFFF7D3FEFFF79A
:1050B800E7FEBE73324621461B20FCF727FC1B2067
:1050C800FCF756FC16B0BDE8F08100BF00100240A6
:1050D8000000002089B5F81428020020000C0140C7
:1050E80040020020002C014008B5FFF717FFFFF72A
:1050F80067FE044B00221A715A71DA801A81FFF791
:10510800DFFE08BD2802002010B5704B9B6803F431
:10511800E0536F4CA381FFF72BFEFFF739FEFFF733
:1051280047FEFFF781FEFFF795FEFFF7A9FEA37B79
:1051380013F0FF0F40F0C880A37A13F0FF0F48D098
:10514800A3899BB2B3F5406F21D006D8B3F5806F21
:105158000DD0B3F5006F12D039E0B3F5A05F26D0BB
:10516800B3F5C05F2BD0B3F5805F30D117E00022D4
:10517800574BDA73FFF7F4FDFFF762FE72E0022285
:10518800534BDA73FFF7FCFDFFF770FE6AE001226C
:105198004F4BDA73FFF7E4FDFFF768FE62E0042285
:1051A8004B4BDA73FFF736FEFFF7FAFD5AE005229C
:1051B800474BDA73FFF744FEFFF7F2FD52E0032294
:1051C800434BDA73FFF726FEFFF7DAFD4AE000BF2C
:1051D80048E03F4B9B899BB2B3F5406F21D006D87E
:1051E800B3F5806F0DD0B3F5006F12D039E0B3F589
:1051F800A05F26D0B3F5C05F2BD0B3F5805F30D168
:1052080017E00022324BDA73FFF704FEFFF7B8FD10
:1052180028E002222E4BDA73FFF712FEFFF7C0FDDB
:1052280020E001222A4BDA73FFF7F4FDFFF7B8FDFF
:1052380018E00422264BDA73FFF792FDFFF716FEFB
:1052480010E00522224BDA73FFF79AFDFFF70EFEF6
:1052580008E003221E4BDA73FFF782FDFFF7F0FD2B
:1052680000E000BF1A4BDB7B13F0FF0F09D1184B8E
:105278001B7CDBB2052B04D1154A536901335361FA
:105288001EE0134BDB7BDBB2052B09D1104B1B7CDB
:1052980013F0FF0F04D10E4A5369013B53610FE02D
:1052A8000B4BDA7BD2B21B7CDBB29A4204D9084A98
:1052B80053690133536103E0054A5369013B536164
:1052C800034AD37BDBB2137410BD00BF001001404A
:1052D8002802002038B50020FFF7DEFD094D002424
:1052E8002C81EC80224621462820FCF70FFB282041
:1052F800FCF73EFB2046FFF7CFFDAC73FFF704FF3A
:1053080038BD00BF2802002010B50446B0F57A7FEA
:1053180001DD4FF47A7414F57A7F00DA1B4C002C07
:105328000DDA604280B204B2194B1B780BB9FFF753
:10533800B3FD0123174A9372154A13700BE0144BFF
:105348001B78012B02D1A0B2FFF7A6FD0023114A5A
:1053580093720F4A1370A4B204F114039BB2282B62
:1053680005D801230B4A93730B4A13700AE00022F5
:10537800084B9A73084B1B780BB1FFF7C5FE002248
:10538800054B1A702046FFF787FD10BD18FCFFFF7C
:10539800470000202802002046000020024B01227E
:1053A8001A715A71704700BF2802002008B51B4BBC
:1053B8005B7913F0FF0F0ED0184B1B7913F0FF0F1A
:1053C80009D1FFF7A1FE154B002159711A8992B234
:1053D800DA8019810EE0114B5B7913F0FF0F09D0C9
:1053E8000E4B1B7913F0FF0F04D00C4A1379013BC5
:1053F800DBB21371094A13899BB201339BB2138143
:1054080013899BB241F28732934205D9034B41F28B
:1054180088321A810022DA8008BD00BF28020020E5
:1054280010B586B00D4B9A6942F008029A619B69E3
:1054380003F008030193019B094C00220421204634
:10544800FCF7DAFB04230293012303930223059359
:1054580002A92046FCF7D2FA06B010BD001002409F
:10546800000C014000B587B00B4B9A6942F004026A
:105478009A619B6903F004030193019B4FF48053E5
:105488000293002303930123049302A90348FCF722
:10549800B5FA07B05DF804FB0010024000080140AF
:1054A80008B5024604210248FCF7A6FB08BD00BF68
:1054B800000C014008B5024620210248FCF79CFB7D
:1054C80008BD00BF0008014008B502461021024887
:1054D800FCF792FB08BD00BF0008014030B587B05B
:1054E800124B9A6942F004029A619B6903F0040323
:1054F8000193019B0E4D002210212846FCF77CFBEE
:1055080010230293012403940223059302A9284639
:10551800FCF774FA0020FFF7D7FF2046FFF7D4FF07
:105528000020FFF7D1FF07B030BD00BF00100240D8
:105538000008014038B500251AE00120FFF7C4FF34
:10554800A02000F02BF90020FFF7BEFFA02000F0FC
:1055580025F90A48FEF7B8FF013400E00024952C2D
:10556800EBDD0020FFF7B0FFC820FEF72FF801356C
:10557800012DF3DD0020FFF7A7FF38BD90050020BF
:1055880010B500240FE00120FFF79EFFA02000F0D7
:1055980005F90020FFF798FFA02000F0FFF8054864
:1055A800FEF792FF0134B4F5167FECDB0020FFF71D
:1055B8008BFF10BD9005002008B502210148FCF7BB
:1055C80013FB08BD0008014000B585B0082300930F
:1055D8000A4B019303230393022302936946084865
:1055E800FCF70CFA002211460920FCF78FF9092074
:1055F800FCF7BEF905B05DF804FB00BF0000211000
:105608000008014030B587B00F4B9A6942F0040298
:105618009A619B6903F004030193019B022404949B
:1056280020230293012303930594084D02A92846D9
:10563800FCF7E4F9029400230393049302A9284693
:10564800FCF7DCF907B030BD00100240000801404B
:1056580000B583B0214BDA6942F48002DA61DA6975
:1056680002F480020092009A5A6942F001025A61DB
:105678005B6903F001030193019B042201210E20C1
:10568800FCF744F90E20FCF773F9032201210F20DF
:10569800FCF73CF90F20FCF76BF91148114B03603C
:1056A800114B436000238360C3604FF48042026162
:1056B80043618361C3610362FEF722FA08B100F017
:1056C800DBF90A4B00221A735A739A73DA731F2094
:1056D800FCF74EF903B05DF804FB00BF0010024070
:1056E800BC03002000580040A0860100A803002049
:1056F8000268034B9A4202D10122024B1A73704787
:1057080000580040A80300200268034B9A4202D1C7
:105718000122024B5A73704700580040A80300202A
:10572800704700BF10B582B0114BDA6942F0010230
:10573800DA61DB6903F001030193019B0D4C4FF023
:10574800804323604FF6FF73E3600B4B1B680B4AE3
:10575800A2FB03239B0C013B636000232361A3602E
:105768002046FCF73FFC2046FCF708FB02B010BDC2
:1057780000100240680400200000002083DE1B4364
:1057880008B50448FCF708FB034AD36923F0010372
:10579800D36108BD680400200010024010B504461B
:1057A800FFF7C0FF4FF080435A6A4FF080435B6AAF
:1057B8009B1AA342F9D9FFF7E3FF10BD014B186804
:1057C800704700BFA404002070B50B4C002626705B
:1057D800FFF776FBFFF72CF8FDF7F2FE074D686040
:1057E800FDF7EEFE28614FF4AF63AB602E73002324
:1057F800A3616362A36270BDB8040020A404002002
:1058080010B504463249FBF7C3FC002844D131499E
:105818002046FBF7BDFC002840D12F492046FBF766
:10582800B7FC00283CD12D492046FBF7B1FC0028E5
:1058380038D12B492046FBF7ABFC002834D1294945
:105848002046FBF7A5FC002830D127492046FBF766
:105858009FFC00282DD125492046FBF799FC0028FC
:1058680029D123492046FBF793FC30BB2149204628
:10587800FBF78EFC18BB20492046FBF789FC00BBD0
:105888001E492046FBF784FCE8B91D492046FBF772
:105898007FFCD0B11B4810BD1B4810BD1B4810BD74
:1058A8001B4810BD1B4810BD1B4810BD4FF07D5054
:1058B80010BD1A4810BD1A4810BD1A4810BD1A4824
:1058C80010BD1A4810BD1A4810BD4FF07E5010BDCB
:1058D80000004842000044420000404200003C42B0
:1058E80000003842000034420000304200002C42E0
:1058F80000002842000024420000204200001C4210
:10590800000018428FC2753F9A99193FAE47213F50
:10591800C3F5283FD7A3303FEC51383F14AE473F7B
:10592800295C4F3F3D0A573F52B85E3F6666663F67
:105938007B146E3F00000000F8B5FDF741FE204BD8
:105948005B68C01AC82836D9FDF73AFE1C4C60605F
:10595800A068A568FAF7B4FD00221A4BFAF750FFC1
:1059680006460F462846FAF7ABFD32463B46FAF79D
:1059780069FCFBF7DDF8A060FEF79EFEFAF7B0FDC4
:105988000022104BFAF73CFF06460F46A068FAF7CC
:1059980097FD32463B46FAF757FCFBF7C9F8A0607B
:1059A800A068FAF78DFD04A3D3E90023FAF7FEFDFA
:1059B800FBF7DEF82060F8BD6C787AA52C439C3F95
:1059C800A40400200000244008B5FEF767FEA0F2FA
:1059D8006C7000B208BD00BF08B5FEF7E3FDA0F289
:1059E8006C7000B208BD00BF10B54FF080435C6A10
:1059F800A4B2FFF7C5FE40F6B8339C4203D9002293
:105A0800104B1A701AE00F4B1B78052B16D8002183
:105A18000D4A1160B4F5FA6F06D8B4F57A7F06D34B
:105A2800A4F57A74A4B203E04FF47A7400E0002479
:105A3800064A22F813400133024A1370FFF772FE38
:105A480010BD00BF580000205C0000204800002066
:105A580010B504460268064B9A4201D1FEF73AFE99
:105A68002268044B9A4201D1FEF7AAFD10BD00BF7F
:105A780000240140003C014008B5FFF721FAFEF779
:105A8800D7FEFEE700B583B00E4BDA6942F4006238
:105A9800DA61DB6903F400630193019B0A480B4B4D
:105AA80003600123436040F6FF738360FEF7C2FC86
:105AB80008B1FFF7E1FF0448FEF7F0FC03B05DF81A
:105AC80004FB00BF00100240900500200030004099
