:020000040800F2
:1000000000C000204546000811140008191400081B
:1000100025140008311400083D14000800000000F9
:10002000000000000000000000000000491400086B
:100030005114000800000000551400085D14000869
:100040008D4600088D4600088D4600088D46000844
:100050008D4600088D4600088D4600088D46000834
:100060008D4600088D4600088D460008B915000829
:100070008D4600088D460008891400089914000870
:10008000A9140008B91400088D4600088D46000820
:100090008D4600088D4600088D4600081915000899
:1000A0008D4600088D4600088D4600085115000851
:1000B0008D460008D91500088D460008691400080F
:1000C000791400088D460008C91400088D46000800
:1000D0008D4600088D4600088D4600088D460008B4
:1000E000D91400088D4600088D4600088D4600088A
:1000F0008D4600088D460008851500088D460008CD
:100100008D4600088D4600088D4600088D46000883
:100110008D4600088D4600088D4600088D46000873
:100120008D4600088D4600088D460008C915000858
:1001300000000000000000000000000000000000BF
:1001400000000000000000000000000000000000AF
:10015000000000000000000000000000000000009F
:10016000000000000000000000000000000000008F
:10017000000000000000000000000000000000007F
:10018000000000000000000000000000000000006F
:10019000000000000000000000000000000000005F
:1001A000000000000000000000000000000000004F
:1001B000000000000000000000000000000000003F
:1001C000000000000000000000000000000000002F
:1001D000000000000000000000000000000000001F
:0401E0005FF8E0F1F3
:1001E40010B5054C237833B9044B13B10448AFF36D
:1001F40000800123237010BD0400002000000000D3
:10020400DC460008084B10B51BB108490848AFF399
:1002140000800848036803B910BD074B002BFBD0CE
:10022400BDE81040184700BF00000000080000208F
:10023400DC46000804000020000000004FF0FF0C22
:100244001CEAD0521EBF1CEAD15392EA0C0F93EA67
:100254000C0F6FD01A4480EA010C400218BF5FEA09
:1002640041211ED04FF0006343EA501043EA51117C
:10027400A0FB01310CF00040B1F5000F3EBF490076
:1002840041EAD3715B0040EA010062F17F02FD2A7A
:100294001DD8B3F1004F40EBC25008BF20F001005D
:1002A400704790F0000F0CF0004C08BF49024CEA74
:1002B400502040EA51207F3AC2BFD2F1FF0340EA06
:1002C400C250704740F400004FF00003013A5DDC77
:1002D40012F1190FDCBF00F000407047C2F10002B8
:1002E400410021FA02F1C2F1200200FA02FC5FEAA5
:1002F400310040F1000053EA4C0308BF20EADC70EF
:10030400704792F0000F00F0004C02BF400010F460
:10031400000F013AF9D040EA0C0093F0000F01F00D
:10032400004C02BF490011F4000F013BF9D041EA2F
:100334000C018FE70CEAD15392EA0C0F18BF93EA31
:100344000C0F0AD030F0004C18BF31F0004CD8D15B
:1003540080EA010000F00040704790F0000F17BFE2
:1003640090F0004F084691F0000F91F0004F14D028
:1003740092EA0C0F01D142020FD193EA0C0F03D180
:100384004B0218BF084608D180EA010000F0004083
:1003940040F0FE4040F40000704740F0FE4040F45E
:1003A400400070474FF0FF0C1CEAD0521EBF1CEAFD
:1003B400D15392EA0C0F93EA0C0F69D0A2EB03021B
:1003C40080EA010C49024FEA402037D04FF08053B5
:1003D40043EA111143EA10130CF000408B4238BF7A
:1003E4005B0042F17D024FF4000C8B4224BF5B1A88
:1003F40040EA0C00B3EB510F24BFA3EB510340EAD6
:100404005C00B3EB910F24BFA3EB910340EA9C0083
:10041400B3EBD10F24BFA3EBD10340EADC001B01F3
:1004240018BF5FEA1C1CE0D1FD2A3FF650AF8B4297
:1004340040EBC25008BF20F0010070470CF0004CA4
:100444004CEA50207F32C2BFD2F1FF0340EAC250CF
:10045400704740F400004FF00003013A37E792F090
:10046400000F00F0004C02BF400010F4000F013AEE
:10047400F9D040EA0C0093F0000F01F0004C02BFE9
:10048400490011F4000F013BF9D041EA0C0195E752
:100494000CEAD15392EA0C0F08D142027FF47DAFEB
:1004A40093EA0C0F7FF470AF084676E793EA0C0FDB
:1004B40004D14B023FF44CAF08466EE730F0004CD9
:1004C40018BF31F0004CCAD130F000427FF45CAF69
:1004D40031F000437FF43CAF5FE700BF4FEA4002D6
:1004E400B2F1FE4F0FD34FF09E03B3EB12620DD95E
:1004F4004FEA002343F0004310F0004F23FA02F0C8
:1005040018BF404270474FF00000704712F1610F6E
:1005140001D1420205D110F0004008BF6FF0004045
:1005240070474FF00000704708B5436A9A6A12F0AA
:10053400500F1CD19A6A42F400729A621A68926847
:1005440002F46022B2F5602F0DD1DA685AB99A6AC2
:1005540022F480729A629A6A12F4805F03D19A6AD2
:1005640042F001029A62184603F03EFE08BD1B6A7F
:100574001B6B984708BD00BF704700BF08B5406AB1
:10058400FFF7FAFF08BD00BF704700BF08B5406A17
:10059400836A43F040038362C36A43F00403C36283
:1005A400FFF7F2FF08BD00BFF0B482B0002301934F
:1005B40090F82430012B00F0C780012380F8243008
:1005C4004B68062B1BD80668756B4FF4787292FA49
:1005D400A2F4B4FA84F4013B03FB04F41F2707FAE2
:1005E40004F425EA04040D6892FAA2F2B2FA82F243
:1005F40003FB02F205FA02F22243726337E00C2B8A
:100604001AD80668376B4FF4787292FAA2F5B5FAE5
:1006140085F5073B03FB05F51F2404FA05F527EAD6
:1006240005050C6892FAA2F2B2FA82F203FB02F315
:100634009C402C4334631AE00668F46A4FF47872E1
:1006440092FAA2F5B5FA85F50D3B03FB05F51F27D4
:1006540007FA05F524EA05050C6892FAA2F2B2FA43
:1006640082F203FB02F304FA03F32B43F3620D68F3
:10067400092D1BD90668F768382292FAA2F4B4FA55
:1006840084F4A5F10A0303FB04F4072505FA04F432
:1006940027EA04048D6892FAA2F2B2FA82F203FB0A
:1006A40002F305FA03F22243F26018E007683E6998
:1006B400382292FAA2F4B4FA84F405FB04F4072372
:1006C40003FA04F426EA04048E6892FAA2F2B2FA57
:1006D40082F205FB02F306FA03F323433B610B6842
:1006E400103B012B26D80368194A93421CD19A68FF
:1006F40012F4000F20D19A6842F400029A600B6849
:10070400102B1BD1134B1B68134AA2FB03239B0C16
:1007140003EB83035A00019202E0019B013B019326
:10072400019B002BF9D10AE0836A43F02003836222
:10073400012304E0002302E0002300E00023002260
:1007440080F82420184600E0022002B0F0BC704774
:10075400002401400000002083DE1B4330B583B039
:100764000023019303689A6812F0010F2FD19A684D
:1007740042F001029A60174B1B68174AA2FB03233D
:100784009B0C019302E0019B013B0193019B002B15
:10079400F9D1044602F07CF9054611E002F078F93B
:1007A400401B02280CD9A36A43F01003A362E36A36
:1007B40043F00103E362002384F82430012007E0BE
:1007C40023689B6813F0010FE8D0002000E00020AC
:1007D40003B030BD0000002083DE1B4390F82430BA
:1007E400012B71D010B50446012380F82430FFF7A3
:1007F400B5FF0346002863D1A26A22F4407222F0B6
:10080400010242F48072A262226830498A4205D110
:10081400A1F58061496811F4702F0ED1A16A21F409
:100824008011A162516811F4806F1CD0A16A21F477
:10083400405141F48051A16215E0A16A41F4801154
:10084400A16223498A4203D001F580618A420AD118
:100854001F49496811F4806F05D0A16A21F4405101
:1008640041F48051A162A16A11F4805F04D0E16A6D
:1008740021F00601E16201E00021E162002184F837
:1008840024106FF0020111602268916801F4602164
:10089400B1F5602F0ED10D498A4205D1A1F58061D1
:1008A400496811F4702F05D1916841F4A001916059
:1008B400184610BD916841F480119160184610BD2E
:1008C400002284F8242010BD022070470028014033
:1008D40000240140F8B504684A4DAC4203D005F544
:1008E4008065AC4205D1474B5B6813F4702F40F030
:1008F400858090F82440012C00F0828017460E4633
:100904000446012380F82430FFF728FF0546002819
:1009140070D1A36A23F4706323F0010343F480735A
:10092400A3622268384B9A4205D1A3F580635B68C1
:1009340013F4702F0ED1A36A23F48013A3625368B7
:1009440013F4806F1CD0A36A23F4405343F4805300
:10095400A36215E0A36A43F48013A362294B9A426D
:1009640003D003F580639A420AD1264B5B6813F4E3
:10097400806F05D0A36A23F4405343F48053A362E9
:10098400A36A13F4805F04D0E36A23F00603E362EE
:1009940001E00023E362002384F82430236A1B4A25
:1009A4009A62236A1A4ADA62236A1A4A1A63236821
:1009B4006FF002021A602268936843F480739360B4
:1009C40021683B4632464C31206A01F0AFFA226876
:1009D400936803F46023B3F5602F05D1936843F45F
:1009E400A00393602846F8BD936843F48013936092
:1009F4002846F8BD002384F82430F8BD0120F8BD52
:100A04000220F8BD00240140002801402D05000803
:100A1400810500089105000838B503689A6812F04A
:100A2400010F1ED004469A6822F001029A6002F077
:100A34002FF805460EE002F02BF8401B022809D9D6
:100A4400A36A43F01003A362E36A43F00103E36281
:100A5400012038BD23689B6813F0010FEBD10020FF
:100A640038BD002038BD00BF002800F09D8070B55F
:100A74000446836A23B9C36280F8243003F0FAFC85
:100A84002046FFF7C9FFA36A13F0100F40F08680D9
:100A9400002840F08380A36A23F4885323F00203E0
:100AA40043F00203A36263682168404A914206D17D
:100AB400E269B2F5402F03D14FF4002200E0E2696D
:100AC4001A43E568022393FAA3F3B3FA83F305FA0E
:100AD40003F31343A268B2F5807F04D0012A05D141
:100AE4004FF4807603E04FF4807600E000266269DC
:100AF400012A15D165B9A269013A4FF4604595FA06
:100B0400A5F5B5FA85F5AA4042F40062164307E05C
:100B1400A26A42F02002A262E26A42F00102E262A8
:100B24004A6822F4694232434A6021688D68204A47
:100B34002A401A438A60A268B2F5807F01D0012A54
:100B44000AD12269013A4FF4700191FAA1F1B1FA84
:100B540081F102FA01F100E000212568EA6A22F439
:100B640070020A43EA6222689168124A0A40934278
:100B740008D10023E362A36A23F0030343F00103D3
:100B8400A36270BDA36A23F0120343F01003A362AF
:100B9400E36A43F00103E362012070BDA36A43F0FA
:100BA4001003A362012070BD01207047003C014086
:100BB400FDF7E1FFFE0E1FFF90F83830012B1CD02B
:100BC40030B4012580F83850022380F839300468A5
:100BD4000A684B681A438B681A43CB681A430B693B
:100BE4001A434B691A438B691343636480F8395081
:100BF400002380F83830184601E00220704730BCEA
:100C0400704700BF074AD36823F4E0631B041B0C3E
:100C1400000200F4E060184340F0BF6040F400308C
:100C2400D060704700ED00E030B4164BDB68C3F3CE
:100C34000223C3F10704042C28BF04241D1D062D20
:100C440001D9DD1E00E00025012303FA04F4013C70
:100C54002140A940AB40013B1A400A43002806DA70
:100C640000F00F001201D2B2074B1A5407E0120130
:100C7400D2B200F1604000F5614080F8002330BC3E
:100C8400704700BF00ED00E014ED00E0420900F001
:100C94001F00012303FA00F0014B43F822007047C0
:100CA40000E100E0430900F01F00012202FA00F015
:100CB4002033024A42F82300704700BF00E100E0FD
:100CC4000138B0F1807F0AD2064B5860F021064A01
:100CD40082F823100020986007221A6070470120D0
:100CE400704700BF10E000E000ED00E0042805D1EB
:100CF400054A136843F0040313607047024A1368FB
:100D040023F004031360704710E000E0704700BF55
:100D140008B5FFF7FBFF08BDF0B583B000263446E5
:100D2400DFE00122A2400B6813409A4240F0D880D1
:100D34004D68122D2DD00BD8022D27D003D85DB3CA
:100D4400012D1ED035E0032D30D0112D1BD030E005
:100D5400664FBD4220D008D8A7F58017BD421BD0EE
:100D640007F58037BD4224D116E0614FBD4213D050
:100D740007F58037BD420FD0A7F58017BD4218D1C3
:100D84000AE0CE6815E0CE68043612E0CE68083674
:100D94000FE0CE680C360CE08D684DB1012D02D108
:100DA4000261082605E04261082602E0002600E010
:100DB4000426FF2B01D8864601E000F1040EFF2B28
:100DC40001D8A20002E0A4F108029200DEF800704B
:100DD4000F25954027EA050506FA02F22A43CEF8C4
:100DE40000204A6812F0805F7AD0424A956945F043
:100DF40001059561926902F001020192019AA70826
:100E0400BD1C3D4A52F825E004F0030292000F2570
:100E140095402EEA050E394DA84215D005F580659A
:100E2400A84213D005F58065A84211D005F5806568
:100E3400A8420FD005F58065A8420DD005F5806560
:100E4400A8420BD105250AE0002508E0012506E0AB
:100E5400022504E0032502E0042500E0062505FA46
:100E640002F24EEA02020237234D45F827204A686F
:100E740012F4803F05D005F580652A681A432A607C
:100E840004E01F4D2A6822EA03022A604A6812F429
:100E9400003F04D01A4D6A681A436A6004E0184D92
:100EA4006A6822EA03026A604A6812F4801F04D066
:100EB400134DAA681A43AA6004E0114DAA6822EAF5
:100EC4000302AA604A6812F4001F04D00C4DEA68B9
:100ED4001343EB6004E00A4DEA6822EA0303EB6083
:100EE40001340F2C7FF61DAF03B0F0BD00002110BC
:100EF40000003110001002400000014000080140D1
:100F0400000401400AB1016170470904016170479E
:100F14000F4B1A6842F001021A6059680D4A0A40E0
:100F24005A601A6822F0847222F480321A601A68B5
:100F340022F480221A605A6822F4FE025A604FF4A6
:100F44001F029A604FF00062034B9A60704700BF23
:100F5400001002400000FFF800ED00E070B4036AE6
:100F640023F001030362036A4668826922F0730274
:100F74000C6842EA040523F002028B6813430F4C09
:100F8400A04202D00E4A904205D123F00803CA6859
:100F9400134323F00403094CA04202D0084A9042B0
:100FA40005D126F440764A6932438E691643466079
:100FB40085614A684263036270BC7047002C01403B
:100FC4000034014030B4036A23F480730362036A7B
:100FD4004568C26922F073020C68224323F400734B
:100FE4008C6843EA0423124CA04203D004F5006445
:100FF400A04206D123F40063CC6843EA042323F41B
:1010040080630B4CA04203D004F50064A04207D1D6
:1010140025F440554C6945EA04158C6945EA0415E4
:101024004560C2614A68C263036230BC704700BF56
:10103400002C014030B4036A23F480530362036A32
:101044004468C26922F4E6420D6842EA052223F4A8
:1010540000538D6843EA0533094DA84203D005F5D2
:101064000065A84204D124F480444D6944EA8514FF
:101074004460C2614A680264036230BC704700BFC6
:10108400002C0140704700BF022380F83930026809
:10109400136843F001031360012380F83930002002
:1010A400704700BF022380F839300368196A41F29F
:1010B4001112114208D1196A40F24442114203D17B
:1010C4001A6822F001021A60012380F839300020E6
:1010D400704700BF704700BF0368224A904212D095
:1010E40002F5006290420ED0B0F1804F0BD0A2F511
:1010F4009832904207D002F58062904203D002F504
:101104008062904203D123F070034A681343154A66
:10111400904212D002F5006290420ED0B0F1804F9E
:101124000BD0A2F59832904207D002F5806290422B
:1011340003D002F58062904203D123F44073CA685D
:10114400134303608B68C3620B688362054B984248
:1011540003D003F50063984201D10B6903630123B3
:1011640043617047002C0140B8B110B5044690F8B3
:10117400393013F0FF0F04D1002380F83830FFF723
:1011840081FF022384F83930211D2068FFF7A4FF72
:10119400012384F83930002010BD0120704700BFBE
:1011A400B8B110B5044690F8393013F0FF0F04D1EC
:1011B400002380F83830FFF78DFF022384F839309C
:1011C400211D2068FFF788FF012384F839300020AF
:1011D40010BD0120704700BF30B4036A23F0100330
:1011E4000362036A4468826922F4E6420D6842EAB3
:1011F400052223F020038D6843EA0513114DA8420C
:1012040003D005F50065A84206D123F08003CD681C
:1012140043EA051323F040030A4DA84203D005F521
:101224000065A84207D124F440644D6944EA85046A
:101234008D6944EA8504446082614A68826303627A
:1012440030BC7047002C014038B590F83830012B81
:1012540066D00D460446012380F83830022380F816
:1012640039300C2A55D8DFE802F0075454541A5484
:1012740054542E54545441000068FFF76FFE226802
:10128400936943F0080393612268936923F004038C
:101294009361226891692B690B43936139E000687B
:1012A400FFF79AFF2268936943F40063936122680D
:1012B400936923F48063936122689369296943EAFB
:1012C4000123936125E00068FFF77CFE2268D3695F
:1012D40043F00803D3612268D36923F00403D36184
:1012E4002268D1692B690B43D36112E00068FFF7D0
:1012F400A1FE2268D36943F40063D3612268D369F1
:1013040023F48063D3612268D369296943EA012302
:10131400D361012384F83930002084F8380038BDC3
:10132400022038BD10B4012303FA01F4036A23EA4E
:1013340004030362036A8A401A43026210BC7047C2
:1013440010B5044601220068FFF7ECFF23680C4A3D
:10135400934205D002F50062934203D1012202E0D8
:10136400012200E000221AB15A6C42F400425A648D
:101374002268136843F001031360002010BD00BF0E
:10138400002C014010B504460C291FD8DFE801F0F9
:10139400071E1E1E0D1E1E1E131E1E1E1900026891
:1013A400D36843F00203D36010E00268D36843F0CB
:1013B4000403D3600AE00268D36843F00803D360EF
:1013C40004E00268D36843F01003D360012220686C
:1013D400FFF7A8FF23680C4A934205D002F5006288
:1013E400934203D1012202E0012200E000221AB15B
:1013F4005A6C42F400425A642268136843F00103B1
:101404001360002010BD00BF002C014000BF00BFCE
:1014140000BFFBE708B502F0F1FA01F0FFFFFEE7B9
:1014240008B502F0EBFA01F0F9FFFEE708B502F0A7
:10143400E5FA01F0F3FFFEE708B502F0DFFA01F088
:10144400EDFFFEE700BF00BF00BFFBE7704700BF32
:1014540000BF00BF00BFFBE708B501F011FBFFF7B9
:1014640057FC08BD08B5024801F084FC08BD00BF64
:101474009403002008B5024801F004FD08BD00BF34
:101484009403002008B5024800F07CFD08BD00BFAD
:101494000804002008B5024800F074FD08BD00BF30
:1014A400D003002008B5024800F06CFD08BD00BF61
:1014B400A802002008B5024800F064FD08BD00BF82
:1014C400E002002008B5024801F0DCFC08BD00BFC2
:1014D4009403002008B50E4B5B6913F4806F09D1A7
:1014E4000B4B5B6913F4006F04D1094B5B6913F474
:1014F400805F0BD002F098FC054B4FF480625A6178
:101504004FF400625A614FF480525A6108BD00BF23
:101514000004014008B50C4B5B6913F0200F09D19E
:10152400094B5B6913F0400F04D1074B5B6913F05F
:10153400800F08D002F070F9034B20225A61402238
:101544005A6180225A6108BD0004014008B50A4B63
:101554001B686FF002021A616FF004021A616FF0E7
:1015640008021A616FF010021A6102F065FC034868
:10157400FFF734F908BD00BFF001002098000020F7
:1015840008B50A4B1B686FF002021A616FF004027F
:101594001A616FF008021A616FF010021A6102F00A
:1015A40043F90348FFF71AF908BD00BF940100206E
:1015B4006800002008B5024800F0E4FC08BD00BF44
:1015C400D800002008B5024800F0DCFC08BD00BFCC
:1015D40030000020024B1B686FF001021A61704753
:1015E4002C01002030B583B00446036813F0010FCA
:1015F40000F09680B24B5B6803F00C03042B0AD016
:10160400AF4B5B6803F00C03082B1BD1AC4B5B683E
:1016140013F4803F16D04FF4003393FAA3F3A84B8E
:101624001A684FF4003393FAA3F3B3FA83F303F085
:101634001F0322FA03F313F0010F71D06368002B28
:101644006ED1A0E26368B3F5803F05D19C4A13686C
:1016540043F48033136026E063B903F1804303F558
:1016640004331A6822F480321A601A6822F4802241
:101674001A6018E0B3F5A02F0CD103F18043A3F551
:101684003C331A6842F480221A601A6842F48032A9
:101694001A6008E08A4B1A6822F480321A601A68C9
:1016A40022F480221A606368EBB101F0F1F9054677
:1016B40005E001F0EDF9401B642800F266824FF466
:1016C400003393FAA3F37E4B1A684FF4003393FA72
:1016D400A3F3B3FA83F303F01F0322FA03F313F023
:1016E400010FE6D01CE001F0D3F9054605E001F056
:1016F400CFF9401B642800F24A824FF4003393FA76
:10170400A3F36F4B1A684FF4003393FAA3F3B3FABD
:1017140083F303F01F0322FA03F313F0010FE6D15E
:10172400236813F0020F00F09080654B5B6813F0A0
:101734000C0F0AD0624B5B6803F00C03082B27D113
:101744005F4B5B6813F4803F22D1022393FAA3F327
:101754005B4B1A68022393FAA3F3B3FA83F303F0FF
:101764001F0322FA03F313F0010F03D02369012BA3
:1017740040F00F825248036823F0F8016369F822AD
:1017840092FAA2F2B2FA82F293400B4303605CE055
:1017940023699BB3012292FAA2F3B3FA83F39B0069
:1017A40003F1844303F584031A6001F071F90546DB
:1017B40005E001F06DF9401B022800F2EC810223E0
:1017C40093FAA3F33E4B1A68022393FAA3F3B3FAF2
:1017D40083F303F01F0322FA03F313F0010FE8D09D
:1017E4003748036823F0F8016369F82292FAA2F2F9
:1017F400B2FA82F293400B43036026E0012393FA8A
:10180400A3F3B3FA83F39B0003F1844303F5840346
:1018140000221A6001F03CF9054605E001F038F9B0
:10182400401B022800F2B981022393FAA3F3244B4C
:101834001A68022393FAA3F3B3FA83F303F01F03A2
:1018440022FA03F313F0010FE8D1236813F0080F11
:1018540052D0A3693BB3012292FAA2F3B3FA83F301
:10186400184941F8232001F013F9054605E001F079
:101874000FF9401B022800F29281022393FAA3F28B
:1018840093FAA3F20E4A526A93FAA3F3B3FA83F3D8
:1018940003F01F0322FA03F313F0010FE7D0012032
:1018A40001F0FCF828E0012393FAA3F3B3FA83F3DD
:1018B4000021044A42F8231001F0EAF8054609E041
:1018C400001002408004424201F0E2F8401B02286A
:1018D40000F26781022393FAA3F293FAA3F2BA4ABD
:1018E400526A93FAA3F3B3FA83F303F01F0322FAC1
:1018F40003F313F0010FE7D1236813F0040F00F092
:10190400A180B14BDA6942F08052DA61DB6903F0FD
:1019140080530193019BAD4A136843F480731360B1
:1019240001F0B6F8054605E001F0B2F8401B642862
:1019340000F23981A54B1B6813F4807FF4D0E3686F
:10194400012B05D1A04A136A43F00103136222E07C
:1019540063B903F1804303F504331A6A22F00102E8
:101964001A621A6A22F004021A6214E0052B09D1E1
:10197400954B1A6A42F004021A621A6A42F0010292
:101984001A6208E0904B1A6A22F001021A621A6A7B
:1019940022F004021A62E36853B301F079F80546B1
:1019A40007E001F075F8401B41F28833984200F2D9
:1019B400FC80022393FAA3F293FAA3F3B3FA83F31A
:1019C4005B0943F00203DBB2022B02D17E4B1A6A9D
:1019D40001E07D4B5A6A022393FAA3F3B3FA83F32B
:1019E40003F01F0322FA03F313F0010FD9D029E007
:1019F40001F04EF8054607E001F04AF8401B41F2B9
:101A04008833984200F2D380022393FAA3F293FA24
:101A1400A3F3B3FA83F35B0943F00203DBB2022BB3
:101A240002D1694B1A6A01E0674B5A6A022393FA9E
:101A3400A3F3B3FA83F303F01F0322FA03F313F0BF
:101A4400010FD9D1E369002B00F0B3805E4A5268DC
:101A540002F00C02082A00F0AE80022B68D14FF08D
:101A6400807393FAA3F3B3FA83F39B0003F18443E3
:101A740003F5840300221A6001F00AF8054605E024
:101A840001F006F8401B022800F297804FF0007323
:101A940093FAA3F34C4B1A684FF0007393FAA3F331
:101AA400B3FA83F303F01F0322FA03F313F0010FD5
:101AB400E6D1236AB3F5803F06D143494B6823F44A
:101AC4000032A36813434B603F48436823F4741106
:101AD400236A626A13430B4343604FF0807393FAA3
:101AE400A3F3B3FA83F39B0003F1844303F5840364
:101AF40001221A6000F0CCFF044604E000F0C8FFA5
:101B0400001B02285BD84FF0007393FAA3F32E4B0B
:101B14001A684FF0007393FAA3F3B3FA83F303F054
:101B24001F0322FA03F313F0010FE7D0002049E06A
:101B34004FF0807393FAA3F3B3FA83F39B0003F19A
:101B4400844303F5840300221A6000F0A1FF0446D5
:101B540004E000F09DFF001B022832D84FF0007310
:101B640093FAA3F3184B1A684FF0007393FAA3F394
:101B7400B3FA83F303F01F0322FA03F313F0010F04
:101B8400E7D100201EE001201CE003201AE003201E
:101B940018E0012016E0032014E0032012E00320E3
:101BA40010E003200EE003200CE003200AE00320F1
:101BB40008E0002006E0012004E0032002E0032006
:101BC40000E0032003B030BD00100240007000406C
:101BD40030B486B01F4D02AC28686968AA68EB6807
:101BE4000FC42B8AADF804301B4B5B6803F00C0266
:101BF400082A2AD103F470114FF4701292FAA2F257
:101C0400B2FA82F221FA02F206A90A4412F8102C5E
:101C140013F4803F15D0104B5B6803F400314FF48C
:101C2400003393FAA3F3B3FA83F321FA03F306A977
:101C34000B4413F8140C094BB3FBF0F000FB02F057
:101C440004E0074800FB02F000E0044806B030BCA2
:101C5400704700BFF44600080010024000127A00EA
:101C640000093D0070B5744B1B6803F007038B42F9
:101C74000BD2714A136823F007030B4313601368F4
:101C840003F00703994240F0C680036813F0020F83
:101C940006D06A4C636823F0F002836813436360E0
:101CA4000D460446036813F0010F75D04268012AFB
:101CB40013D14FF4003393FAA3F3604B19684FF434
:101CC400003393FAA3F3B3FA83F303F01F0321FA67
:101CD40003F313F0010F27D19FE0022A13D14FF031
:101CE400007393FAA3F3554B19684FF0007393FAFA
:101CF400A3F3B3FA83F303F01F0321FA03F313F0FE
:101D0400010F11D18BE0022393FAA3F34B4B196813
:101D1400022393FAA3F3B3FA83F303F01F0321FA24
:101D240003F313F0010F7CD044494B6823F0030301
:101D340013434B6000F0ACFE06466368012B0ED1E2
:101D440006E000F0A5FE801B41F2883398426AD871
:101D54003A4B5B6803F00C03042BF2D11CE0022B1A
:101D640015D106E000F094FE801B41F288339842BE
:101D74005BD8324B5B6803F00C03082BF2D10BE009
:101D840000F086FE801B41F2883398424FD82B4BDB
:101D94005B6813F00C0FF3D1274B1B6803F00703A8
:101DA4009D420AD2244A136823F007032B4313608D
:101DB400136803F007039D423BD1236813F0040F1B
:101DC40006D01E494B6823F4E062E36813434B607A
:101DD400236813F0080F07D0184A536823F460539C
:101DE400216943EAC1035360FFF7F2FE134B5B68BA
:101DF40003F0F002F02393FAA3F3B3FA83F322FA85
:101E040003F30F4AD35CD8400E4B1860002000F057
:101E140011FE002070BD012070BD012070BD0120A5
:101E240070BD012070BD032070BD032070BD032070
:101E340070BD012070BD00BF0020024000100240B0
:101E44000847000800000020014B1868704700BFD5
:101E54000000002008B5FFF7F7FF084B5B6803F4A8
:101E6400E0624FF4E06393FAA3F3B3FA83F322FA44
:101E740003F3034AD35CD84008BD00BF00100240FE
:101E84001847000808B5FFF7DFFF084B5B6803F449
:101E940060524FF4605393FAA3F3B3FA83F322FA34
:101EA40003F3034AD35CD84008BD00BF00100240CE
:101EB4001847000810B4046863604368102B04D109
:101EC40003689A600368D96003E003689960036853
:101ED400DA6010BC704700BF20B310B4034690F81A
:101EE40021200AB980F82020022283F821201C68CE
:101EF400226822F47F5121F0300158689A68104317
:101F0400DA6810431A6910435A6910439A691043F6
:101F1400DA6902430A43226000205863012283F8ED
:101F2400212001E00120704710BC704738B590F8BB
:101F34002040012C24D00446012084F820000220F3
:101F440084F821002568286820F0010028602046D4
:101F5400FFF7B0FF2268136843F00203136022689E
:101F6400136843F0040313602268136843F0080302
:101F740013602268136843F001031360002038BD26
:101F8400022038BD10B504460368B54A934248D9C7
:101F940002F560721268B3498B4221D014318B422E
:101FA40020D014318B421FD014318B421FD01431F6
:101FB4008B421FD014318B421FD014318B421FD05F
:101FC40001F562718B421ED014318B421DD0143145
:101FD4008B421CD014318B421CD14FF400411BE0C6
:101FE400082119E0802117E04FF4006114E04FF458
:101FF400004111E04FF400210EE04FF400010BE02A
:102004004FF0006108E0082106E0802104E04FF46D
:10201400006101E04FF40021114214BF01220022AB
:1020240046E0914A12688F498B4221D014318B4289
:1020340020D014318B421FD014318B421FD0143165
:102044008B421FD014318B421FD014318B421FD0CE
:1020540001F562718B421ED014318B421DD01431B4
:102064008B421CD014318B421CD14FF400411BE035
:10207400082119E0802117E04FF4006114E04FF4C7
:10208400004111E04FF400210EE04FF400010BE099
:102094004FF0006108E0082106E0802104E04FF4DD
:1020A400006101E04FF40021114214BF012200221B
:1020B400002A00F0A2801A6812F0080F00F09D8038
:1020C4001A6822F008021A602368654A934243D9C9
:1020D400783A934221D01432934220D0143293425E
:1020E4001FD0143293421FD0143293421FD01432A3
:1020F40093421FD0143293421FD002F5627293426E
:102104001ED0143293421DD0143293421CD0143288
:1021140093421CD14FF400421BE0082219E08022B4
:1021240017E04FF4006214E04FF4004211E04FF462
:1021340000220EE04FF400020BE04FF0006208E0D2
:10214400082206E0802204E04FF4006201E04FF42C
:102154000022464B5A6042E0424A934221D0143254
:10216400934220D0143293421FD0143293421FD092
:10217400143293421FD0143293421FD0143293422C
:102184001FD002F5627293421ED0143293421DD0C6
:10219400143293421CD0143293421CD14FF40042A7
:1021A4001BE0082219E0802217E04FF4006214E0DB
:1021B4004FF4004211E04FF400220EE04FF400020D
:1021C4000BE04FF0006208E0082206E0802204E001
:1021D4004FF4006201E04FF40022234B5A60636B1A
:1021E40043F001036363042384F82130002384F85B
:1021F4002030236B0BB1204698472368184A93423A
:1022040050D902F56072126816498B4221D01431FC
:102214008B4220D014318B421FD014318B4227D0F3
:1022240014318B4227D014318B4227D014318B4286
:1022340027D001F562718B4226D014318B4225D010
:1022440014318B4224D014318B4224D14FF4804179
:1022540023E0042121E040211FE04FF480611CE0D1
:1022640080000240080002400000024000040240D6
:102274004FF4804111E04FF480210EE04FF48001CF
:102284000BE04FF0806108E0042106E0402104E007
:102294004FF4806101E04FF48021114214BF012208
:1022A400002246E0B44A1268B4498B4221D014316A
:1022B4008B4220D014318B421FD014318B421FD05B
:1022C40014318B421FD014318B421FD014318B42F6
:1022D4001FD001F562718B421ED014318B421DD088
:1022E40014318B421CD014318B421CD14FF48041E9
:1022F4001BE0042119E0402117E04FF4806114E051
:102304004FF4804111E04FF480210EE04FF480013E
:102314000BE04FF0806108E0042106E0402104E076
:102324004FF4806101E04FF48021114214BF012277
:102334000022002A00F09F801A6812F0040F00F0B7
:102344009A801A6812F0200F03D11A6822F004024E
:102354001A6023688A4A934243D9783A934221D037
:102364001432934220D0143293421FD01432934239
:102374001FD0143293421FD0143293421FD0143210
:1023840093421FD002F5627293421ED014329342DC
:102394001DD0143293421CD0143293421CD14FF4FA
:1023A40080421BE0042219E0402217E04FF48062CF
:1023B40014E04FF4804211E04FF480220EE04FF419
:1023C40080020BE04FF0806208E0042206E0402225
:1023D40004E04FF4806201E04FF48022694B5A60BC
:1023E40042E0664A934221D01432934220D0143200
:1023F40093421FD0143293421FD0143293421FD001
:10240400143293421FD0143293421FD002F56272E9
:1024140093421ED0143293421DD0143293421CD0E6
:10242400143293421CD14FF480421BE0042219E081
:10243400402217E04FF4806214E04FF4804211E030
:102444004FF480220EE04FF480020BE04FF08062E4
:1024540008E0042206E0402204E04FF4806201E038
:102464004FF48022444B5A60112384F82130E36AEC
:102474000BB1204698472368414A934248D902F554
:10248400607212683D498B4221D014318B4220D0B6
:1024940014318B421FD014318B421FD014318B4224
:1024A4001FD014318B421FD014318B421FD001F541
:1024B40062718B421ED014318B421DD014318B4279
:1024C4001CD014318B421CD14FF400511BE002216B
:1024D40019E0202117E04FF4007114E04FF400518B
:1024E40011E04FF400310EE04FF400110BE04FF017
:1024F400007108E0022106E0202104E04FF400719D
:1025040001E04FF40031114214BF012200224EE0D9
:10251400194A126819498B4221D014318B4220D0B8
:1025240014318B421FD014318B421FD014318B4293
:102534001FD014318B4227D014318B4227D001F5A0
:1025440062718B4226D014318B4225D014318B42D8
:1025540024D014318B4224D14FF4005123E00221C2
:1025640021E020211FE04FF400711CE04FF40051E2
:1025740019E04FF4003116E0000002400800024068
:1025840080000240000402404FF400110BE04FF0C1
:10259400007108E0022106E0202104E04FF40071FC
:1025A40001E04FF40031114214BF01220022002A3D
:1025B40000F0A4801A6812F0020F00F09F801A68DD
:1025C40012F0200F03D11A6822F002021A60236865
:1025D4004B4A934243D9783A934221D014329342DE
:1025E40020D0143293421FD0143293421FD014329D
:1025F40093421FD0143293421FD0143293421FD0FF
:1026040002F5627293421ED0143293421DD01432EA
:1026140093421CD0143293421CD14FF400521BE05D
:10262400022219E0202217E04FF4007214E04FF464
:10263400005211E04FF400320EE04FF400120BE0B0
:102644004FF0007208E0022206E0202204E04FF47A
:10265400007201E04FF400322A4B5A6042E02A4AE9
:10266400934221D01432934220D0143293421FD08B
:10267400143293421FD0143293421FD01432934227
:102684001FD0143293421FD002F5627293421ED0BF
:10269400143293421DD0143293421CD0143293420C
:1026A4001CD14FF400521BE0022219E0202217E053
:1026B4004FF4007214E04FF4005211E04FF4003272
:1026C4000EE04FF400120BE04FF0007208E002221B
:1026D40006E0202204E04FF4007201E04FF40032DF
:1026E4000A4B5A60636B6363012384F8213000232F
:1026F40084F82030A36A0BB12046984710BD00BF70
:102704008000024000040240080002400000024031
:102714002DE9F843814601680B6923F44052C368EC
:1027240013430B61816803691943436919430068C2
:10273400C26822F4B05323F00C030B43C360D9F8EE
:1027440000104B6923F44072D9F8183013434B61DD
:10275400D9F800505B4B9D4259D1FFF793FB00EB36
:10276400800000EB8000D9F80440A400B0FBF4F42E
:10277400554EA6FB043464092401FFF783FB00EBE8
:10278400800000EB8000D9F804309B00B0FBF3F725
:10279400FFF778FB00EB800000EB8000D9F80430F1
:1027A4009B00B0FBF3F3A6FB03235B094FF0640823
:1027B40008FB13731B013233A6FB03235B0903F0ED
:1027C400F0031C44FFF75EFB00EB800000EB80008D
:1027D400D9F804309B00B0FBF3F7FFF753FB00EB91
:1027E400800000EB8000D9F804309B00B0FBF3F3C9
:1027F400A6FB03235B0908FB13731B013233A6FBFF
:102804000323C3F343131C44AC60BDE8F883FFF710
:1028140021FB00EB800000EB8000D9F80440A40009
:10282400B0FBF4F4284EA6FB043464092401FFF73A
:1028340011FB00EB800000EB8000D9F804309B0012
:10284400B0FBF3F7FFF706FB00EB800000EB800022
:10285400D9F804309B00B0FBF3F3A6FB03235B0918
:102864004FF0640808FB13731B013233A6FB0323E8
:102874005B0903F0F0031C44FFF7ECFA00EB800063
:1028840000EB8000D9F804309B00B0FBF3F7FFF7AE
:10289400E1FA00EB800000EB8000D9F804309B00E3
:1028A400B0FBF3F3A6FB03235B0908FB13731B01C3
:1028B4003233A6FB0323C3F343131C44AC60BDE8CB
:1028C400F88300BF003801401F85EB5158B310B5A1
:1028D400044690F8393013F0FF0F04D1002380F838
:1028E400383001F03BFE022384F839302268D36883
:1028F40023F40053D3602046FFF70AFF22681369CC
:1029040023F4904313612268536923F02A0353612B
:102914002268D36843F40053D3600020E0630123AA
:1029240084F8393010BD0120704700BF10B590F80D
:102934003940E4B2012C01D0122C34D1002934D016
:10294400002A34D090F83830012B32D0012380F89B
:102954003830816282850023C36390F83930DBB25A
:10296400122B03D1322380F8393002E0222380F87D
:10297400393013460A460446416B0F488862616B3E
:102984000E48C862616B0E48086321680431606BAD
:10299400FFF7CCFA2268536943F0400353610020E7
:1029A40084F8380010BD022010BD012010BD0120A4
:1029B40010BD022010BD00BFC9290008092A000863
:1029C400192A000808B5436A0268126812F0200F39
:1029D40012D10022DA8519684A6922F040024A615C
:1029E40093F83920D2B2322A03D1122283F8392043
:1029F40002E0012283F83920184601F097FA08BD55
:102A0400704700BF08B5406AFFF7FAFF08BD00BF72
:102A1400704700BF08B5406A0023C385C3840123FF
:102A240080F83930C36B43F01003C363FFF7F0FF42
:102A340008BD00BF10B50446FFF706FA064BA3FB1A
:102A440000308009FEF73CF9002221464FF0FF30A8
:102A5400FEF7EAF8002010BDD34D621008B5074A0E
:102A6400136843F0100313600320FEF7CBF8002033
:102A7400FFF7E0FF01F0C0FC002008BD0020024089
:102A8400024A136801331360704700BF200000201E
:102A9400014B1868704700BF2000002010B582B0B9
:102AA4000190FFF7F5FF0446FFF7F2FF001B019BBF
:102AB4009842F9D302B010BD438D9BB22BB9026882
:102AC400536823F4806353600AE00268436A591C24
:102AD40041621B781361438D9BB2013B9BB24385DA
:102AE40000207047438D9BB253B10268436A591C5E
:102AF40041621B781361438D9BB2013B9BB24385BA
:102B040000207047438D9BB253B10268436A591C3D
:102B140041621B781361438D9BB2013B9BB2438599
:102B240000207047438D9BB253B1436A5A1C4262E2
:102B3400026812691A70438D9BB2013B9BB24385B4
:102B440000207047438D9BB253B1436A5A1C4262C2
:102B5400026812691A70438D9BB2013B9BB2438594
:102B64000020704782B003685A6901929B690193FF
:102B7400019B002002B07047704700BF08B5016890
:102B84004A6822F4E0624A6001684A6922F4806279
:102B94004A6101680A6822F480620A60202280F88F
:102BA4003520FFF7E9FF002008BD00BF704700BFD4
:102BB40000B583B001684A6822F4E0624A600168A3
:102BC4004A6901920A6842F001020A600192019A7C
:102BD40001680A6822F480620A60202280F83520A5
:102BE400FFF7E4FF002003B05DF804FB704700BF6B
:102BF40008B5438D9BB25BB10268436A591C4162BC
:102C04001B781361438D9BB2013B9BB2438519E052
:102C14000268536823F4E06353600268136843F462
:102C24000073136090F83630DBB2402B05D12023BB
:102C340080F83530FFF7DAFF04E0202380F83530E0
:102C440001F048FA002008BD704700BF08B5438D65
:102C54009BB2032B0BD9436A5A1C42620268126965
:102C64001A70438D9BB2013B9BB2438528E0023B23
:102C7400012B05D80268536823F4806353601FE076
:102C84000268536823F4E0635360436A5A1C426247
:102C9400026812691A70438D9BB2013B9BB2438553
:102CA40090F83630DBB2402B05D1202380F8353044
:102CB400FFF7CAFF04E0202380F8353001F016FA4C
:102CC400002008BD08B5438D9BB2032B10D10268C8
:102CD400136823F480631360436A5A1C42620268D7
:102CE40012691A70438D9BB2013B9BB243853FE04E
:102CF400438D9BB2022B30D10268536823F4407396
:102D040053600268136843F400731360436A5A1CE7
:102D14004262026812691A70438D9BB2013B9BB2F6
:102D24004385436A5A1C4262026812691A70438DD1
:102D34009BB2013B9BB2438590F83630DBB2402B0B
:102D440005D1202380F83530FFF77EFF10E02023E3
:102D540080F8353001F0CAF90AE0436A5A1C42622D
:102D6400026812691A70438D9BB2013B9BB2438582
:102D7400002008BD38B590F83630DBB2102B04D0F3
:102D840090F83630DBB2402B36D103689A6912F0E2
:102D9400040F18D05C695A6802F480615A6902F021
:102DA40004025B6803F4007314F0800F04D019B1BB
:102DB40012B9FFF781FE38BD002A62D0002B60D023
:102DC400FFF716FF38BD5C695A6802F480615A69DE
:102DD40002F004025B6803F4007314F0400F04D0A3
:102DE40019B112B9FFF732FF38BD002A49D0002BC0
:102DF40047D0FFF767FF38BD03685D695A6802F47E
:102E04000072596901F010019C6904F0040415F082
:102E1400020F03D012B1FFF7A5FE38BD19B112B1EC
:102E2400FFF7C6FE38BDB4B15C695A6802F480612C
:102E34005A6902F004025B6803F4007314F0800F13
:102E440004D019B112B9FFF74DFE38BDCAB1C3B1F0
:102E5400FFF758FE38BD5C695A6802F480615A690C
:102E640002F004025B6803F4007314F0400F04D012
:102E740019B112B9FFF756FE38BD12B10BB1FFF705
:102E840061FE38BD10B50446036859695A6811F4E7
:102E9400807F0FD002F4807262B1826B42F0010233
:102EA40082635A6922F480725A610268136843F497
:102EB40000431360236859695A6802F4807211F45C
:102EC400007F08D03AB1A26B42F00202A2635A69B1
:102ED40022F400725A6122685169536803F48073C2
:102EE40011F4806F1ED0EBB194F83630DBB2618DF3
:102EF40089B294F83500C0B2202B06D129B9212813
:102F040003D12046FFF73AFE0CE0A36B43F0040321
:102F1400A363136843F4007313602268536923F4B2
:102F240080635361236859695A6802F4807211F40A
:102F3400006F08D03AB1A26B42F00802A2635A694A
:102F440022F400625A61A36B53B1202384F8353014
:102F54002268136823F400631360204601F0D2F85A
:102F640010BD00BFF0B583B00446036813F0010F31
:102F74006FD0474BDA6942F08052DA61DB6903F0C3
:102F840080530193019B434A136843F48073136095
:102F9400FFF77EFD054604E0FFF77AFD401B642839
:102FA4006FD83C4B1B6813F4807FF5D0384B1B6AF9
:102FB40013F4407346D0626802F44072934241D0E5
:102FC4003348016A21F440764FF4803393FAA3F234
:102FD400B2FA82F2304D012745F8227093FAA3F336
:102FE400B3FA83F3002245F82320066211F0010F9F
:102FF40028D0FFF74DFD054606E0FFF749FD401BCD
:1030040041F2883398423ED8022393FAA3F293FA0A
:10301400A3F3B3FA83F35B0943F00203DBB2022B9D
:1030240002D11B4B1A6A01E0194B5A6A022393FA24
:10303400A3F3B3FA83F303F01F0322FA03F313F0A9
:10304400010FDAD012490B6A23F440726368134308
:103054000B62236813F0020F06D00D494B6823F46A
:103064004042A36813434B60236813F0100F0CD045
:1030740007494B6823F48002636913434B600020C3
:1030840004E0032002E0032000E0002003B0F0BDD0
:10309400001002400070004000044242704700BF2C
:1030A40068B310B504460368DA6812F0010F03D060
:1030B400DB6813F0020F24D1637B13F0FF0F04D1FC
:1030C400002323732046FFF7E9FF02236373236879
:1030D40045F255521A6021684B6823F00702636871
:1030E40013434B6021688B6823F47F6323F00F0341
:1030F400A26813438B6001236373002010BD012079
:103104007047012010BD00BF037B012B0FD00223A9
:10311400437303684CF6CC421A6003684AF6AA2249
:103124001A60012343730023037318467047022077
:10313400704700BF38B5037B012B20D00446012320
:10314400037302234373FFF7A3FC05460AE0FFF76A
:103154009FFC401BB0F57A7F04D9032060730023E1
:10316400237338BD2368DA6812F0020FEFD14AF6F0
:10317400AA221A60012363730020207338BD022041
:1031840038BD00BF10B584B01D4B5A6942F002022D
:103194005A615B6903F002030093009B002211460D
:1031A4003B20FDF741FD3B20FDF770FD1548164B14
:1031B400036000238360C36043614FF46022C261F3
:1031C400436001230361FDF74FFC08B101F020F8CF
:1031D4000A230193002303930123029301A90948BD
:1031E400FDF7E2F908B101F013F8064C2046FDF7AB
:1031F400F5FA012205492046FDF76CFB04B010BD29
:103204000010024068000020003C0140280000201B
:103214000122014B9A7170472800002010B584B038
:10322400234B5A6942F001025A615B6903F00103BE
:103234000093009B022201210B20FDF7F5FC0B20DB
:10324400FDF724FD1B481C4B03604FF4807383601F
:103254000023C36043614FF46022C26143600223D0
:103264000361FDF701FC08B100F0D2FF0B230193C9
:103274000123029301A90F48FDF796F908B100F064
:10328400C7FF0C2301930223029301A90948FDF708
:103294008BF908B100F0BCFF064C2046FDF79EFAFE
:1032A400022206492046FDF715FB04B010BD00BFFD
:1032B400001002409800002000240140D0000020AB
:1032C4000122014B9A717047D000002010B586B0DE
:1032D4000F4B9A6942F008029A619B6903F0080354
:1032E4000193019BE02302930A4B03930323059369
:1032F4000024049402A90848FDF70EFD2246214645
:103304001720FDF791FC1720FDF7C0FC06B010BD97
:103314000010024000003110000C01404FF4000284
:10332400014B1A61704700BF000801408022014B25
:103334001A617047000801404FF48032014B1A6152
:10334400704700BF000C01400122014B1A61704715
:10335400000C01404FF40032014B1A61704700BF6A
:10336400000C01400222014B1A617047000C01401D
:10337400034B1A68136A43F001031362704700BFDA
:1033840094010020044B1A68136A23F001031B0400
:103394001B0C1362704700BF94010020034B1A6892
:1033A400136A43F010031362704700BF94010020B6
:1033B400044B1A68136A23F010031B041B0C1362DA
:1033C400704700BF94010020034B1A68136A43F44A
:1033D40080731362704700BF94010020044B1A6885
:1033E400136A23F480731B041B0C1362704700BF21
:1033F40094010020064B1B6803FB00F0054BA3FB64
:1034040000308009044B1B6858639863D863704785
:10341400D0010020D34D62109401002010B500208B
:10342400FFF7E8FF104C0123A373FFF77FFFFFF7BB
:103434008BFFFFF797FFFFF7A5FFFFF7B9FFFFF734
:10344400CDFF002211461720FDF7EEFB1720FDF7F4
:1034540029FC064B20225A6140225A6180225A617B
:1034640000232371637110BDD001002000040140CA
:103474002DE9F04399B0644B9A6942F400529A6181
:103484009A6902F400520192019A604A1268D208C1
:103494005F49A1FB0212120A013A5E4F3A609A692F
:1034A40042F400529A619A6902F400520292029A1A
:1034B4009A6942F004029A619A6902F00402039242
:1034C400039A9A6942F008029A619A6902F0080222
:1034D4000492049A9A6942F010029A619B6903F07B
:1034E40010030593059BFFF721FFFFF72DFFFFF75F
:1034F40039FF012615964FF00308CDF85C80169627
:1035040018AC802344F8103D21464348FDF704FCE1
:103514001496DFF8149121464846FDF7FDFB022579
:10352400149521464846FDF7F7FB1595CDF85C80C8
:1035340016954FF4E073149321463848FDF7ECFBDD
:10354400374D384B2B6000246C603B68EB602C617A
:10355400AC606C612846FDF723FE0C940B940A942E
:1035640008944FF4806307934FF400630693282371
:10357400099306A92846FDF71FFB60230D931194B8
:103584000F944FF00808CDF84080129413940E94D1
:1035940022460DA92846FDF757FE0E9404220DA9D4
:1035A4002846FDF751FE0E9442460DA92846FDF724
:1035B4004BFE21462846FDF7C3FE04212846FDF7AD
:1035C400BFFE41462846FDF7BBFE0C212846FDF709
:1035D400D9FE2046FFF70EFFFFF7A8FEFFF7B4FE63
:1035E400FFF7C0FEFFF7CEFEFFF7E2FEFFF7F6FEA1
:1035F400BE73324621462E20FDF716FB2E20FDF722
:1036040045FB19B0BDE8F083001002400000002023
:1036140089B5F814D00100200008014000100140D1
:103624009401002000340140000C014008B5FFF76C
:103634001FFFFFF74BFE044B00221A715A71DA8008
:103644001A81FFF7EBFE08BDD001002010B53E4BF8
:103654009B6803F0E0033D4CA381FFF767FEFFF78F
:1036640073FEFFF77FFEFFF78DFEFFF7A1FEFFF766
:10367400B5FEA37B13F0FF0F65D1A37A13F0FF0F00
:1036840030D0A3899BB2602B16D004D8202B09D04C
:10369400402B0CD024E0A02B18D0C02B1BD0802BA7
:1036A4001ED10EE0FFF764FEFFF746FE10BDFFF7E4
:1036B40075FEFFF74FFE10BDFFF75AFEFFF74AFEF7
:1036C40010BDFFF72BFEFFF77FFE10BDFFF734FEA2
:1036D400FFF77AFE10BDFFF721FEFFF75FFE10BD76
:1036E40000BF10BD194B9B899BB2602B16D004D828
:1036F400202B09D0402B0CD024E0A02B18D0C02BB9
:103704001BD0802B1ED10EE0FFF708FEFFF746FE0C
:1037140010BDFFF711FEFFF757FE10BDFFF7FEFDCA
:10372400FFF752FE10BDFFF723FEFFF713FE10BD97
:10373400FFF734FEFFF70EFE10BDFFF719FEFFF78B
:10374400FBFD10BD00BF10BD000C0140D0010020E6
:1037540038B50020FFF74EFE094D00242C81EC8083
:10376400224621461720FDF75FFA1720FDF78EFA4F
:103774002046FFF73FFEAC73FFF768FF38BD00BF7C
:10378400D001002010B50446B0F57A7F01DD4FF476
:103794007A7414F57A7F00DA1B4C002C0DDA60423F
:1037A40080B204B2194B1B780BB9FFF723FE012337
:1037B400174A9372154A13700BE0144B1B78012BB4
:1037C40002D1A0B2FFF716FE0023114A93720F4AEA
:1037D4001370A4B2631D9BB20A2B05D801230C4AB3
:1037E40093730C4A13700AE00022094B9A73094B35
:1037F4001B780BB1FFF72AFF0022064B1A702046F4
:10380400FFF7F8FD10BD00BF18FCFFFF24000020E7
:10381400D001002025000020024B01221A715A71A8
:10382400704700BFD001002008B51B4B5B7913F033
:10383400FF0F0ED0184B1B7913F0FF0F09D1FFF7C0
:1038440005FF154B002159711A8992B2DA8019814A
:103854000EE0114B5B7913F0FF0F09D00E4B1B796F
:1038640013F0FF0F04D00C4A1379013BDBB2137140
:10387400094A13899BB201339BB2138113899BB20A
:1038840041F28732934205D9034B41F288321A81BF
:103894000022DA8008BD00BFD00100204FF00052A2
:1038A400014B1A61704700BF000C01404FF40052F5
:1038B400014B1A61704700BF000C01404FF0804279
:1038C400014B1A61704700BF000C01404FF4804265
:1038D400014B1A61704700BF000C01404FF00042D9
:1038E400014B1A61704700BF000C01404FF40042C5
:1038F400014B1A61704700BF000C014010B586B03F
:10390400104B9A6942F010029A619B6903F010030C
:103914000193019B4FF4E05302930B4B0393032356
:1039240005930024049402A90848FDF7F5F92246FA
:1039340021462820FDF778F92820FDF7A7F906B0DD
:1039440010BD00BF00100240000031100010014003
:10395400034B1A68136A43F001031362704700BFF4
:10396400F0010020044B1A68136A23F001031B04BE
:103974001B0C1362704700BFF0010020034B1A6850
:10398400136A43F010031362704700BFF001002074
:10399400044B1A68136A23F010031B041B0C1362F4
:1039A400704700BFF0010020034B1A68136A43F408
:1039B40080731362704700BFF0010020044B1A6843
:1039C400136A23F480731B041B0C1362704700BF3B
:1039D400F0010020064B1B6803FB00F0054BA3FB22
:1039E40000308009044B1B6858639863D8637047A0
:1039F400E0010020D34D6210F001002010B500203A
:103A0400FFF7E8FF124C0123A373FFF74FFFFFF703
:103A14005DFFFFF76BFFFFF7A5FFFFF7B9FFFFF7A8
:103A2400CDFF002211462820FDF7FEF82820FDF7DF
:103A340039F9084B4FF480525A614FF400625A61CD
:103A44004FF480625A6100232371637110BD00BF7B
:103A5400E0010020000401402DE9F04196B06A4BDA
:103A64009A6942F400629A619A6902F400620092CF
:103A7400009A664A1268D2086549A1FB0212120A2A
:103A8400013A644F3A609A6942F400629A619A6911
:103A940002F400620192019A9A6942F004029A6166
:103AA4009A6902F004020292029A9A6942F00802A8
:103AB4009A619B6903F008030393039BFFF7F6FEE7
:103AC400FFF704FFFFF712FF0126139614964FF039
:103AD4000308CDF8548016AC4FF4005344F8103D5D
:103AE4004D4D21462846FDF717F94FF480431293B4
:103AF40021462846FDF710F94FF40043129321465E
:103B04002846FDF709F9022313931493CDF8548042
:103B14004FF480731293A5F5806521462846FDF77E
:103B2400FBF84FF40073129321462846FDF7F4F88E
:103B34004FF48068CDF8488021462846FDF7ECF81C
:103B4400364D374B2B6000246C603B68EB602C6176
:103B5400AC606C612846FDF723FB0A940994089431
:103B64000694CDF814804FF400630493282307933C
:103B740004A92846FDF720F860230B930F940D94B5
:103B84004FF00808CDF83880109411940C94224614
:103B94000BA92846FDF758FB0C9404220BA92846D0
:103BA400FDF752FB0C9442460BA92846FDF74CFB4B
:103BB40021462846FDF7C4FB04212846FDF7C0FB37
:103BC40041462846FDF7BCFB0C212846FDF7DAFBED
:103BD4002046FFF7FFFEFFF769FEFFF777FEFFF7CA
:103BE40085FEFFF7BFFEFFF7D3FEFFF7E7FEBE73C8
:103BF400324621461B20FDF717F81B20FDF746F837
:103C040016B0BDE8F08100BF0010024000000020A3
:103C140089B5F814E0010020000C0140F0010020F7
:103C2400002C014008B5FFF717FFFFF767FE044BB0
:103C340000221A715A71DA801A81FFF7DFFE08BD7B
:103C4400E001002010B5444B9B6803F4E053434C5F
:103C5400A381FFF72BFEFFF739FEFFF747FEFFF7BF
:103C640081FEFFF795FEFFF7A9FEA37B13F0FF0F7C
:103C740071D1A37A13F0FF0F36D0A3899BB2B3F5A9
:103C8400406F1BD006D8B3F5806F0DD0B3F5006F2D
:103C94000FD027E0B3F5A05F1AD0B3F5C05F1CD0F6
:103CA400B3F5805F1ED10EE0FFF7F8FDFFF766FE67
:103CB40010BDFFF703FEFFF777FE10BDFFF7EEFD23
:103CC400FFF772FE10BDFFF743FEFFF707FE10BDBE
:103CD400FFF754FEFFF702FE10BDFFF739FEFFF7B2
:103CE400EDFD10BD00BF10BD1C4B9B899BB2B3F50D
:103CF400406F1BD006D8B3F5806F0DD0B3F5006FBD
:103D04000FD027E0B3F5A05F1AD0B3F5C05F1CD085
:103D1400B3F5805F1ED10EE0FFF71AFEFFF7CEFD6C
:103D240010BDFFF72BFEFFF7D9FD10BDFFF710FE06
:103D3400FFF7D4FD10BDFFF7B1FDFFF735FE10BD51
:103D4400FFF7BCFDFFF730FE10BDFFF7A7FDFFF73F
:103D540015FE10BD00BF10BD00100140E0010020A1
:103D640038B50020FFF736FE094D00242C81EC8085
:103D7400224621462820FCF757FF2820FCF786FF1F
:103D84002046FFF727FEAC73FFF75CFF38BD00BF8A
:103D9400E001002010B50446B0F57A7F01DD4FF450
:103DA4007A7414F57A7F00DA1B4C002C0DDA604229
:103DB40080B204B2194B1B780BB9FFF70BFE012339
:103DC400174A9372154A13700BE0144B1B78012B9E
:103DD40002D1A0B2FFF7FEFD0023114A93720F4AED
:103DE4001370A4B2631D9BB20A2B05D801230C4A9D
:103DF40093730C4A13700AE00022094B9A73094B1F
:103E04001B780BB1FFF71EFF0022064B1A702046E9
:103E1400FFF7E0FD10BD00BF18FCFFFF26000020E7
:103E2400E001002027000020024B01221A715A7180
:103E3400704700BFE001002008B51B4B5B7913F00D
:103E4400FF0F0ED0184B1B7913F0FF0F09D1FFF7AA
:103E5400F9FE154B002159711A8992B2DA80198141
:103E64000EE0114B5B7913F0FF0F09D00E4B1B7959
:103E740013F0FF0F04D00C4A1379013BDBB213712A
:103E8400094A13899BB201339BB2138113899BB2F4
:103E940041F28732934205D9034B41F288321A81A9
:103EA4000022DA8008BD00BFE001002000B583B025
:103EB4001A4BDA6942F40032DA61DB6903F4003345
:103EC4000193019B062205211020FCF7ADFE102072
:103ED400FCF7DCFE072205211120FCF7A5FE1120CA
:103EE400FCF7D4FE0E480F4B03604FF4E1334360FC
:103EF40000238360C36003610C2242618361FEF787
:103F0400E5FC08B100F084F9074B002283F879201E
:103F1400012283F87A2003B05DF804FB001002400C
:103F240018030020004400402C0200200268044BC7
:103F34009A4203D10122034B83F87920704700BFD2
:103F4400004400402C02002010B586B00D4B9A6945
:103F540042F008029A619B6903F008030193019BF4
:103F6400094C002204212046FCF7CCFF04230293D1
:103F7400012303930223059302A92046FCF7CCFEF8
:103F840006B010BD00100240000C014000B587B01F
:103F94000B4B9A6942F004029A619B6903F0040393
:103FA4000193019B4FF48053029300230393012355
:103FB400049302A90348FCF7AFFE07B05DF804FBC5
:103FC400001002400008014008B5024604210248DE
:103FD400FCF798FF08BD00BF000C014008B502467D
:103FE40010210248FCF78EFF08BD00BF0008014005
:103FF40030B587B0124B9A6942F004029A619B690A
:1040040003F004030193019B0E4D00221021284666
:10401400FCF778FF102302930124039402230593F1
:1040240002A92846FCF778FE0020FFF7D7FF2046B8
:10403400FFF7D4FF0020FFF7D1FF07B030BD00BF6A
:10404400001002400008014010B500240FE00120D8
:10405400FFF7C4FFA02000F09DF80020FFF7BEFF8B
:10406400A02000F097F80548FFF764F80134C72C46
:10407400EDDD0020FFF7B2FF10BD00BFDC0400201F
:1040840008B5FFF713FF082202490348FEF74EFC68
:1040940008BD00BF780300201803002008B5044BB6
:1040A40058680449FCF7CAF8FCF718FA00B208BDCE
:1040B4007803002000007A4408B5044B18680449CA
:1040C400FCF7BCF8FCF70AFA00B208BD780300203C
:1040D40000007A440268034B9A4202D10122024B47
:1040E4001A73704700580040800300200268034B95
:1040F4009A4202D10122024B5A7370470058004081
:10410400800300200268034B9A4202D10122024B31
:104114009A737047005800408003002010B582B0A5
:10412400114BDA6942F00102DA61DB6903F0010341
:104134000193019B0D4C4FF0804323604FF6FF73B6
:10414400E3600B4B1B680B4AA2FB03239B0C013B54
:10415400636000232361A3602046FDF705F8204631
:10416400FCF792FF02B010BD001002404004002092
:104174000000002083DE1B4308B50448FCF792FFCF
:10418400034AD36923F00103D36108BD400400202E
:104194000010024010B50446FFF7C0FF4FF0804303
:1041A4005A6A4FF080435B6A9B1AA342F9D9FFF71E
:1041B400E3FF10BD70B50A4C00262670FFF71EFC05
:1041C400FFF72CF9FEF764FC064D6860FEF760FC0F
:1041D4002861AE602E730023A3616362A36270BD85
:1041E400900400207C04002010B504460268064BAD
:1041F4009A4201D1FFF764F82268044B9A4201D134
:10420400FFF706F810BD00BF00240140003C014048
:1042140008B5FFF7F3FBFFF701F9FEE700B583B03C
:104224000E4BDA6942F40062DA61DB6903F400637D
:104234000193019B0A480B4B03600123436040F642
:10424400FF738360FEF72CFF08B1FFF7E1FF04481A
:10425400FEF75AFF03B05DF804FB00BF00100240F4
:10426400DC0400200030004000B597B002230C931A
:1042740001221092102211921393002314934FF4ED
:10428400601315930CA8FDF7ADF908B1FFF7C0FF53
:104294000F23079302210891002309934FF48062AE
:1042A4000A920B9307A8FDF7DDFC08B1FFF7B0FFF6
:1042B400022301934FF44043039301A8FEF752FEF7
:1042C40008B1FFF7A5FFFDF7BFFD094BA3FB0030C5
:1042D4008009FCF7F5FC0420FCF708FD00221146D8
:1042E4004FF0FF30FCF7A0FC17B05DF804FB00BFF3
:1042F400D34D6210F8B5FEF7B1FBFFF7B5FFFFF73A
:104304008DFFFFF70BFFFFF7BBFEFFF771FEFFF713
:104314001BFEFFF73BFEFEF735FFFEF77FFFFFF7BF
:1043240085F9FFF77FFC0120FFF74EFEFFF78CFEB7
:104334004FF4AF70FEF7B2FB0020FFF745FEFFF726
:1043440039FFFFF70DFDFFF703FA002640F6CA0513
:104354000135FFF7B1FEC82808DCFFF7ADFE10F108
:10436400C80F06DBFFF7A8FE474203E06FF0C7075C
:1043740000E0C827FFF792FEC82808DCFFF78EFE8E
:1043840010F1C80F06DBFFF789FE444203E06FF02B
:10439400C70400E0C82407EB8703580000B2FFF706
:1043A400F1F904EB8403580000B2FFF7F3FCFEF7C5
:1043B4006FFB0D4B18600D4BA3FB05235B0B42F207
:1043C400283202FB135323B986F001063046FFF767
:1043D400FBFD0748FEF7AEFEFEF75AFB024B1B68D7
:1043E400C01A044B1860B3E7D8040020D55204E97E
:1043F400DC040020EC04002000B583B01C4B9A6957
:1044040042F001029A619B6903F001030193019B4D
:104414000320FCF7F7FB002211466FF00B00FCF7BA
:1044240003FC002211466FF00A00FCF7FDFB00229A
:1044340011466FF00900FCF7F7FB002211466FF0FC
:104444000400FCF7F1FB002211466FF00300FCF7B7
:10445400EBFB002211466FF00100FCF7E5FB0022A4
:1044640011464FF0FF30FCF7DFFB03B05DF804FBAF
:104474000010024010B586B0044603682F4A9342E8
:104484002BD12F4B9A6942F400729A619B6903F411
:1044940000730093009B062302930323039302A952
:1044A4002848FCF739FC2848284B03600023436064
:1044B40083608022C2604FF4807202614FF4806294
:1044C400426120228261C361FDF706FD08B1FFF756
:1044D4009FFE1D4B23625C622DE01D4A93422AD14C
:1044E400174B9A6942F400429A619B6903F40043B2
:1044F4000193019B012302930323039302A911480F
:10450400FCF70AFC1348144B0360002343608360E8
:104514008022C2604FF4807202614FF48062426173
:1045240020228261C361FDF7D7FC08B1FFF770FE5A
:10453400084B23625C6206B010BD00BF002401403A
:104544000010024000100140D80000200800024082
:10455400003C014030000020580402400268324B05
:104564009A425FD170B588B0044603F5E6335A69C0
:1045740042F001025A615A6902F001020192019A61
:104584009A6942F004029A619A6902F00402029262
:10459400029ADA6942F40032DA61DB6903F4003327
:1045A4000393039B0123069304230493022305939B
:1045B400032307931D4E04A93046FCF7ADFB0823E3
:1045C40004930025059504A93046FCF7A5FB18487B
:1045D400184B0360456085608023C36005614561B5
:1045E40020238361C561FDF777FC08B1FFF710FE56
:1045F4000F4B63635C621048104B036010234360ED
:10460400002383608022C260036143618361C361CC
:10461400FDF762FC08B1FFF7FBFD074B23635C6207
:1046240008B070BD704700BF00440040000801405E
:10463400A80200206C000240E0020020800002403A
:10464400002103E00B4B5B58435004310A480B4BE9
:1046540042189A42F6D30A4A02E0002342F8043B85
:10466400084B9A42F9D3FCF753FC00F00FF8FFF71C
:1046740041FE704728470008000000200400002085
:1046840004000020F0040020FEE700000E4B70B58B
:104694001E460E4C0025E41AA410A54204D056F878
:1046A400253098470135F8E700F016F8084B094C17
:1046B4001E46E41AA4100025A54204D056F825305D
:1046C40098470135F8E770BD2047000820470008E7
:1046D4002047000824470008F8B500BFF8BC08BC10
:1046E4009E467047F8B500BFF8BC08BC9E467047AC
:1046F40002030405060708090A0B0C0D0E0F10101F
:104704000102000000000000000000000102030498
:0C47140006070809000000000102030471
:044720000902000882
:04472400E5010008A3
:0447280000A24A049D
:040000050800464564
:00000001FF
