:020000040800F2
:1000000000C00020FD4600081D1A0008251A00083F
:10001000311A00083D1A0008491A000800000000C3
:10002000000000000000000000000000551A000859
:100030005D1A000800000000611A0008691A000833
:100040004547000845470008454700084547000860
:100050004547000845470008454700084547000850
:10006000454700084547000845470008C51B0008EC
:100070004547000845470008951A0008A51A0008DA
:10008000B51A0008C51A000845470008454700088A
:10009000454700084547000845470008251B00085C
:1000A0004547000845470008454700085D1B000814
:1000B00045470008E51B000845470008751A000879
:1000C000851A000845470008D51A0008454700086A
:1000D00045470008454700084547000845470008D0
:1000E000E51A00084547000845470008454700084D
:1000F0004547000845470008911B00084547000890
:10010000454700084547000845470008454700089F
:10011000454700084547000845470008454700088F
:10012000454700084547000845470008D51B00081B
:1001300000000000000000000000000000000000BF
:1001400000000000000000000000000000000000AF
:10015000000000000000000000000000000000009F
:10016000000000000000000000000000000000008F
:10017000000000000000000000000000000000007F
:10018000000000000000000000000000000000006F
:10019000000000000000000000000000000000005F
:1001A000000000000000000000000000000000004F
:1001B000000000000000000000000000000000003F
:1001C000000000000000000000000000000000002F
:1001D000000000000000000000000000000000001F
:0401E0005FF8E0F1F3
:1001E80010B5054C237833B9044B13B10448AFF369
:1001F80000800123237010BD0400002000000000CF
:100208009C5A0008084B10B51BB108490848AFF3C1
:1002180000800848036803B910BD074B002BFBD0CA
:10022800BDE81040184700BF00000000080000208B
:100238009C5A0008040000200000000081F00041E2
:1002480002E000BF83F0004330B54FEA41044FEAB3
:10025800430594EA050F08BF90EA020F1FBF54EA4E
:10026800000C55EA020C7FEA645C7FEA655C00F0EA
:10027800E2804FEA5454D4EB5555B8BF6D420CDDBB
:100288002C4480EA020281EA030382EA000083EA3E
:10029800010180EA020281EA0303362D88BF30BDDE
:1002A80011F0004F4FEA01314FF4801C4CEA113134
:1002B80002D0404261EB410113F0004F4FEA033393
:1002C8004CEA133302D0524263EB430394EA050F1E
:1002D80000F0A780A4F10104D5F1200E0DDB02FA8D
:1002E8000EFC22FA05F2801841F1000103FA0EF221
:1002F800801843FA05F359410EE0A5F120050EF1E7
:10030800200E012A03FA0EFC28BF4CF0020C43FA17
:1003180005F3C01851EBE37101F0004507D54FF024
:10032800000EDCF1000C7EEB00006EEB0101B1F574
:10033800801F1BD3B1F5001F0CD349085FEA3000BA
:100348004FEA3C0C04F101044FEA445212F5800FC5
:1003580080F09A80BCF1004F08BF5FEA500C50F162
:10036800000041EB045141EA050130BD5FEA4C0C45
:10037800404141EB010111F4801FA4F10104E9D1CE
:1003880091F0000F04BF01460020B1FA81F308BFC5
:100398002033A3F10B03B3F120020CDA0C3208DD91
:1003A80002F1140CC2F10C0201FA0CF021FA02F16C
:1003B8000CE002F11402D8BFC2F1200C01FA02F1DC
:1003C80020FA0CFCDCBF41EA0C019040E41AA2BF01
:1003D80001EB0451294330BD6FEA04041F3C1CDAC9
:1003E8000C340EDC04F11404C4F1200220FA04F0E9
:1003F80001FA02F340EA030021FA04F345EA030193
:1004080030BDC4F10C04C4F1200220FA02F001FA54
:1004180004F340EA0300294630BD21FA04F02946D6
:1004280030BD94F0000F83F4801306BF81F480116F
:100438000134013D4EE77FEA645C18BF7FEA655CE2
:1004480029D094EA050F08BF90EA020F05D054EAB4
:10045800000C04BF1946104630BD91EA030F1EBFB9
:100468000021002030BD5FEA545C05D140004941BD
:1004780028BF41F0004130BD14F580043CBF01F5B0
:10048800801130BD01F0004545F0FE4141F4700196
:100498004FF0000030BD7FEA645C1ABF1946104671
:1004A8007FEA655C1CBF0B46024650EA013406BF72
:1004B80052EA033591EA030F41F4002130BD00BF31
:1004C80090F0000F04BF0021704730B54FF48064EE
:1004D80004F132044FF000054FF0000150E700BF6F
:1004E80090F0000F04BF0021704730B54FF48064CE
:1004F80004F1320410F0004548BF40424FF00001BB
:100508003EE700BF42004FEAE2014FEA31014FEAFD
:1005180002701FBF12F07F4393F07F4F81F060514C
:10052800704792F0000F14BF93F07F4F704730B5BB
:100538004FF4607401F0004521F0004120E700BF4E
:1005480050EA010208BF704730B54FF000050AE0D5
:1005580050EA010208BF704730B511F0004502D5D6
:10056800404261EB41014FF4806404F132045FEAD8
:10057800915C3FF4DCAE4FF003025FEADC0C18BF7D
:1005880003325FEADC0C18BF033202EBDC02C2F173
:10059800200300FA03FC20FA02F001FA03FE40EA05
:1005A8000E0021FA02F11444C1E600BF70B54FF005
:1005B800FF0C4CF4E06C1CEA11541DBF1CEA1355E7
:1005C80094EA0C0F95EA0C0F00F0DEF82C4481EA4F
:1005D800030621EA4C5123EA4C5350EA013518BF6F
:1005E80052EA033541F4801143F4801338D0A0FB5C
:1005F80002CE4FF00005E1FB02E506F00042E0FB09
:1006080003E54FF00006E1FB03569CF0000F18BF0E
:100618004EF0010EA4F1FF04B6F5007F64F54074B6
:1006280004D25FEA4E0E6D4146EB060642EAC62149
:1006380041EA55514FEAC52040EA5E504FEACE2EB6
:10064800B4F1FD0C88BFBCF5E06F1ED8BEF1004FB9
:1006580008BF5FEA500E50F1000041EB045170BD35
:1006680006F0004646EA010140EA020081EA030179
:10067800B4EB5C04C2BFD4EB0C0541EA045170BD75
:1006880041F480114FF0000E013C00F3AB8014F1EF
:10069800360FDEBF002001F0004170BDC4F1000438
:1006A800203C35DA0C341BDC04F11404C4F12005B9
:1006B80000FA05F320FA04F001FA05F240EA020014
:1006C80001F0004221F0004110EBD37021FA04F64A
:1006D80042EB06015EEA430E08BF20EAD37070BD04
:1006E800C4F10C04C4F1200500FA04F320FA05F063
:1006F80001FA04F240EA020001F0004110EBD37065
:1007080041F100015EEA430E08BF20EAD37070BDD4
:10071800C4F1200500FA05F24EEA020E20FA04F3AD
:1007280001FA05F243EA020321FA04F001F000415C
:1007380021FA04F220EA020000EBD3705EEA430ECD
:1007480008BF20EAD37070BD94F0000F0FD101F0FC
:100758000046400041EB010111F4801F08BF013C35
:10076800F7D041EA060195F0000F18BF704703F073
:100778000046520043EB030313F4801F08BF013DFA
:10078800F7D043EA0603704794EA0C0F0CEA1355B6
:1007980018BF95EA0C0F0CD050EA410618BF52EA70
:1007A8004306D1D181EA030101F000414FF0000076
:1007B80070BD50EA410606BF1046194652EA430684
:1007C80019D094EA0C0F02D150EA013613D195EAF8
:1007D8000C0F05D152EA03361CBF104619460AD140
:1007E80081EA030101F0004141F0FE4141F470014A
:1007F8004FF0000070BD41F0FE4141F4780170BD3A
:1008080070B54FF0FF0C4CF4E06C1CEA11541DBF9E
:100818001CEA135594EA0C0F95EA0C0F00F0A7F8A0
:10082800A4EB050481EA030E52EA03354FEA0131CD
:1008380000F088804FEA03334FF0805545EA1313E0
:1008480043EA12634FEA022245EA111545EA1065A8
:100858004FEA00260EF000419D4208BF964244F13F
:10086800FD0404F5407402D25B084FEA3202B61A5E
:1008780065EB03055B084FEA32024FF480104FF432
:10088800002CB6EB020E75EB030E22BFB61A7546A6
:1008980040EA0C005B084FEA3202B6EB020E75EB39
:1008A800030E22BFB61A754640EA5C005B084FEAA1
:1008B8003202B6EB020E75EB030E22BFB61A75466E
:1008C80040EA9C005B084FEA3202B6EB020E75EB79
:1008D800030E22BFB61A754640EADC0055EA060E3A
:1008E80018D04FEA051545EA16754FEA06164FEA7D
:1008F800C30343EA52734FEAC2025FEA1C1CC0D129
:1009080011F4801F0BD141EA00014FF000004FF0B5
:10091800004CB6E711F4801F04BF01430020B4F176
:10092800FD0C88BFBCF5E06F3FF6AFAEB5EB030C2E
:1009380004BFB6EB020C5FEA500C50F1000041EB2B
:10094800045170BD0EF0004E4EEA113114EB5C04F8
:10095800C2BFD4EB0C0541EA045170BD41F48011CB
:100968004FF0000E013C90E645EA060E8DE60CEAD3
:10097800135594EA0C0F08BF95EA0C0F3FF43BAFF0
:1009880094EA0C0F0AD150EA01347FF434AF95EAA7
:100998000C0F7FF425AF104619462CE795EA0C0F8B
:1009A80006D152EA03353FF4FDAE1046194622E758
:1009B80050EA410618BF52EA43067FF4C5AE50EA32
:1009C80041047FF40DAF52EA43057FF4EBAE12E722
:1009D8004FF0FF3C06E000BF4FF0010C02E000BF03
:1009E8004FF0010C4DF804CD4FEA410C7FEA6C5CE6
:1009F8004FEA430C18BF7FEA6C5C1BD001B050EA89
:100A0800410C0CBF52EA430C91EA030F02BF90EA73
:100A1800020F0020704710F1000F91EA030F58BF32
:100A2800994208BF90422CBFD8176FEAE37040F094
:100A3800010070474FEA410C7FEA6C5C02D150EA32
:100A4800013C07D14FEA430C7FEA6C5CD6D152EAED
:100A5800033CD3D05DF8040B704700BF84461046B2
:100A680062468C461946634600E000BF01B5FFF7B1
:100A7800B7FF002848BF10F1000F01BD4DF808ED81
:100A8800FFF7F4FF0CBF012000205DF808FB00BF52
:100A98004DF808EDFFF7EAFF34BF012000205DF8AC
:100AA80008FB00BF4DF808EDFFF7E0FF94BF0120F9
:100AB80000205DF808FB00BF4DF808EDFFF7CEFFFA
:100AC80094BF012000205DF808FB00BF4DF808ED39
:100AD800FFF7C4FF34BF012000205DF808FB00BF0A
:100AE8004FEA410212F5001215D211D56FF478734E
:100AF800B3EB625212D94FEAC12343F0004343EAF1
:100B0800505311F0004F23FA02F018BF40427047CB
:100B18004FF00000704750EA013005D111F0004055
:100B280008BF6FF0004070474FF00000704700BFEB
:100B380008B5436A9A6A12F0500F1CD19A6A42F4B7
:100B480000729A621A68926802F46022B2F5602F05
:100B58000DD1DA685AB99A6A22F480729A629A6A4E
:100B680012F4805F03D19A6A42F001029A62184631
:100B780003F004FC08BD1B6A1B6B984708BD00BF47
:100B8800704700BF08B5406AFFF7FAFF08BD00BF0D
:100B9800704700BF08B5406A836A43F04003836228
:100BA800C36A43F00403C362FFF7F2FF08BD00BF46
:100BB800F0B482B00023019390F82430012B00F0A8
:100BC800C780012380F824304B68062B1BD80668A1
:100BD800756B4FF4787292FAA2F4B4FA84F4013B7C
:100BE80003FB04F41F2707FA04F425EA04040D683C
:100BF80092FAA2F2B2FA82F203FB02F205FA02F2C8
:100C08002243726337E00C2B1AD80668376B4FF40F
:100C1800787292FAA2F5B5FA85F5073B03FB05F55C
:100C28001F2404FA05F527EA05050C6892FAA2F2D2
:100C3800B2FA82F203FB02F39C402C4334631AE0BD
:100C48000668F46A4FF4787292FAA2F5B5FA85F557
:100C58000D3B03FB05F51F2707FA05F524EA0505F3
:100C68000C6892FAA2F2B2FA82F203FB02F304FAD7
:100C780003F32B43F3620D68092D1BD90668F76847
:100C8800382292FAA2F4B4FA84F4A5F10A0303FB19
:100C980004F4072505FA04F427EA04048D6892FA97
:100CA800A2F2B2FA82F203FB02F305FA03F222433C
:100CB800F26018E007683E69382292FAA2F4B4FAA2
:100CC80084F405FB04F4072303FA04F426EA040475
:100CD8008E6892FAA2F2B2FA82F205FB02F306FAE1
:100CE80003F323433B610B68103B012B26D80368B1
:100CF800194A93421CD19A6812F4000F20D19A68BD
:100D080042F400029A600B68102B1BD1134B1B682E
:100D1800134AA2FB03239B0C03EB83035A000192A3
:100D280002E0019B013B0193019B002BF9D10AE0F2
:100D3800836A43F020038362012304E0002302E076
:100D4800002300E00023002280F82420184600E059
:100D5800022002B0F0BC70470024014000000020CF
:100D680083DE1B4330B583B00023019303689A6880
:100D780012F0010F2FD19A6842F001029A60174BC6
:100D88001B68174AA2FB03239B0C019302E0019BFB
:100D9800013B0193019B002BF9D1044601F0BAFFF6
:100DA800054611E001F0B6FF401B02280CD9A36AE2
:100DB80043F01003A362E36A43F00103E3620023F4
:100DC80084F82430012007E023689B6813F0010FA2
:100DD800E8D0002000E0002003B030BD0000002073
:100DE80083DE1B4390F82430012B71D010B50446E4
:100DF800012380F82430FFF7B5FF0346002863D1AC
:100E0800A26A22F4407222F0010242F48072A262C5
:100E1800226830498A4205D1A1F58061496811F4F8
:100E2800702F0ED1A16A21F48011A162516811F4CA
:100E3800806F1CD0A16A21F4405141F48051A16215
:100E480015E0A16A41F48011A16223498A4203D0C6
:100E580001F580618A420AD11F49496811F4806FFF
:100E680005D0A16A21F4405141F48051A162A16AE0
:100E780011F4805F04D0E16A21F00601E16201E02B
:100E88000021E162002184F824106FF00201116052
:100E98002268916801F46021B1F5602F0ED10D49E7
:100EA8008A4205D1A1F58061496811F4702F05D1F6
:100EB800916841F4A0019160184610BD916841F411
:100EC80080119160184610BD002284F8242010BDBE
:100ED800022070470028014000240140F8B504684A
:100EE8004A4DAC4203D005F58065AC4205D1474B6D
:100EF8005B6813F4702F40F0858090F82440012C33
:100F080000F0828017460E460446012380F82430FC
:100F1800FFF728FF0546002870D1A36A23F4706301
:100F280023F0010343F48073A3622268384B9A428A
:100F380005D1A3F580635B6813F4702F0ED1A36A03
:100F480023F48013A362536813F4806F1CD0A36A40
:100F580023F4405343F48053A36215E0A36A43F497
:100F68008013A362294B9A4203D003F580639A4207
:100F78000AD1264B5B6813F4806F05D0A36A23F46B
:100F8800405343F48053A362A36A13F4805F04D0F0
:100F9800E36A23F00603E36201E00023E36200232F
:100FA80084F82430236A1B4A9A62236A1A4ADA624E
:100FB800236A1A4A1A6323686FF002021A602268C9
:100FC800936843F48073936021683B4632464C3102
:100FD800206A01F07FFA2268936803F46023B3F56E
:100FE800602F05D1936843F4A00393602846F8BDA9
:100FF800936843F4801393602846F8BD002384F86F
:101008002430F8BD0120F8BD0220F8BD00240140BD
:1010180000280140390B00088D0B00089D0B0008C3
:1010280038B503689A6812F0010F1ED004469A6812
:1010380022F001029A6001F06DFE05460EE001F013
:1010480069FE401B022809D9A36A43F01003A36272
:10105800E36A43F00103E362012038BD23689B681B
:1010680013F0010FEBD1002038BD002038BD00BFC0
:10107800002800F09D8070B50446836A23B9C362D6
:1010880080F8243003F0C2FA2046FFF7C9FFA36AAC
:1010980013F0100F40F08680002840F08380A36A88
:1010A80023F4885323F0020343F00203A362636826
:1010B8002168404A914206D1E269B2F5402F03D136
:1010C8004FF4002200E0E2691A43E568022393FA2C
:1010D800A3F3B3FA83F305FA03F31343A268B2F553
:1010E800807F04D0012A05D14FF4807603E04FF4C5
:1010F800807600E000266269012A15D165B9A269E7
:10110800013A4FF4604595FAA5F5B5FA85F5AA4078
:1011180042F40062164307E0A26A42F02002A2628B
:10112800E26A42F00102E2624A6822F4694232430A
:101138004A6021688D68204A2A401A438A60A2685A
:10114800B2F5807F01D0012A0AD12269013A4FF411
:10115800700191FAA1F1B1FA81F102FA01F100E00E
:1011680000212568EA6A22F470020A43EA622268CA
:101178009168124A0A40934208D10023E362A36AA5
:1011880023F0030343F00103A36270BDA36A23F0B5
:10119800120343F01003A362E36A43F00103E3621E
:1011A800012070BDA36A43F01003A362012070BD43
:1011B80001207047003C0140FDF7E1FFFE0E1FFFD4
:1011C80090F83830012B1CD030B4012580F8385005
:1011D800022380F8393004680A684B681A438B6820
:1011E8001A43CB681A430B691A434B691A438B6934
:1011F8001343636480F83950002380F83830184668
:1012080001E00220704730BC704700BF074AD3682E
:1012180023F4E0631B041B0C000200F4E060184395
:1012280040F0BF6040F40030D060704700ED00E04F
:1012380030B4164BDB68C3F30223C3F10704042C54
:1012480028BF04241D1D062D01D9DD1E00E0002540
:10125800012303FA04F4013C2140A940AB40013BBF
:101268001A400A43002806DA00F00F001201D2B231
:10127800074B1A5407E01201D2B200F1604000F5A2
:10128800614080F8002330BC704700BF00ED00E0EB
:1012980014ED00E0420900F01F00012303FA00F0FA
:1012A800014B43F82200704700E100E0430900F0D9
:1012B8001F00012202FA00F02033024A42F82300FC
:1012C800704700BF00E100E00138B0F1807F0AD22A
:1012D800064B5860F021064A82F8231000209860D7
:1012E80007221A6070470120704700BF10E000E035
:1012F80000ED00E0042805D1054A136843F0040313
:1013080013607047024A136823F0040313607047A0
:1013180010E000E0704700BF08B5FFF7FBFF08BD0D
:10132800F0B583B000263446DFE00122A2400B6806
:1013380013409A4240F0D8804D68122D2DD00BD81A
:10134800022D27D003D85DB3012D1ED035E0032D23
:1013580030D0112D1BD030E0664FBD4220D008D8C8
:10136800A7F58017BD421BD007F58037BD4224D1B1
:1013780016E0614FBD4213D007F58037BD420FD04C
:10138800A7F58017BD4218D10AE0CE6815E0CE68EF
:10139800043612E0CE6808360FE0CE680C360CE052
:1013A8008D684DB1012D02D10261082605E0426128
:1013B800082602E0002600E00426FF2B01D8864616
:1013C80001E000F1040EFF2B01D8A20002E0A4F115
:1013D80008029200DEF800700F25954027EA0505FF
:1013E80006FA02F22A43CEF800204A6812F0805F1B
:1013F8007AD0424A956945F001059561926902F0F3
:1014080001020192019AA708BD1C3D4A52F825E045
:1014180004F0030292000F2595402EEA050E394D7F
:10142800A84215D005F58065A84213D005F580655A
:10143800A84211D005F58065A8420FD005F5806552
:10144800A8420DD005F58065A8420BD105250AE014
:10145800002508E0012506E0022504E0032502E056
:10146800042500E0062505FA02F24EEA02020237D8
:10147800234D45F827204A6812F4803F05D005F52A
:1014880080652A681A432A6004E01F4D2A6822EA08
:1014980003022A604A6812F4003F04D01A4D6A68B1
:1014A8001A436A6004E0184D6A6822EA03026A6017
:1014B8004A6812F4801F04D0134DAA681A43AA6020
:1014C80004E0114DAA6822EA0302AA604A6812F4ED
:1014D800001F04D00C4DEA681343EB6004E00A4D8A
:1014E800EA6822EA0303EB6001340F2C7FF61DAF94
:1014F80003B0F0BD000021100000311000100240C0
:101508000000014000080140000401400AB10161E7
:1015180070470904016170470F4B1A6842F00102D5
:101528001A6059680D4A0A405A601A6822F0847293
:1015380022F480321A601A6822F480221A605A68EB
:1015480022F4FE025A604FF41F029A604FF00062C4
:10155800034B9A60704700BF001002400000FFF87C
:1015680000ED00E070B4036A23F001030362036A2C
:101578004668826922F073020C6842EA040523F087
:1015880002028B6813430F4CA04202D00E4A9042CD
:1015980005D123F00803CA68134323F00403094C58
:1015A800A04202D0084A904205D126F440764A6902
:1015B80032438E691643466085614A684263036216
:1015C80070BC7047002C01400034014030B4036AFD
:1015D80023F480730362036A4568C26922F07302C8
:1015E8000C68224323F400738C6843EA0423124CEA
:1015F800A04203D004F50064A04206D123F400639E
:10160800CC6843EA042323F480630B4CA04203D044
:1016180004F50064A04207D125F440554C6945EA19
:1016280004158C6945EA04154560C2614A68C263BD
:10163800036230BC704700BF002C014030B4036A1D
:1016480023F480530362036A4468C26922F4E642C1
:101658000D6842EA052223F400538D6843EA0533F6
:10166800094DA84203D005F50065A84204D124F429
:1016780080444D6944EA85144460C2614A68026442
:10168800036230BC704700BF002C0140704700BFA8
:10169800022380F839300268136843F001031360AD
:1016A800012380F839300020704700BF022380F8FA
:1016B80039300368196A41F21112114208D1196AC6
:1016C80040F24442114203D11A6822F001021A6022
:1016D800012380F839300020704700BF704700BFF1
:1016E8000368224A904212D002F5006290420ED05E
:1016F800B0F1804F0BD0A2F59832904207D002F596
:101708008062904203D002F58062904203D123F0B8
:1017180070034A681343154A904212D002F50062DA
:1017280090420ED0B0F1804F0BD0A2F59832904283
:1017380007D002F58062904203D002F580629042A1
:1017480003D123F44073CA68134303608B68C362F0
:101758000B688362054B984203D003F500639842F7
:1017680001D10B690363012343617047002C0140D9
:10177800B8B110B5044690F8393013F0FF0F04D112
:10178800002380F83830FFF781FF022384F83930CE
:10179800211D2068FFF7A4FF012384F839300020B9
:1017A80010BD0120704700BFB8B110B5044690F8CD
:1017B800393013F0FF0F04D1002380F83830FFF7D9
:1017C8008DFF022384F83930211D2068FFF788FF38
:1017D800012384F83930002010BD0120704700BF74
:1017E80030B4036A23F010030362036A4468826911
:1017F80022F4E6420D6842EA052223F020038D68B0
:1018080043EA0513114DA84203D005F50065A84227
:1018180006D123F08003CD6843EA051323F0400383
:101828000A4DA84203D005F50065A84207D124F463
:1018380040644D6944EA85048D6944EA850444603E
:1018480082614A688263036230BC7047002C0140A1
:1018580038B590F83830012B66D00D460446012380
:1018680080F83830022380F839300C2A55D8DFE860
:1018780002F0075454541A5454542E5454544100EA
:101888000068FFF76FFE2268936943F008039361CD
:101898002268936923F004039361226891692B6994
:1018A8000B43936139E00068FFF79AFF2268936958
:1018B80043F4006393612268936923F4806393611E
:1018C80022689369296943EA0123936125E0006846
:1018D800FFF77CFE2268D36943F00803D3612268CE
:1018E800D36923F00403D3612268D1692B690B43C0
:1018F800D36112E00068FFF7A1FE2268D36943F4C0
:101908000063D3612268D36923F48063D3612268BA
:10191800D369296943EA0123D361012384F8393063
:10192800002084F8380038BD022038BD10B40123E7
:1019380003FA01F4036A23EA04030362036A8A4090
:101948001A43026210BC704710B5044601220068B1
:10195800FFF7ECFF23680C4A934205D002F50062BA
:10196800934203D1012202E0012200E000221AB1D1
:101978005A6C42F400425A642268136843F0010327
:101988001360002010BD00BF002C014010B50446B4
:101998000C291FD8DFE801F0071E1E1E0D1E1E1E93
:1019A800131E1E1E19000268D36843F00203D36099
:1019B80010E00268D36843F00403D3600AE00268C9
:1019C800D36843F00803D36004E00268D36843F0A7
:1019D8001003D36001222068FFF7A8FF23680C4A90
:1019E800934205D002F50062934203D1012202E03E
:1019F800012200E000221AB15A6C42F400425A64F3
:101A08002268136843F001031360002010BD00BF73
:101A1800002C014000BF00BF00BFFBE708B502F083
:101A28002FF901F03DFEFEE708B502F029F901F0B3
:101A380037FEFEE708B502F023F901F031FEFEE7B4
:101A480008B502F01DF901F02BFEFEE700BF00BF4C
:101A580000BFFBE7704700BF00BF00BF00BFFBE748
:101A680008B501F04FF9FFF757FC08BD08B5024863
:101A780001F0C2FA08BD00BF6C03002008B5024897
:101A880001F042FB08BD00BF6C03002008B5024806
:101A980000F04CFD08BD00BFE003002008B5024877
:101AA80000F044FD08BD00BFA803002008B50248A7
:101AB80000F03CFD08BD00BFA802002008B50248A0
:101AC80000F034FD08BD00BFE002002008B5024860
:101AD80001F01AFB08BD00BF6C03002008B50E4BCF
:101AE8005B6913F4806F09D10B4B5B6913F4006FCA
:101AF80004D1094B5B6913F4805F0BD002F0D6FA6E
:101B0800054B4FF480625A614FF400625A614FF4FA
:101B180080525A6108BD00BF0004014008B50C4B53
:101B28005B6913F0200F09D1094B5B6913F0400F73
:101B380004D1074B5B6913F0800F08D001F0AEFFAA
:101B4800034B20225A6140225A6180225A6108BD03
:101B58000004014008B50A4B1B686FF002021A61C5
:101B68006FF004021A616FF008021A616FF0100238
:101B78001A6102F0A3FA0348FFF734F908BD00BF61
:101B8800F00100209800002008B50A4B1B686FF090
:101B980002021A616FF004021A616FF008021A61FA
:101BA8006FF010021A6101F081FF0348FFF71AF97C
:101BB80008BD00BF940100206800002008B5024855
:101BC80000F0B4FC08BD00BFD800002008B50248EA
:101BD80000F0ACFC08BD00BF30000020024B1B68C1
:101BE8006FF001021A6170472C01002030B583B0F4
:101BF8000446036813F0010F00F09680B24B5B684F
:101C080003F00C03042B0AD0AF4B5B6803F00C0302
:101C1800082B1BD1AC4B5B6813F4803F16D04FF4F4
:101C2800003393FAA3F3A84B1A684FF4003393FADE
:101C3800A3F3B3FA83F303F01F0322FA03F313F0B9
:101C4800010F71D06368002B6ED1A0E26368B3F511
:101C5800803F05D19C4A136843F48033136026E023
:101C680063B903F1804303F504331A6822F4803220
:101C78001A601A6822F480221A6018E0B3F5A02FBF
:101C88000CD103F18043A3F53C331A6842F4802257
:101C98001A601A6842F480321A6008E08A4B1A689F
:101CA80022F480321A601A6822F480221A6063686B
:101CB800EBB101F02FF8054605E001F02BF8401BC9
:101CC800642800F266824FF4003393FAA3F37E4B44
:101CD8001A684FF4003393FAA3F3B3FA83F303F0CB
:101CE8001F0322FA03F313F0010FE6D01CE001F002
:101CF80011F8054605E001F00DF8401B642800F2D4
:101D08004A824FF4003393FAA3F36F4B1A684FF4E7
:101D1800003393FAA3F3B3FA83F303F01F0322FA11
:101D280003F313F0010FE6D1236813F0020F00F05C
:101D38009080654B5B6813F00C0F0AD0624B5B68B0
:101D480003F00C03082B27D15F4B5B6813F4803F2B
:101D580022D1022393FAA3F35B4B1A68022393FA66
:101D6800A3F3B3FA83F303F01F0322FA03F313F088
:101D7800010F03D02369012B40F00F8252480368FA
:101D880023F0F8016369F82292FAA2F2B2FA82F219
:101D980093400B4303605CE023699BB3012292FAF2
:101DA800A2F3B3FA83F39B0003F1844303F584039E
:101DB8001A6000F0AFFF054605E000F0ABFF401BDE
:101DC800022800F2EC81022393FAA3F33E4B1A682F
:101DD800022393FAA3F3B3FA83F303F01F0322FA5F
:101DE80003F313F0010FE8D03748036823F0F80134
:101DF8006369F82292FAA2F2B2FA82F293400B4394
:101E0800036026E0012393FAA3F3B3FA83F39B005C
:101E180003F1844303F5840300221A6000F07AFF7B
:101E2800054605E000F076FF401B022800F2B98164
:101E3800022393FAA3F3244B1A68022393FAA3F319
:101E4800B3FA83F303F01F0322FA03F313F0010F2D
:101E5800E8D1236813F0080F52D0A3693BB30122DD
:101E680092FAA2F3B3FA83F3184941F8232000F059
:101E780051FF054605E000F04DFF401B022800F227
:101E88009281022393FAA3F293FAA3F20E4A526ABA
:101E980093FAA3F3B3FA83F303F01F0322FA03F3CD
:101EA80013F0010FE7D0012000F03AFF28E00123EA
:101EB80093FAA3F3B3FA83F30021044A42F82310F8
:101EC80000F028FF054609E0001002408004424265
:101ED80000F020FF401B022800F26781022393FADA
:101EE800A3F293FAA3F2BA4A526A93FAA3F3B3FAA3
:101EF80083F303F01F0322FA03F313F0010FE7D172
:101F0800236813F0040F00F0A180B14BDA6942F0A6
:101F18008052DA61DB6903F080530193019BAD4A7B
:101F2800136843F48073136000F0F4FE054605E07F
:101F380000F0F0FE401B642800F23981A54B1B68B5
:101F480013F4807FF4D0E368012B05D1A04A136A0B
:101F580043F00103136222E063B903F1804303F500
:101F680004331A6A22F001021A621A6A22F0040281
:101F78001A6214E0052B09D1954B1A6A42F0040243
:101F88001A621A6A42F001021A6208E0904B1A6A51
:101F980022F001021A621A6A22F004021A62E36845
:101FA80053B300F0B7FE054607E000F0B3FE401B50
:101FB80041F28833984200F2FC80022393FAA3F29C
:101FC80093FAA3F3B3FA83F35B0943F00203DBB29A
:101FD800022B02D17E4B1A6A01E07D4B5A6A02231A
:101FE80093FAA3F3B3FA83F303F01F0322FA03F37C
:101FF80013F0010FD9D029E000F08CFE054607E068
:1020080000F088FE401B41F28833984200F2D380EA
:10201800022393FAA3F293FAA3F3B3FA83F35B09C7
:1020280043F00203DBB2022B02D1694B1A6A01E0CA
:10203800674B5A6A022393FAA3F3B3FA83F303F0C4
:102048001F0322FA03F313F0010FD9D1E369002B20
:1020580000F0B3805E4A526802F00C02082A00F0D1
:10206800AE80022B68D14FF0807393FAA3F3B3FAD2
:1020780083F39B0003F1844303F5840300221A6071
:1020880000F048FE054605E000F044FE401B02282B
:1020980000F297804FF0007393FAA3F34C4B1A6841
:1020A8004FF0007393FAA3F3B3FA83F303F01F031B
:1020B80022FA03F313F0010FE6D1236AB3F5803F48
:1020C80006D143494B6823F40032A36813434B609D
:1020D8003F48436823F47411236A626A13430B432D
:1020E80043604FF0807393FAA3F3B3FA83F39B0032
:1020F80003F1844303F5840301221A6000F00AFE09
:10210800044604E000F006FE001B02285BD84FF0EE
:10211800007393FAA3F32E4B1A684FF0007393FAE7
:10212800A3F3B3FA83F303F01F0322FA03F313F0C4
:10213800010FE7D0002049E04FF0807393FAA3F332
:10214800B3FA83F39B0003F1844303F5840300226D
:102158001A6000F0DFFD044604E000F0DBFD001B20
:10216800022832D84FF0007393FAA3F3184B1A6879
:102178004FF0007393FAA3F3B3FA83F303F01F034A
:1021880022FA03F313F0010FE7D100201EE001202B
:102198001CE003201AE0032018E0012016E00320C9
:1021A80014E0032012E0032010E003200EE00320D7
:1021B8000CE003200AE0032008E0002006E00120EC
:1021C80004E0032002E0032000E0032003B030BD58
:1021D800001002400070004030B486B01F4D02ACC1
:1021E80028686968AA68EB680FC42B8AADF80430C0
:1021F8001B4B5B6803F00C02082A2AD103F4701108
:102208004FF4701292FAA2F2B2FA82F221FA02F2B2
:1022180006A90A4412F8102C13F4803F15D0104B6D
:102228005B6803F400314FF4003393FAA3F3B3FA75
:1022380083F321FA03F306A90B4413F8140C094B92
:10224800B3FBF0F000FB02F004E0074800FB02F0EB
:1022580000E0044806B030BC704700BFB85A000818
:102268000010024000127A0000093D0070B5744B5E
:102278001B6803F007038B420BD2714A136823F0E3
:1022880007030B431360136803F00703994240F0F8
:10229800C680036813F0020F06D06A4C636823F007
:1022A800F0028368134363600D460446036813F025
:1022B800010F75D04268012A13D14FF4003393FA05
:1022C800A3F3604B19684FF4003393FAA3F3B3FAFE
:1022D80083F303F01F0321FA03F313F0010F27D14F
:1022E8009FE0022A13D14FF0007393FAA3F3554BE2
:1022F80019684FF0007393FAA3F3B3FA83F303F06A
:102308001F0321FA03F313F0010F11D18BE002230D
:1023180093FAA3F34B4B1968022393FAA3F3B3FA86
:1023280083F303F01F0321FA03F313F0010F7CD0AA
:1023380044494B6823F0030313434B6000F0EAFC65
:1023480006466368012B0ED106E000F0E3FC801B13
:1023580041F2883398426AD83A4B5B6803F00C0321
:10236800042BF2D11CE0022B15D106E000F0D2FCC0
:10237800801B41F2883398425BD8324B5B6803F08C
:102388000C03082BF2D10BE000F0C4FC801B41F2D7
:10239800883398424FD82B4B5B6813F00C0FF3D15E
:1023A800274B1B6803F007039D420AD2244A13688F
:1023B80023F007032B431360136803F007039D42C0
:1023C8003BD1236813F0040F06D01E494B6823F451
:1023D800E062E36813434B60236813F0080F07D0EB
:1023E800184A536823F46053216943EAC1035360D0
:1023F800FFF7F2FE134B5B6803F0F002F02393FA49
:10240800A3F3B3FA83F322FA03F30F4AD35CD84059
:102418000E4B1860002000F04FFC002070BD01201A
:1024280070BD012070BD012070BD012070BD03206A
:1024380070BD032070BD032070BD012070BD00BFBA
:102448000020024000100240CC5A00080000002082
:10245800014B1868704700BF0000002010B40468E2
:1024680063604368102B04D103689A600368D960DD
:1024780003E0036899600368DA6010BC704700BF26
:1024880020B310B4034690F821200AB980F8202020
:10249800022283F821201C68226822F47F5121F04F
:1024A800300158689A681043DA6810431A69104373
:1024B8005A6910439A691043DA6902430A43226051
:1024C80000205863012283F8212001E00120704791
:1024D80010BC704738B590F82040012C24D0044631
:1024E800012084F82000022084F82100256828684B
:1024F80020F0010028602046FFF7B0FF226813682B
:1025080043F0020313602268136843F00403136066
:102518002268136843F0080313602268136843F0C5
:1025280001031360002038BD022038BD10B50446F1
:102538000368B54A934248D902F560721268B349F4
:102548008B4221D014318B4220D014318B421FD0C2
:1025580014318B421FD014318B421FD014318B425F
:102568001FD014318B421FD001F562718B421ED0EF
:1025780014318B421DD014318B421CD014318B4244
:102588001CD14FF400411BE0082119E0802117E01D
:102598004FF4006114E04FF4004111E04FF40021C2
:1025A8000EE04FF400010BE04FF0006108E0082155
:1025B80006E0802104E04FF4006101E04FF40021BF
:1025C800114214BF0122002246E0914A12688F4945
:1025D8008B4221D014318B4220D014318B421FD032
:1025E80014318B421FD014318B421FD014318B42CF
:1025F8001FD014318B421FD001F562718B421ED05F
:1026080014318B421DD014318B421CD014318B42B3
:102618001CD14FF400411BE0082119E0802117E08C
:102628004FF4006114E04FF4004111E04FF4002131
:102638000EE04FF400010BE04FF0006108E00821C4
:1026480006E0802104E04FF4006101E04FF400212E
:10265800114214BF01220022002A00F0A2801A6849
:1026680012F0080F00F09D801A6822F008021A6024
:102678002368654A934243D9783A934221D0143269
:10268800934220D0143293421FD0143293421FD069
:10269800143293421FD0143293421FD01432934203
:1026A8001FD002F5627293421ED0143293421DD09D
:1026B800143293421CD0143293421CD14FF400427E
:1026C8001BE0082219E0802217E04FF4006214E0B2
:1026D8004FF4004211E04FF400220EE04FF40002E4
:1026E8000BE04FF0006208E0082206E0802204E0D8
:1026F8004FF4006201E04FF40022464B5A6042E07A
:10270800424A934221D01432934220D01432934249
:102718001FD0143293421FD0143293421FD0143268
:1027280093421FD0143293421FD002F56272934233
:102738001ED0143293421DD0143293421CD014324E
:1027480093421CD14FF400421BE0082219E080227A
:1027580017E04FF4006214E04FF4004211E04FF428
:1027680000220EE04FF400020BE04FF0006208E098
:10277800082206E0802204E04FF4006201E04FF4F2
:102788000022234B5A60636B43F001036363042305
:1027980084F82130002384F82030236B0BB12046C5
:1027A80098472368184A934250D902F56072126814
:1027B80016498B4221D014318B4220D014318B42E0
:1027C8001FD014318B4227D014318B4227D01431BB
:1027D8008B4227D014318B4227D001F562718B428E
:1027E80026D014318B4225D014318B4224D0143199
:1027F8008B4224D14FF4804123E0042121E0402181
:102808001FE04FF480611CE0800002400800024095
:1028180000000240000402404FF4804111E04FF4F0
:1028280080210EE04FF480010BE04FF0806108E05A
:10283800042106E0402104E04FF4806101E04FF4F8
:102848008021114214BF0122002246E0B44A1268D6
:10285800B4498B4221D014318B4220D014318B42A1
:102868001FD014318B421FD014318B421FD014312A
:102878008B421FD014318B421FD001F562718B42FD
:102888001ED014318B421DD014318B421CD0143110
:102898008B421CD14FF480411BE0042119E04021F8
:1028A80017E04FF4806114E04FF4804111E04FF4D9
:1028B80080210EE04FF480010BE04FF0806108E0CA
:1028C800042106E0402104E04FF4806101E04FF468
:1028D8008021114214BF01220022002A00F09F80AB
:1028E8001A6812F0040F00F09A801A6812F0200F8C
:1028F80003D11A6822F004021A6023688A4A9342B4
:1029080043D9783A934221D01432934220D01432DA
:1029180093421FD0143293421FD0143293421FD0D7
:10292800143293421FD0143293421FD002F56272C0
:1029380093421ED0143293421DD0143293421CD0BD
:10294800143293421CD14FF480421BE0042219E058
:10295800402217E04FF4806214E04FF4804211E007
:102968004FF480220EE04FF480020BE04FF08062BB
:1029780008E0042206E0402204E04FF4806201E00F
:102988004FF48022694B5A6042E0664A934221D054
:102998001432934220D0143293421FD014329342FF
:1029A8001FD0143293421FD0143293421FD01432D6
:1029B80093421FD002F5627293421ED014329342A2
:1029C8001DD0143293421CD0143293421CD14FF4C0
:1029D80080421BE0042219E0402217E04FF4806295
:1029E80014E04FF4804211E04FF480220EE04FF4DF
:1029F80080020BE04FF0806208E0042206E04022EB
:102A080004E04FF4806201E04FF48022444B5A60A6
:102A1800112384F82130E36A0BB1204698472368D4
:102A2800414A934248D902F5607212683D498B4287
:102A380021D014318B4220D014318B421FD0143155
:102A48008B421FD014318B421FD014318B421FD0C0
:102A580014318B421FD001F562718B421ED01431A4
:102A68008B421DD014318B421CD014318B421CD1A7
:102A78004FF400511BE0022119E0202117E04FF428
:102A8800007114E04FF4005111E04FF400310EE0F2
:102A98004FF400110BE04FF0007108E0022106E04E
:102AA800202104E04FF4007101E04FF4003111429D
:102AB80014BF012200224EE0194A126819498B42BC
:102AC80021D014318B4220D014318B421FD01431C5
:102AD8008B421FD014318B421FD014318B4227D028
:102AE80014318B4227D001F562718B4226D0143104
:102AF8008B4225D014318B4224D014318B4224D1FF
:102B08004FF4005123E0022121E020211FE04FF47F
:102B180000711CE04FF4005119E04FF4003116E049
:102B28000000024008000240800002400004024009
:102B38004FF400110BE04FF0007108E0022106E0AD
:102B4800202104E04FF4007101E04FF400311142FC
:102B580014BF01220022002A00F0A4801A6812F093
:102B6800020F00F09F801A6812F0200F03D11A6834
:102B780022F002021A6023684B4A934243D9783AFA
:102B8800934221D01432934220D0143293421FD062
:102B9800143293421FD0143293421FD014329342FE
:102BA8001FD0143293421FD002F5627293421ED096
:102BB800143293421DD0143293421CD014329342E3
:102BC8001CD14FF400521BE0022219E0202217E02A
:102BD8004FF4007214E04FF4005211E04FF4003249
:102BE8000EE04FF400120BE04FF0007208E00222F2
:102BF80006E0202204E04FF4007201E04FF40032B6
:102C08002A4B5A6042E02A4A934221D01432934216
:102C180020D0143293421FD0143293421FD0143262
:102C280093421FD0143293421FD0143293421FD0C4
:102C380002F5627293421ED0143293421DD01432B0
:102C480093421CD0143293421CD14FF400521BE023
:102C5800022219E0202217E04FF4007214E04FF42A
:102C6800005211E04FF400320EE04FF400120BE076
:102C78004FF0007208E0022206E0202204E04FF440
:102C8800007201E04FF400320A4B5A60636B6363D1
:102C9800012384F82130002384F82030A36A0BB183
:102CA8002046984710BD00BF800002400004024043
:102CB800080002400000024010B50446FFF7C8FBB8
:102CC800064BA3FB00308009FEF7FEFA00222146DE
:102CD8004FF0FF30FEF7ACFA002010BDD34D621064
:102CE80008B5074A136843F0100313600320FEF782
:102CF8008DFA0020FFF7E0FF01F04AFC002008BD34
:102D080000200240024A136801331360704700BF75
:102D180020000020014B1868704700BF20000020E9
:102D280010B582B00190FFF7F5FF0446FFF7F2FFF8
:102D3800001B019B9842F9D302B010BD438D9BB292
:102D48002BB90268536823F4806353600AE0026871
:102D5800436A591C41621B781361438D9BB2013B46
:102D68009BB2438500207047438D9BB253B10268E4
:102D7800436A591C41621B781361438D9BB2013B26
:102D88009BB2438500207047438D9BB253B10268C4
:102D9800436A591C41621B781361438D9BB2013B06
:102DA8009BB2438500207047438D9BB253B1436A61
:102DB8005A1C4262026812691A70438D9BB2013B29
:102DC8009BB2438500207047438D9BB253B1436A41
:102DD8005A1C4262026812691A70438D9BB2013B09
:102DE8009BB243850020704782B003685A690192FC
:102DF8009B690193019B002002B07047704700BF98
:102E080008B501684A6822F4E0624A6001684A69C4
:102E180022F480624A6101680A6822F480620A60CA
:102E2800202280F83520FFF7E9FF002008BD00BF09
:102E3800704700BF00B583B001684A6822F4E062B9
:102E48004A6001684A6901920A6842F001020A6010
:102E58000192019A01680A6822F480620A602022BD
:102E680080F83520FFF7E4FF002003B05DF804FB8D
:102E7800704700BF08B5438D9BB25BB10268436AD7
:102E8800591C41621B781361438D9BB2013B9BB275
:102E9800438519E00268536823F4E06353600268CD
:102EA800136843F40073136090F83630DBB2402B9C
:102EB80005D1202380F83530FFF7DAFF04E020231E
:102EC80080F8353001F0D0F9002008BD704700BF08
:102ED80008B5438D9BB2032B0BD9436A5A1C426237
:102EE800026812691A70438D9BB2013B9BB24385FD
:102EF80028E0023B012B05D80268536823F480635D
:102F080053601FE00268536823F4E0635360436A28
:102F18005A1C4262026812691A70438D9BB2013BC7
:102F28009BB2438590F83630DBB2402B05D1202385
:102F380080F83530FFF7CAFF04E0202380F83530E9
:102F480001F09EF9002008BD08B5438D9BB2032B04
:102F580010D10268136823F480631360436A5A1C13
:102F68004262026812691A70438D9BB2013B9BB2A0
:102F780043853FE0438D9BB2022B30D102685368F2
:102F880023F4407353600268136843F400731360BA
:102F9800436A5A1C4262026812691A70438D9BB2D6
:102FA800013B9BB24385436A5A1C4262026812691C
:102FB8001A70438D9BB2013B9BB2438590F8363023
:102FC800DBB2402B05D1202380F83530FFF77EFF98
:102FD80010E0202380F8353001F052F90AE0436A06
:102FE8005A1C4262026812691A70438D9BB2013BF7
:102FF8009BB24385002008BD38B590F83630DBB267
:10300800102B04D090F83630DBB2402B36D1036851
:103018009A6912F0040F18D05C695A6802F480614A
:103028005A6902F004025B6803F4007314F0800F1D
:1030380004D019B112B9FFF781FE38BD002A62D059
:10304800002B60D0FFF716FF38BD5C695A6802F4A0
:1030580080615A6902F004025B6803F4007314F09B
:10306800400F04D019B112B9FFF732FF38BD002A5A
:1030780049D0002B47D0FFF767FF38BD03685D696B
:103088005A6802F40072596901F010019C6904F051
:10309800040415F0020F03D012B1FFF7A5FE38BDE6
:1030A80019B112B1FFF7C6FE38BDB4B15C695A68F0
:1030B80002F480615A6902F004025B6803F4007349
:1030C80014F0800F04D019B112B9FFF74DFE38BDC6
:1030D800CAB1C3B1FFF758FE38BD5C695A6802F43B
:1030E80080615A6902F004025B6803F4007314F00B
:1030F800400F04D019B112B9FFF756FE38BD12B10E
:103108000BB1FFF761FE38BD10B504460368596975
:103118005A6811F4807F0FD002F4807262B1826B1A
:1031280042F0010282635A6922F480725A6102688D
:10313800136843F400431360236859695A6802F41A
:10314800807211F4007F08D03AB1A26B42F00202FB
:10315800A2635A6922F400725A612268516953685D
:1031680003F4807311F4806F1ED0EBB194F83630FD
:10317800DBB2618D89B294F83500C0B2202B06D13C
:1031880029B9212803D12046FFF73AFE0CE0A36BAA
:1031980043F00403A363136843F4007313602268C5
:1031A800536923F480635361236859695A6802F4A8
:1031B800807211F4006F08D03AB1A26B42F0080295
:1031C800A2635A6922F400625A61A36B53B12023A7
:1031D80084F835302268136823F4006313602046AE
:1031E80001F05AF810BD00BFF0B583B0044603687B
:1031F80013F0010F6FD0474BDA6942F08052DA6161
:10320800DB6903F080530193019B434A136843F43D
:1032180080731360FFF77EFD054604E0FFF77AFD33
:10322800401B64286FD83C4B1B6813F4807FF5D093
:10323800384B1B6A13F4407346D0626802F440723C
:10324800934241D03348016A21F440764FF48033E9
:1032580093FAA3F2B2FA82F2304D012745F82270B0
:1032680093FAA3F3B3FA83F3002245F82320066206
:1032780011F0010F28D0FFF74DFD054606E0FFF7D6
:1032880049FD401B41F2883398423ED8022393FA05
:10329800A3F293FAA3F3B3FA83F35B0943F00203AF
:1032A800DBB2022B02D11B4B1A6A01E0194B5A6A96
:1032B800022393FAA3F3B3FA83F303F01F0322FA6A
:1032C80003F313F0010FDAD012490B6A23F44072AA
:1032D800636813430B62236813F0020F06D00D498D
:1032E8004B6823F44042A36813434B60236813F0F0
:1032F800100F0CD007494B6823F48002636913430D
:103308004B60002004E0032002E0032000E00020DE
:1033180003B0F0BD001002400070004000044242BB
:10332800704700BF68B310B504460368DA6812F046
:10333800010F03D0DB6813F0020F24D1637B13F075
:10334800FF0F04D1002323732046FFF7E9FF022370
:103358006373236845F255521A6021684B6823F05D
:103368000702636813434B6021688B6823F47F630B
:1033780023F00F03A26813438B60012363730020BB
:1033880010BD01207047012010BD00BF037B012B39
:103398000FD00223437303684CF6CC421A600368CB
:1033A8004AF6AA221A6001234373002303731846BE
:1033B80070470220704700BF38B5037B012B20D02F
:1033C80004460123037302234373FFF7A3FC054656
:1033D8000AE0FFF79FFC401BB0F57A7F04D9032071
:1033E80060730023237338BD2368DA6812F0020F74
:1033F800EFD14AF6AA221A600123637300202073D2
:1034080038BD022038BD00BF10B584B01D4B5A69C5
:1034180042F002025A615B6903F002030093009BC9
:10342800002211463B20FDF703FF3B20FDF732FF4A
:103438001548164B036000238360C36043614FF453
:103448006022C261436001230361FDF711FE08B1E8
:1034580000F0A8FF0A23019300230393012302939A
:1034680001A90948FDF7A4FB08B100F09BFF064C31
:103478002046FDF7B7FC012205492046FDF72EFD41
:1034880004B010BD0010024068000020003C01405C
:10349800280000200122014B9A7170472800002063
:1034A80010B584B0234B5A6942F001025A615B6936
:1034B80003F001030093009B022201210B20FDF77A
:1034C800B7FE0B20FDF7E6FE1B481C4B03604FF4CC
:1034D800807383600023C36043614FF46022C2613C
:1034E800436002230361FDF7C3FD08B100F05AFFF2
:1034F8000B2301930123029301A90F48FDF758FB01
:1035080008B100F04FFF0C2301930223029301A995
:103518000948FDF74DFB08B100F044FF064C204672
:10352800FDF760FC022206492046FDF7D7FC04B0EF
:1035380010BD00BF00100240980000200024014088
:10354800D00000200122014B9A717047D000002062
:1035580010B586B00F4B9A6942F008029A619B69D0
:1035680003F008030193019BE02302930A4B0393A2
:10357800032305930024049402A90848FDF7D0FE0C
:10358800224621461720FDF753FE1720FDF782FE3D
:1035980006B010BD0010024000003110000C0140C0
:1035A8004FF40002014B1A61704700BF0008014048
:1035B8008022014B1A617047000801404FF48032A5
:1035C800014B1A61704700BF000C01400122014BFA
:1035D8001A617047000C01404FF40032014B1A6128
:1035E800704700BF000C01400222014B1A6170476E
:1035F800000C0140034B1A68136A43F0010313627D
:10360800704700BF94010020044B1A68136A23F026
:1036180001031B041B0C1362704700BF94010020B8
:10362800034B1A68136A43F010031362704700BF14
:1036380094010020044B1A68136A23F010031B043A
:103648001B0C1362704700BF94010020034B1A68DB
:10365800136A43F480731362704700BF940100201B
:10366800044B1A68136A23F480731B041B0C13623F
:10367800704700BF94010020064B1B6803FB00F055
:10368800054BA3FB00308009044B1B685863986303
:10369800D8637047D0010020D34D621094010020F8
:1036A80010B50020FFF7E8FF104C0123A373FFF7C4
:1036B8007FFFFFF78BFFFFF797FFFFF7A5FFFFF7E8
:1036C800B9FFFFF7CDFF002211461720FDF7B0FD27
:1036D8001720FDF7EBFD064B20225A6140225A6164
:1036E80080225A6100232371637110BDD00100202C
:1036F800000401402DE9F04399B0644B9A6942F403
:1037080000529A619A6902F400520192019A604A41
:103718001268D2085F49A1FB0212120A013A5E4FF1
:103728003A609A6942F400529A619A6902F4005226
:103738000292029A9A6942F004029A619A6902F026
:1037480004020392039A9A6942F008029A619A69FC
:1037580002F008020492049A9A6942F010029A61EF
:103768009B6903F010030593059BFFF721FFFFF703
:103778002DFFFFF739FF012615964FF00308CDF806
:103788005C80169618AC802344F8103D21464348C7
:10379800FDF7C6FD1496DFF8149121464846FDF75B
:1037A800BFFD0225149521464846FDF7B9FD15953C
:1037B800CDF85C8016954FF4E07314932146384891
:1037C800FDF7AEFD374D384B2B6000246C603B682D
:1037D800EB602C61AC606C612846FDF7E5FF0C944A
:1037E8000B940A9408944FF4806307934FF4006392
:1037F80006932823099306A92846FDF7E1FC6023D0
:103808000D9311940F944FF00808CDF8408012944E
:1038180013940E9422460DA92846FEF719F80E9423
:1038280004220DA92846FEF713F80E9442460DA966
:103838002846FEF70DF821462846FEF785F80421AC
:103848002846FEF781F841462846FEF77DF80C2108
:103858002846FEF79BF82046FFF70EFFFFF7A8FE65
:10386800FFF7B4FEFFF7C0FEFFF7CEFEFFF7E2FE5C
:10387800FFF7F6FEBE73324621462E20FDF7D8FC30
:103888002E20FDF707FD19B0BDE8F08300100240B7
:103898000000002089B5F814D0010020000801407C
:1038A800001001409401002000340140000C014048
:1038B80008B5FFF71FFFFFF74BFE044B00221A71F4
:1038C8005A71DA801A81FFF7EBFE08BDD00100209B
:1038D80010B53E4B9B6803F0E0033D4CA381FFF716
:1038E80067FEFFF773FEFFF77FFEFFF78DFEFFF71A
:1038F800A1FEFFF7B5FEA37B13F0FF0F65D1A37AF6
:1039080013F0FF0F30D0A3899BB2602B16D004D8D8
:10391800202B09D0402B0CD024E0A02B18D0C02B92
:103928001BD0802B1ED10EE0FFF764FEFFF746FE8A
:1039380010BDFFF775FEFFF74FFE10BDFFF75AFEEB
:10394800FFF74AFE10BDFFF72BFEFFF77FFE10BD05
:10395800FFF734FEFFF77AFE10BDFFF721FEFFF7F1
:103968005FFE10BD00BF10BD194B9B899BB2602B39
:1039780016D004D8202B09D0402B0CD024E0A02B43
:1039880018D0C02B1BD0802B1ED10EE0FFF708FEED
:10399800FFF746FE10BDFFF711FEFFF757FE10BDFB
:1039A800FFF7FEFDFFF752FE10BDFFF723FEFFF7FE
:1039B80013FE10BDFFF734FEFFF70EFE10BDFFF734
:1039C80019FEFFF7FBFD10BD00BF10BD000C014044
:1039D800D001002038B50020FFF74EFE094D002425
:1039E8002C81EC80224621461720FDF721FC172068
:1039F800FDF750FC2046FFF73FFEAC73FFF768FF6A
:103A080038BD00BFD001002010B50446B0F57A7F5C
:103A180001DD4FF47A7414F57A7F00DA1B4C002C20
:103A28000DDA604280B204B2194B1B780BB9FFF76C
:103A380023FE0123174A9372154A13700BE0144BA7
:103A48001B78012B02D1A0B2FFF716FE0023114A02
:103A580093720F4A1370A4B2631D9BB20A2B05D848
:103A680001230C4A93730C4A13700AE00022094B95
:103A78009A73094B1B780BB1FFF72AFF0022064BFC
:103A88001A702046FFF7F8FD10BD00BF18FCFFFFB5
:103A980024000020D001002025000020024B012234
:103AA8001A715A71704700BFD001002008B51B4B2E
:103AB8005B7913F0FF0F0ED0184B1B7913F0FF0F33
:103AC80009D1FFF705FF154B002159711A8992B2E8
:103AD800DA8019810EE0114B5B7913F0FF0F09D0E2
:103AE8000E4B1B7913F0FF0F04D00C4A1379013BDE
:103AF800DBB21371094A13899BB201339BB213815C
:103B080013899BB241F28732934205D9034B41F2A4
:103B180088321A810022DA8008BD00BFD001002057
:103B28004FF00052014B1A61704700BF000C014072
:103B38004FF40052014B1A61704700BF000C01405E
:103B48004FF08042014B1A61704700BF000C0140E2
:103B58004FF48042014B1A61704700BF000C0140CE
:103B68004FF00042014B1A61704700BF000C014042
:103B78004FF40042014B1A61704700BF000C01402E
:103B880010B586B0104B9A6942F010029A619B6991
:103B980003F010030193019B4FF4E05302930B4B86
:103BA8000393032305930024049402A90848FDF70E
:103BB800B7FB224621462820FDF73AFB2820FDF7CF
:103BC80069FB06B010BD00BF0010024000003110B4
:103BD80000100140034B1A68136A43F00103136293
:103BE800704700BFF0010020044B1A68136A23F0E5
:103BF80001031B041B0C1362704700BFF001002077
:103C0800034B1A68136A43F010031362704700BF2E
:103C1800F0010020044B1A68136A23F010031B04F8
:103C28001B0C1362704700BFF0010020034B1A6899
:103C3800136A43F480731362704700BFF0010020D9
:103C4800044B1A68136A23F480731B041B0C136259
:103C5800704700BFF0010020064B1B6803FB00F013
:103C6800054BA3FB00308009044B1B68586398631D
:103C7800D8637047E0010020D34D6210F0010020A6
:103C880010B50020FFF7E8FF124C0123A373FFF7DC
:103C98004FFFFFF75DFFFFF76BFFFFF7A5FFFFF78C
:103CA800B9FFFFF7CDFF002211462820FDF7C0FA23
:103CB8002820FDF7FBFA084B4FF480525A614FF465
:103CC80000625A614FF480625A6100232371637164
:103CD80010BD00BFE0010020000401402DE9F041C3
:103CE80096B06A4B9A6942F400629A619A6902F442
:103CF80000620092009A664A1268D2086549A1FBE0
:103D08000212120A013A644F3A609A6942F4006258
:103D18009A619A6902F400620192019A9A6942F0E2
:103D280004029A619A6902F004020292029A9A695C
:103D380042F008029A619B6903F008030393039B0E
:103D4800FFF7F6FEFFF704FFFFF712FF01261396B1
:103D580014964FF00308CDF8548016AC4FF4005376
:103D680044F8103D4D4D21462846FDF7D9FA4FF449
:103D78008043129321462846FDF7D2FA4FF40043B8
:103D8800129321462846FDF7CBFA02231393149386
:103D9800CDF854804FF480731293A5F580652146C1
:103DA8002846FDF7BDFA4FF40073129321462846C2
:103DB800FDF7B6FA4FF48068CDF8488021462846CA
:103DC800FDF7AEFA364D374B2B6000246C603B682C
:103DD800EB602C61AC606C612846FDF7E5FC0A9449
:103DE800099408940694CDF814804FF40063049362
:103DF8002823079304A92846FDF7E2F960230B93CB
:103E08000F940D944FF00808CDF838801094119451
:103E18000C9422460BA92846FDF71AFD0C9404229F
:103E28000BA92846FDF714FD0C9442460BA9284619
:103E3800FDF70EFD21462846FDF786FD042128469C
:103E4800FDF782FD41462846FDF77EFD0C212846F8
:103E5800FDF79CFD2046FFF7FFFEFFF769FEFFF721
:103E680077FEFFF785FEFFF7BFFEFFF7D3FEFFF7EC
:103E7800E7FEBE73324621461B20FDF7D9F91B2009
:103E8800FDF708FA16B0BDE8F08100BF0010024047
:103E98000000002089B5F814E0010020000C014062
:103EA800F0010020002C014008B5FFF717FFFFF7CD
:103EB80067FE044B00221A715A71DA801A81FFF7E3
:103EC800DFFE08BDE001002010B5444B9B6803F4F9
:103ED800E053434CA381FFF72BFEFFF739FEFFF7B2
:103EE80047FEFFF781FEFFF795FEFFF7A9FEA37BCC
:103EF80013F0FF0F71D1A37A13F0FF0F36D0A38907
:103F08009BB2B3F5406F1BD006D8B3F5806F0DD0C8
:103F1800B3F5006F0FD027E0B3F5A05F1AD0B3F563
:103F2800C05F1CD0B3F5805F1ED10EE0FFF7F8FD2F
:103F3800FFF766FE10BDFFF703FEFFF777FE10BD23
:103F4800FFF7EEFDFFF772FE10BDFFF743FEFFF728
:103F580007FE10BDFFF754FEFFF702FE10BDFFF786
:103F680039FEFFF7EDFD10BD00BF10BD1C4B9B894E
:103F78009BB2B3F5406F1BD006D8B3F5806F0DD058
:103F8800B3F5006F0FD027E0B3F5A05F1AD0B3F5F3
:103F9800C05F1CD0B3F5805F1ED10EE0FFF71AFE9C
:103FA800FFF7CEFD10BDFFF72BFEFFF7D9FD10BDC3
:103FB800FFF710FEFFF7D4FD10BDFFF7B1FDFFF7C7
:103FC80035FE10BDFFF7BCFDFFF730FE10BDFFF753
:103FD800A7FDFFF715FE10BD00BF10BD0010014082
:103FE800E001002038B50020FFF736FE094D002417
:103FF8002C81EC80224621462820FDF719F928203B
:10400800FDF748F92046FFF727FEAC73FFF75CFF82
:1040180038BD00BFE001002010B50446B0F57A7F36
:1040280001DD4FF47A7414F57A7F00DA1B4C002C0A
:104038000DDA604280B204B2194B1B780BB9FFF756
:104048000BFE0123174A9372154A13700BE0144BA9
:104058001B78012B02D1A0B2FFF7FEFD0023114A05
:1040680093720F4A1370A4B2631D9BB20A2B05D832
:1040780001230C4A93730C4A13700AE00022094B7F
:104088009A73094B1B780BB1FFF71EFF0022064BF2
:104098001A702046FFF7E0FD10BD00BF18FCFFFFB7
:1040A80026000020E001002027000020024B01220A
:1040B8001A715A71704700BFE001002008B51B4B08
:1040C8005B7913F0FF0F0ED0184B1B7913F0FF0F1D
:1040D80009D1FFF7F9FE154B002159711A8992B2DF
:1040E800DA8019810EE0114B5B7913F0FF0F09D0CC
:1040F8000E4B1B7913F0FF0F04D00C4A1379013BC8
:10410800DBB21371094A13899BB201339BB2138145
:1041180013899BB241F28732934205D9034B41F28E
:1041280088321A810022DA8008BD00BFE001002031
:1041380010B586B00D4B9A6942F008029A619B69E6
:1041480003F008030193019B094C00220421204637
:10415800FDF7DCF90423029301230393022305935B
:1041680002A92046FDF7DCF806B010BD0010024099
:10417800000C014000B587B00B4B9A6942F004026D
:104188009A619B6903F004030193019B4FF48053E8
:104198000293002303930123049302A90348FDF724
:1041A800BFF807B05DF804FB0010024000080140AA
:1041B80008B5024604210248FDF7A8F908BD00BF6A
:1041C800000C014008B5024610210248FDF79EF98F
:1041D80008BD00BF0008014030B587B0124B9A698E
:1041E80042F004029A619B6903F004030193019B66
:1041F8000E4D002210212846FDF788F9102302935E
:10420800012403940223059302A92846FDF788F8A0
:104218000020FFF7D7FF2046FFF7D4FF0020FFF765
:10422800D1FF07B030BD00BF0010024000080140B8
:1042380010B500240FE00120FFF7C4FFA02000F014
:1042480073F80020FFF7BEFFA02000F06DF80548C6
:10425800FFF7B2F80134C72CEDDD0020FFF7B2FFFD
:1042680010BD00BFB40400200268034B9A4202D17B
:104278000122024B1A73704700580040580300206F
:104288000268034B9A4202D10122024B5A737047CB
:1042980000580040580300200268034B9A4202D19C
:1042A8000122024B9A7370470058004058030020BF
:1042B80010B582B0114BDA6942F00102DA61DB69AC
:1042C80003F001030193019B0D4C4FF080432360E1
:1042D8004FF6FF73E3600B4B1B680B4AA2FB0323EB
:1042E8009B0C013B636000232361A3602046FDF71C
:1042F8003FFA2046FDF7CCF902B010BD001002408D
:10430800180400200000002083DE1B4308B5044881
:10431800FDF7CCF9034AD36923F00103D36108BD43
:10432800180400200010024010B50446FFF7C0FF33
:104338004FF080435A6A4FF080435B6A9B1AA3424E
:10434800F9D9FFF7E3FF10BD70B50A4C00262670B7
:10435800FFF796FCFFF7A4F9FEF7DCFC064D686052
:10436800FEF7D8FC2861AE602E730023A361636258
:10437800A36270BD680400205404002010B50446F0
:104388000268064B9A4201D1FFF7DCF82268044B19
:104398009A4201D1FFF77EF810BD00BF002401400A
:1043A800003C014008B5FFF76BFCFFF779F9FEE721
:1043B80000B583B00E4BDA6942F40062DA61DB695A
:1043C80003F400630193019B0A480B4B036001232C
:1043D800436040F6FF738360FEF7A4FF08B1FFF760
:1043E800E1FF0448FEF7D2FF03B05DF804FB00BF0D
:1043F80000100240B40400200030004000B597B01F
:1044080002230C930122109210221192139300237D
:1044180014934FF4601315930CA8FDF7E7FB08B14C
:10442800FFF7C0FF0F230793022108910023099388
:104438004FF480620A920B9307A8FDF717FF08B1A3
:10444800FFF7B0FF022301934FF44043039301A801
:10445800FEF7CAFE08B1FFF7A5FFFDF7F9FF094B04
:10446800A3FB00308009FCF72FFF0420FCF742FF74
:10447800002211464FF0FF30FCF7DAFE17B05DF866
:1044880004FB00BFD34D6210F8B5FEF729FCFFF717
:10449800B5FFFFF78DFFFFF70BFFFFF79DFEFFF757
:1044A80047FEFFF767FEFEF7AFFFFEF7F9FFFFF7DE
:1044B800FFF9FFF7F9FC0120FFF77AFEFFF7B8FED6
:1044C8004FF4AF70FEF72CFC0020FFF771FEFFF7EA
:1044D8003BFFFFF787FDFFF77DFA002540F6CA048A
:1044E80001342046FBF7ECFF0022234BFCF788F948
:1044F8001FA3D3E90023FCF759F806460F4600F03E
:104508008DF900221D4BFCF751F8FCF7E9FA00B2CF
:10451800FFF77AFA3046394600F038F90022174B8F
:10452800FCF744F8FCF7DCFA404200B2FFF774FDF0
:10453800FEF7F0FB124B1860124BA3FB04235B0B36
:1045480042F2283202FB134333B985F001052846AD
:10455800FFF72EFEFFF76CFE0B48FEF72DFFFEF768
:10456800D9FB074B1B68C01A084B1860B8E700BF97
:1045780012E7FAA146DF913F0000494000407F4022
:10458800B0040020D55204E9B4040020C40400207B
:1045980000B583B01C4B9A6942F001029A619B698D
:1045A80003F001030193019B0320FCF72FFE002277
:1045B80011466FF00B00FCF73BFE002211466FF02E
:1045C8000A00FCF735FE002211466FF00900FCF7DF
:1045D8002FFE002211466FF00400FCF729FE00228E
:1045E80011466FF00300FCF723FE002211466FF01E
:1045F8000100FCF71DFE002211464FF0FF30FCF7CA
:1046080017FE03B05DF804FB0010024010B586B039
:10461800044603682F4A93422BD12F4B9A6942F4E0
:1046280000729A619B6903F400730093009B062350
:1046380002930323039302A92848FCF771FE284834
:10464800284B03600023436083608022C2604FF4DC
:10465800807202614FF48062426120228261C361EC
:10466800FDF70EFF08B1FFF79DFE1D4B23625C624C
:104678002DE01D4A93422AD1174B9A6942F4004211
:104688009A619B6903F400430193019B0123029300
:104698000323039302A91148FCF742FE1348144B65
:1046A80003600023436083608022C2604FF48072FD
:1046B80002614FF48062426120228261C361FDF78A
:1046C800DFFE08B1FFF76EFE084B23625C6206B09E
:1046D80010BD00BF0024014000100240001001403E
:1046E800D800002008000240003C014030000020B3
:1046F80058040240002103E00B4B5B58435004313F
:104708000A480B4B42189A42F6D30A4A02E00023A1
:1047180042F8043B084B9A42F9D3FCF7FDFE00F03F
:104728000FF8FFF7B1FE7047C05C000800000020DA
:104738000400002004000020C8040020FEE7000058
:104748000E4B70B51E460E4C0025E41AA410A54267
:1047580004D056F8253098470135F8E701F09AF962
:10476800084B094C1E46E41AA4100025A54204D0A3
:1047780056F8253098470135F8E770BDB85C000851
:10478800B85C0008B85C0008BC5C000830B5214A79
:1047980021F00043934287B01BDD1F4A934205DD99
:1047A80002460B46FBF74EFD07B030BD02AA00F0EB
:1047B8007FF800F0030001281AD002280FD008B3B0
:1047C800DDE9020101230093DDE9042300F0A4FFE1
:1047D800EAE70022002300F083FA07B030BDDDE9E4
:1047E8000423DDE9020100F07BFA01F10041DBE777
:1047F8000090DDE90423DDE9020100F08DFF01F1FD
:104808000041D1E7DDE90423DDE9020100F068FA9F
:10481800CAE700BFFB21E93FFFFFEF7F30B5214A20
:1048280021F00043934287B01BDD1F4A934205DD08
:1048380002460B46FBF706FD07B030BD02AA00F0A2
:1048480037F800F0030001281ED0022811D0DDE956
:10485800042300B3DDE9020100F042FA01F100414E
:10486800EAE7002300930022002300F055FF07B079
:1048780030BD01230093DDE90201DDE9042300F0E6
:104888004BFF01F10041D7E7DDE90423DDE902012F
:1048980000F026FAD0E70124DDE90201009400F0D7
:1048A8003BFFC9E7FB21E93FFFFFEF7F0000000066
:1048B8002DE9F04F944C21F00047A7428FB040F308
:1048C80081801446914A0E46974226DC84A3D3E998
:1048D8000023002940F3A081FBF7B4FC8C4B8046F1
:1048E8009F42894600F083807FA3D3E90023FBF72A
:1048F800A9FC02460B464046C4E900234946FBF79B
:10490800A1FC79A3D3E90023FBF79CFC0125C4E9AA
:10491800020128460FB0BDE8F08F7E4A974240F367
:1049280083807D4A974258DC3D15A5F21645A7EBD2
:1049380005518B468246FCF7D3F8FBF7D1FD80463C
:10494800894642464B4650465946CDE90889FBF709
:1049580079FC0022714BFBF729FE8B468246FCF757
:10496800BFF8FBF7BDFD8046894642464B46504698
:104978005946CDE90A89FBF765FC0022674BFBF72E
:1049880015FE00220023CDE90C01FCF777F800287A
:1049980000F06A810023404649460022FCF76EF881
:1049A800002814BF012302235D48022101900091D1
:1049B8002A46214608A800F0B7FA002EC0F24A811C
:1049C800054606E0C2E9000100250024C2E90245C7
:1049D800002528460FB0BDE8F08F02460B46FBF7CE
:1049E80031FC0025C4E90201C4E90001F1E740A354
:1049F800D3E90023FBF726FC3FA3D3E900230646AF
:104A08000F46FBF71FFC02460B463046C4E900235D
:104A18003946FBF717FC38A3D3E90023FBF712FC50
:104A28000125C4E90201D4E700F02CFF34A3D3E93F
:104A3800002380468946FBF7B9FD0022394BFBF776
:104A480003FCFCF74DF80546FBF74AFD24A3D3E920
:104A58000023CDE90401FBF7A9FD02460B464046B9
:104A68004946FBF7EFFB20A3D3E9002382468B4698
:104A7800DDE90401FBF79AFD1F2DCDE9020155DCA4
:104A8800294B6A1E53F822309F424FD002460B46EC
:104A980050465946FBF7D6FB02460B4681468846E8
:104AA800C4E900234A46434650465946FBF7CAFB29
:104AB800DDE90223FBF7C6FB02460B46002EC4E9DC
:104AC800022386DA4A4608F1004301F1004184E8EE
:104AD8000C00E160A0606D427BE700BFAFF300808F
:104AE80000004054FB21F93F3163621A61B4D03DA4
:104AF8000000601A61B4D03D7370032E8A19A33B7D
:104B080083C8C96D305FE43FFB21E93F7BD9024090
:104B1800FB21F93FFB213941FFFFEF7F0000704186
:104B28005C5B00080000E03FDC5A0008DDE9022376
:104B380050465946FBF786FB3F15C1F30A53FB1A4B
:104B4800102B81468846C4E90001ABDD58A3D3E9A0
:104B58000023DDE90401FBF729FD8046894602466A
:104B68000B4650465946FBF76DFBCDE90601024658
:104B78000B4650465946FBF765FB42464B46FBF74A
:104B880061FB4DA3D3E9002380468946DDE9040192
:104B9800FBF70CFD42464B46FBF754FB02460B461F
:104BA800CDE90201DDE90601FBF74CFB0B460246A5
:104BB8008846C1F30A517F1A312F8146C4E9002380
:104BC80072DD3FA3D3E90023DDE90401FBF7EEFC26
:104BD8008046894602460B46DDE90601FBF732FBB3
:104BE80002460B4682468B46DDE90601FBF72AFBA7
:104BF80042464B46FBF726FB33A3D3E90023804606
:104C08008946DDE90401FBF7D1FC42464B46FBF738
:104C180019FBCDE9020139E7FBF716FB2E4B80465D
:104C28009F42894622D02AA3D3E90023FBF70CFB35
:104C380002460B464046C4E900234946FBF702FBFF
:104C480023A3D3E90023FBF7FFFA4FF0FF35C4E9AC
:104C58000201BEE66268E36802F1004203F1004324
:104C680045426260E360B4E603239DE610A3D3E9FE
:104C78000023FBF7E9FA10A3D3E9002306460F4601
:104C8800FBF7E2FA02460B463046C4E900233946F0
:104C9800FBF7D8FA08A3D3E90023FBF7D5FA4FF0BE
:104CA800FF35C4E9020194E6DDE906ABFAE600BF88
:104CB8000000601A61B4D03D7370032E8A19A33BBB
:104CC8000000002E8A19A33BC14920259A837B390D
:104CD8003163621A61B4D03DFB21F93F0000000046
:104CE8002DE9F04F21F00046B6F1795F85B00C460A
:104CF80092469B4605466BDAFBF7F2FE002800F069
:104D0800E7802A46234628462146FBF74FFC74A332
:104D1800D3E9002380468946FBF748FC72A3D3E910
:104D28000023FBF791FA42464B46FBF73FFC70A382
:104D3800D3E90023FBF786FA42464B46FBF736FCDD
:104D48006DA3D3E90023FBF77FFA42464B46FBF7F6
:104D58002DFC6BA3D3E90023FBF774FA42464B46BC
:104D6800FBF724FC68A3D3E90023FBF76DFA42465E
:104D78004B46FBF71BFCCDE900010022644B404683
:104D88004946FBF713FCDDE9002306460F4640467B
:104D98004946FBF70BFC5246804689465B46284647
:104DA8002146FBF703FC02460B4640464946FBF703
:104DB80049FA02460B4630463946FBF743FA0246A3
:104DC8000B4600205349FBF73DFA05B0BDE8F08FCC
:104DD80002460B46FBF7EAFB41A3D3E900238046D2
:104DE8008946FBF7E3FB40A3D3E90023FBF72CFA42
:104DF80042464B46FBF7DAFB3DA3D3E90023FBF71A
:104E080021FA42464B46FBF7D1FB3BA3D3E90023EB
:104E1800FBF71AFA42464B46FBF7C8FB38A3D3E91F
:104E28000023FBF70FFA42464B46FBF7BFFB36A3BE
:104E3800D3E90023FBF708FA4B464246FBF7B6FBDB
:104E4800354BCDE900019E4297DD344B00229E424E
:104E580038DCA6F5001300202E4916461F46FBF73E
:104E6800F1F9CDE902010022294B40464946FBF7FA
:104E78009DFB32463B46FBF7E5F9DDE90023064694
:104E88000F4640464946FBF791FB52468046894605
:104E98005B4628462146FBF789FB02460B464046FF
:104EA8004946FBF7CFF902460B4630463946FBF731
:104EB800C9F902460B46DDE90201FBF7C3F905B063
:104EC800BDE8F08F164B0026CDE90223154FCAE73F
:104ED8001049002005B0BDE8F08F00BFAFF3008097
:104EE800D43888BEE9FAA8BDC4B1B4BD9EEE213E4F
:104EF800AD529C804F7E923E9015CB19A001FA3E90
:104F08007751C1166CC1563F4C5555555555A53F5F
:104F18000000E03F0000F03F3233D33F0000E93F9C
:104F28000000E73F0000D23F2DE9F04F794CADF586
:104F38001D7D1F460B93D31E84FB0354DB17C3EB65
:104F4800A403A69E744C23EAE37554F826406B1C10
:104F580026460994A3EB83037C1E0D95029402EB6D
:104F6800C3032D1B341904900A91089316D42C44BA
:104F7800013422AEA79F08E057F82500FBF7B0FAE6
:104F88000135A542E6E9020108D0002DF4DA013521
:104F980000200021A542E6E90201F6D1099B002B79
:104FA8002FDB099B74AADDF8089002EBC30B0DF503
:104FB800E47A029B002BC0F295810B9B0026C3EB81
:104FC800090824AB03EBC808049B0027A3F10805D4
:104FD80024AB03EBC904F5E9022374E80201FBF7EB
:104FE800E5FA02460B4630463946FBF72DF94445AB
:104FF80006460F46EFD1EAE90267DA4509F10109E9
:10500800D7D1099B10A91D4603F18043023B9B00A1
:105018001A1D0A440B440F920E939CAB03EBC50375
:10502800002D53E928672BDD9CAB03EBC504A83C96
:105038000DF13C0A0DF5E47B0022384B3046394629
:10504800FBF7B4FAFBF74CFDFBF74AFA0022344BA6
:1050580080468946FBF7AAFA02460B46304639468F
:10506800FBF7F0F8FBF73CFD74E802234AF8040F5D
:1050780049464046FBF7E8F85C4506460F46DBD153
:10508800089C30463946224600F08AFC00224FF040
:105098007F5306460F46FBF789FA00F0F9FB00221A
:1050A800204BFBF783FA02460B4630463946FBF79E
:1050B800C9F80F460646FBF713FD8146FBF710FAC1
:1050C80002460B4630463946FBF7BCF8002C06462C
:1050D8000F4640F3EE80681E10AB53F82030C4F141
:1050E800180243FA02F101FA02F29B1AC4F11708F6
:1050F80010AA42F82030894443FA08F8B8F1000FA2
:105108003DDD002D09F1010940F3D3820022144648
:105118000FA911E0ABAAAA2A645C00080000703E3F
:105128000000704100002040C3F180700BB108609E
:105138000124013295420DDD51F8043F002CF3D0D3
:10514800C3F1FF13013203F57F4395420B604FF023
:105158000104F1DC089B002B0DDD012B00F0B18070
:10516800022B08D16A1E10AB53F8223010A9C3F3E2
:10517800150341F82230B8F1020F00F081800022B7
:10518800002330463946FBF779FC002800F05B82A3
:10519800099B05F1FF3B5B4510DC05F1804310AA34
:1051A800013B0F9802EB8303002253F80419834252
:1051B80042EA0102F9D1002A40F0B180099B10AA05
:1051C800013B52F82330002B40F071820E9A0123E4
:1051D80052F8041901330029FAD0E9186A1C8A42E6
:1051E8000C914BDC0D990B985118DB0001F18041B3
:1051F8000593A79B05440139E80003EB810A24AB1A
:10520800D20003EB000B74AB13440193A2F1080323
:10521800069007934FF000095AF8040FFBF760F95E
:10522800029BEBE80201002B4FF000064FF000074D
:105238001BDB069B03EB0904079B09EB030824AB64
:105248001C449844049BA3F10805F5E9022374E87B
:105258000201FBF7ABF902460B4630463946FAF72E
:10526800F3FF444506460F46EFD1019B09F10809B3
:10527800E3E802670193059B9945CDD10C9DCCE6E7
:1052880032463B460020B049FAF7DCFF06460F4697
:10529800002C3FF474AF089A0020AB4900F080FB63
:1052A80002460B4630463946FAF7CCFF06460F460B
:1052B80065E710D16B1E10AA52F823304FEAE35865
:1052C8001CE76A1E10AB53F8223010A9C3F316036B
:1052D80041F822304FE700229C4BFBF7EDFB58B911
:1052E80080464CE700260027EAE90267DA4509F11B
:1052F80001097FF45EAE84E6002D09F10109C8BFFB
:105308004FF002083FF702AF32463B4600208E4975
:10531800FAF798FF4FF0020806460F462FE7089A5B
:1053280010AB53F82B30183ACDF81490CDF8048010
:1053380008926BB90BF18043013B10A901EB830381
:1053480053F804190BF1FF3B183A0029F8D00892DA
:10535800089A00207C4900F023FBBBF1000F0446AB
:105368000D46C0F2B6814FEACB030DF5E87810AAD6
:1053780002EB8B0608EB03090493043609F10807CE
:1053880056F8040DFBF7ACF822462B46FBF70EF94E
:10539800002267E902016E4B20462946FBF706F911
:1053A800B84504460D46EBD14B46CDF818B09B46A0
:1053B8000DF5987ACDF808A0DDF824A04FF0000983
:1053C800BAF1000FC0F226815DA3D3E90023DFF80C
:1053D80084815D4600260027002403E0A14510DBF8
:1053E800F8E90223F5E80201FBF7E0F802460B466C
:1053F80030463946FAF728FF0134A24506460F46DB
:10540800ECDA029BABF1080B03EBC903C3E90067B5
:1054180072AB5B4509F10109D2D1A69BDDF818B042
:10542800DDF808A0032B00F28380DFE813F0D10039
:10543800950095000400BBF1000F40F35481049BD4
:10544800CDF808B053449846D3E90067D34658E9E5
:10545800029A32463B4648465146FAF7F5FE04465C
:105468000D4602460B4648465146FAF7EBFE3246D1
:105478003B46FAF7E9FEC8E9000168E90245C34579
:1054880026462F46E3D1DA46DDF808B0BBF1010F16
:1054980040F32981049B0DF59C7B53449846D3E93E
:1054A8000067994659E902343046CDE902341A4674
:1054B80039462346FAF7C8FE04460D4602460B460F
:1054C800DDE90201FAF7BEFE32463B46FAF7BCFEBA
:1054D800C9E9000169E90245CB4526462F46E1D1D5
:1054E80000231D4608F1080850AC184678E9022345
:1054F8002946FAF7A9FE444503460D46F5D1019A17
:10550800002A00F0D880DAF80440DAF80C200A9F64
:10551800DAF80010DAF8080005F1004504F1004453
:1055280002F100427D613B617C60FA603960B860DD
:10553800059B03F007000DF51D7DBDE8F08F00BF4A
:1055480000000040FB21F93F0000F03F0000E03F71
:105558000000703E785C000800242146049D083550
:10556800554475E902232046FAF76EFE5545044670
:10557800F7D1019B002B50D00A9F01F100450B4643
:10558800DAE9000187E830002246FAF75BFEBBF152
:10559800000F03460D460DDD01241846FAE90223E3
:1055A8002946FAF751FE0134A34503460D46F4DABD
:1055B800019A0AB105F10045184629460A9BC3E934
:1055C8000201059B03F007000DF51D7DBDE8F08F76
:1055D80000231C46049A0832924418467AE90223AA
:1055E8002146FAF731FE0BF1FF3BBBF1FF3F0346C3
:1055F8000C46F2D1019A0AB104F10044184621463A
:105608000A9BC3E90001059B03F007000DF51D7D0A
:10561800BDE8F08F00260027F3E626460F4622460F
:105628000A9C0B46DAE90001C4E90067FAF70AFEAA
:10563800BBF1000F03460D46AEDC184629460A9B0F
:10564800C3E90201BDE7089B30465A423946CDF806
:105658001490CDF8048000F0A3F900222C4B0646E4
:105668000F46FBF729FA002840D00022294B304684
:105678003946FAF79BFFFBF733FA0446FAF730FF8F
:105688000022234BFAF792FF0B4602463946304672
:10569800FAF7D8FDFBF724FA089B05F1010B18333C
:1056A800089310AB43F8250043F82B4050E601233C
:1056B80093E500244EE51846DAE90067DAE90223A3
:1056C80029460A9DC5E90067C5E90401C5E9022321
:1056D8002EE7A69B032B3FF62BAFDFE803F0151050
:1056E80010020DF5987A00231D4608E73046394622
:1056F800FBF7F6F910ABAB4643F8250028E6002483
:1057080021460DF5987A34E700231C4672E700BF5E
:10571800000070410000703E2DE9F04F21F0004676
:10572800B6F1795F85B00C4690469946054604DA8D
:10573800FBF7D6F9002800F085802A46234628463C
:105748002146FAF733FF06460F4602460B4628461F
:105758002146FAF72BFF3EA3D3E9002382468B4666
:1057680030463946FAF722FF3BA3D3E90023FAF77C
:1057780069FD32463B46FAF719FF39A3D3E90023FE
:10578800FAF762FD32463B46FAF710FF36A3D3E933
:105798000023FAF757FD32463B46FAF707FF34A3D2
:1057A800D3E90023FAF750FD0E9BCDE900019BB326
:1057B8000022334B40464946FAF7F8FEDDE900235C
:1057C800CDE9020150465946FAF7F0FE02460B466B
:1057D800DDE90201FAF736FD32463B46FAF7E6FE06
:1057E80042464B46FAF72EFD23A3D3E9002306468B
:1057F8000F4650465946FAF7D9FE02460B46304640
:105808003946FAF721FD02460B4628462146FAF7A3
:1058180019FD05B0BDE8F08F02460B463046394603
:10582800FAF7C4FE14A3D3E90023FAF70BFD524696
:105838005B46FAF7BBFE2A462346FAF705FD05B094
:10584800BDE8F08F2846214605B0BDE8F08F00BFBF
:105858007CD5CF5A3AD9E53DEB9C2B8AE6E55A3EF2
:105868007DFEB157E31DC73ED561C119A0012A3F8E
:10587800A6F810111111813F495555555555C53F89
:105888000000E03F21F00041704700BF0000000029
:10589800C1F30A522DE9F843A2F2FF36132E0B4644
:1058A80004460D46884607461CDC002E3FDB3A4A74
:1058B800864642FA06F901EA0902024317D034A3E0
:1058C800D3E90023FAF7C0FC00220023FBF7FEF817
:1058D80020B1002D40DB28EA090500273846294673
:1058E800BDE8F883332E06DDB6F5806F2FD020464D
:1058F8001946BDE8F883A2F213424FF0FF3929FA9E
:1059080002F910EA090FF2D021A3D3E90023FAF72C
:105918009BFC00220023FBF7D9F80028DED0002DDD
:1059280020DB454627EA090738462946D8E718A361
:10593800D3E90023FAF788FC00220023FBF7C6F816
:105948000028CBD0002D18DB00273D46C6E70246CD
:105958000B46FAF779FCCCE74FF4801343FA06F6C6
:10596800B044B8E7142E10D00123C6F1340603FA68
:1059780006F6371928BF9844D3E725F00042074BAD
:10598800224318BF1D460027A8E705F10108C8E70C
:105998009C7500883CE4377EFFFF0F000000F0BFD5
:1059A800F8B5C1F30A5604460D460B46174606BB22
:1059B80021F00043034325D000222F4BFAF7F6FDD0
:1059C8002E4A044697420D460B462ADBC1F30A5677
:1059D800363E40F2FE723E44964228DC002E12DD2E
:1059E80023F0FF4323F4E00343EA06552046294603
:1059F800F8BD40F2FF729642EBD102460B46FAF729
:105A080023FCF8BDF8BD16F1350F1DDA4CF2503302
:105A18009F420CDC14A1D1E9000122462B4600F07C
:105A280031F811A3D3E90023FAF7C0FDF8BD2246E7
:105A38000FA1D1E900012B4600F024F80CA3D3E90B
:105A48000023FAF7B3FDF8BD23F0FF4323F4E00386
:105A5800363643EA0655204629460022084BFAF70F
:105A6800A5FDF8BDAFF3008059F3F8C21F6EA5017C
:105A78009C7500883CE4377E00005043B03CFFFF33
:105A88000000903C03F0004321F0004242EA030189
:105A9800704700BFF8B500BFF8BC08BC9E46704709
:0C5AA800F8B500BFF8BC08BC9E46704773
:105AB80002030405060708090A0B0C0D0E0F101047
:105AC80001020000000000000000000001020304C1
