:020000040800F2
:1000000000C00020ED430008351100083D11000834
:100010004911000855110008611100080000000096
:100020000000000000000000000000006D1100084A
:100030007511000800000000791100088111000806
:1000400035440008354400083544000835440008AC
:10005000354400083544000835440008354400089C
:10006000354400083544000835440008BD12000836
:10007000BD110008AD1100083544000835440008E2
:10008000354400083544000835440008354400086C
:100090003544000835440008354400081D120008A6
:1000A000354400083544000835440008551200085E
:1000B00035440008DD120008354400088D110008A1
:1000C0009D11000835440008CD1100083544000892
:1000D000354400083544000835440008354400081C
:1000E000DD11000835440008354400083544000897
:1000F00035440008354400088912000835440008DA
:1001000035440008354400083544000835440008EB
:1001100035440008354400083544000835440008DB
:10012000354400083544000835440008CD12000865
:1001300000000000000000000000000000000000BF
:1001400000000000000000000000000000000000AF
:10015000000000000000000000000000000000009F
:10016000000000000000000000000000000000008F
:10017000000000000000000000000000000000007F
:10018000000000000000000000000000000000006F
:10019000000000000000000000000000000000005F
:1001A000000000000000000000000000000000004F
:1001B000000000000000000000000000000000003F
:1001C000000000000000000000000000000000002F
:1001D000000000000000000000000000000000001F
:0401E0005FF8E0F1F3
:1001E40010B5054C237833B9044B13B10448AFF36D
:1001F40000800123237010BD68000020000000006F
:100204000C4D0008084B10B51BB108490848AFF362
:1002140000800848036803B910BD074B002BFBD0CE
:10022400BDE81040184700BF000000006C0000202B
:100234000C4D00086800002000000000034613F87D
:10024400012B002AFBD1181A0138704708B5436AFC
:100254009A6A12F0500F1CD19A6A42F400729A62A0
:100264001A68926802F46022B2F5602F0DD1DA6840
:100274005AB99A6A22F480729A629A6A12F4805F76
:1002840003D19A6A42F001029A62184603F08AFE88
:1002940008BD1B6A1B6B984708BD00BF704700BFB1
:1002A40008B5406AFFF7FAFF08BD00BF704700BFFA
:1002B40008B5406A836A43F040038362C36A43F02B
:1002C4000403C362FFF7F2FF08BD00BFF0B482B0BD
:1002D4000023019390F82430012B00F0C780012300
:1002E40080F824304B68062B1BD80668756B4FF4D6
:1002F400787292FAA2F4B4FA84F4013B03FB04F496
:100304001F2707FA04F425EA04040D6892FAA2F2FE
:10031400B2FA82F203FB02F205FA02F2224372639A
:1003240037E00C2B1AD80668376B4FF4787292FAC0
:10033400A2F5B5FA85F5073B03FB05F51F2404FA7E
:1003440005F527EA05050C6892FAA2F2B2FA82F2E0
:1003540003FB02F39C402C4334631AE00668F46AFE
:100364004FF4787292FAA2F5B5FA85F50D3B03FBCA
:1003740005F51F2707FA05F524EA05050C6892FA26
:10038400A2F2B2FA82F203FB02F304FA03F32B4360
:10039400F3620D68092D1BD90668F768382292FAB2
:1003A400A2F4B4FA84F4A5F10A0303FB04F40725C8
:1003B40005FA04F427EA04048D6892FAA2F2B2FA68
:1003C40082F203FB02F305FA03F22243F26018E01F
:1003D40007683E69382292FAA2F4B4FA84F405FB61
:1003E40004F4072303FA04F426EA04048E6892FA58
:1003F400A2F2B2FA82F205FB02F306FA03F32343F4
:100404003B610B68103B012B26D80368194A9342C1
:100414001CD19A6812F4000F20D19A6842F40002A9
:100424009A600B68102B1BD1134B1B68134AA2FB59
:1004340003239B0C03EB83035A00019202E0019B0C
:10044400013B0193019B002BF9D10AE0836A43F03D
:1004540020038362012304E0002302E0002300E080
:100464000023002280F82420184600E0022002B075
:10047400F0BC7047002401400000002083DE1B43D1
:1004840030B583B00023019303689A6812F0010F1A
:100494002FD19A6842F001029A60174B1B68174AE1
:1004A400A2FB03239B0C019302E0019B013B0193FC
:1004B400019B002BF9D1044602F0E2F9054611E054
:1004C40002F0DEF9401B02280CD9A36A43F01003A2
:1004D400A362E36A43F00103E362002384F8243057
:1004E400012007E023689B6813F0010FE8D0002087
:1004F40000E0002003B030BD0000002083DE1B4379
:1005040090F82430012B71D010B50446012380F8F3
:100514002430FFF7B5FF0346002863D1A26A22F412
:10052400407222F0010242F48072A26222683049D1
:100534008A4205D1A1F58061496811F4702F0ED16A
:10054400A16A21F48011A162516811F4806F1CD05A
:10055400A16A21F4405141F48051A16215E0A16ADD
:1005640041F48011A16223498A4203D001F58061DC
:100574008A420AD11F49496811F4806F05D0A16AE3
:1005840021F4405141F48051A162A16A11F4805FC9
:1005940004D0E16A21F00601E16201E00021E16298
:1005A400002184F824106FF0020111602268916820
:1005B40001F46021B1F5602F0ED10D498A4205D1B5
:1005C400A1F58061496811F4702F05D1916841F457
:1005D400A0019160184610BD916841F480119160AA
:1005E400184610BD002284F8242010BD0220704754
:1005F4000028014000240140F8B504684A4DAC428B
:1006040003D005F58065AC4205D1474B5B6813F414
:10061400702F40F0858090F82440012C00F08280F7
:1006240017460E460446012380F82430FFF728FFBE
:100634000546002870D1A36A23F4706323F00103F4
:1006440043F48073A3622268384B9A4205D1A3F520
:1006540080635B6813F4702F0ED1A36A23F48013B4
:10066400A362536813F4806F1CD0A36A23F440532D
:1006740043F48053A36215E0A36A43F48013A36296
:10068400294B9A4203D003F580639A420AD1264B40
:100694005B6813F4806F05D0A36A23F4405343F4DA
:1006A4008053A362A36A13F4805F04D0E36A23F047
:1006B4000603E36201E00023E362002384F82430AC
:1006C400236A1B4A9A62236A1A4ADA62236A1A4A1A
:1006D4001A6323686FF002021A602268936843F475
:1006E4008073936021683B4632464C31206A01F0A6
:1006F4009FFA2268936803F46023B3F5602F05D151
:10070400936843F4A00393602846F8BD936843F4C8
:10071400801393602846F8BD002384F82430F8BD84
:100724000120F8BD0220F8BD00240140002801404A
:1007340051020008A5020008B502000838B5036894
:100744009A6812F0010F1ED004469A6822F0010242
:100754009A6002F095F805460EE002F091F8401B0D
:10076400022809D9A36A43F01003A362E36A43F0A1
:100774000103E362012038BD23689B6813F0010F75
:10078400EBD1002038BD002038BD00BF002800F0A8
:100794009D8070B50446836A23B9C36280F824300F
:1007A40003F032FD2046FFF7C9FFA36A13F0100FD0
:1007B40040F08680002840F08380A36A23F48853A5
:1007C40023F0020343F00203A36263682168404AF2
:1007D400914206D1E269B2F5402F03D14FF40022D1
:1007E40000E0E2691A43E568022393FAA3F3B3FA3B
:1007F40083F305FA03F31343A268B2F5807F04D0B0
:10080400012A05D14FF4807603E04FF4807600E0AE
:1008140000266269012A15D165B9A269013A4FF42B
:10082400604595FAA5F5B5FA85F5AA4042F400624B
:10083400164307E0A26A42F02002A262E26A42F092
:100844000102E2624A6822F4694232434A60216842
:100854008D68204A2A401A438A60A268B2F5807FD4
:1008640001D0012A0AD12269013A4FF4700191FAA8
:10087400A1F1B1FA81F102FA01F100E00021256849
:10088400EA6A22F470020A43EA6222689168124A10
:100894000A40934208D10023E362A36A23F00303CE
:1008A40043F00103A36270BDA36A23F0120343F073
:1008B4001003A362E36A43F00103E362012070BD05
:1008C400A36A43F01003A362012070BD01207047A6
:1008D400003C0140FDF7E1FFFE0E1FFF90F83830A9
:1008E400012B1CD030B4012580F83850022380F845
:1008F400393004680A684B681A438B681A43CB681A
:100904001A430B691A434B691A438B691343636493
:1009140080F83950002380F83830184601E002206E
:10092400704730BC704700BF074AD36823F4E063C4
:100934001B041B0C000200F4E060184340F0BF608D
:1009440040F40030D060704700ED00E030B4164B46
:10095400DB68C3F30223C3F10704042C28BF042477
:100964001D1D062D01D9DD1E00E00025012303FA1B
:1009740004F4013C2140A940AB40013B1A400A4326
:10098400002806DA00F00F001201D2B2074B1A5405
:1009940007E01201D2B200F1604000F5614080F836
:1009A400002330BC704700BF00ED00E014ED00E010
:1009B400420900F01F00012303FA00F0014B43F841
:1009C4002200704700E100E0430900F01F0001220B
:1009D40002FA00F02033024A42F82300704700BFB5
:1009E40000E100E00138B0F1807F0AD2064B586084
:1009F400F021064A82F823100020986007221A602A
:100A040070470120704700BF10E000E000ED00E0F7
:100A1400042805D1054A136843F0040313607047A2
:100A2400024A136823F004031360704710E000E0E7
:100A3400704700BF08B5FFF7FBFF08BDF0B583B0F2
:100A440000263446DFE00122A2400B6813409A429C
:100A540040F0D8804D68122D2DD00BD8022D27D010
:100A640003D85DB3012D1ED035E0032D30D0112DF8
:100A74001BD030E0664FBD4220D008D8A7F58017C0
:100A8400BD421BD007F58037BD4224D116E0614F2B
:100A9400BD4213D007F58037BD420FD0A7F58017AC
:100AA400BD4218D10AE0CE6815E0CE68043612E0E3
:100AB400CE6808360FE0CE680C360CE08D684DB178
:100AC400012D02D10261082605E04261082602E0F8
:100AD400002600E00426FF2B01D8864601E000F141
:100AE400040EFF2B01D8A20002E0A4F10802920038
:100AF400DEF800700F25954027EA050506FA02F294
:100B04002A43CEF800204A6812F0805F7AD0424A25
:100B1400956945F001059561926902F0010201921F
:100B2400019AA708BD1C3D4A52F825E004F00302CF
:100B340092000F2595402EEA050E394DA84215D096
:100B440005F58065A84213D005F58065A84211D04B
:100B540005F58065A8420FD005F58065A8420DD043
:100B640005F58065A8420BD105250AE0002508E0BB
:100B7400012506E0022504E0032502E0042500E047
:100B8400062505FA02F24EEA02020237234D45F821
:100B940027204A6812F4803F05D005F580652A684D
:100BA4001A432A6004E01F4D2A6822EA03022A60DD
:100BB4004A6812F4003F04D01A4D6A681A436A6006
:100BC40004E0184D6A6822EA03026A604A6812F473
:100BD400801F04D0134DAA681A43AA6004E0114D83
:100BE400AA6822EA0302AA604A6812F4001F04D029
:100BF4000C4DEA681343EB6004E00A4DEA6822EA0C
:100C04000303EB6001340F2C7FF61DAF03B0F0BD7E
:100C140000002110000031100010024000000140CB
:100C240000080140000401400AB101617047090451
:100C3400016170470F4B1A6842F001021A6059684B
:100C44000D4A0A405A601A6822F0847222F48032F3
:100C54001A601A6822F480221A605A6822F4FE028A
:100C64005A604FF41F029A604FF00062034B9A607F
:100C7400704700BF001002400000FFF800ED00E0E4
:100C840070B4036A23F001030362036A466882694D
:100C940022F073020C6842EA040523F002028B6816
:100CA40013430F4CA04202D00E4A904205D123F0C8
:100CB4000803CA68134323F00403094CA04202D07A
:100CC400084A904205D126F440764A6932438E6937
:100CD4001643466085614A684263036270BC70478C
:100CE400002C01400034014030B4036A23F48073C3
:100CF4000362036A4568C26922F073020C682243E6
:100D040023F400738C6843EA0423124CA04203D0FA
:100D140004F50064A04206D123F40063CC6843EADE
:100D2400042323F480630B4CA04203D004F5006435
:100D3400A04207D125F440554C6945EA04158C6955
:100D440045EA04154560C2614A68C263036230BC67
:100D5400704700BF002C014030B4036A23F4805371
:100D64000362036A4468C26922F4E6420D6842EAF7
:100D7400052223F400538D6843EA0533094DA84244
:100D840003D005F50065A84204D124F480444D69DC
:100D940044EA85144460C2614A680264036230BC58
:100DA400704700BF002C0140704700BF022380F849
:100DB40039300268136843F001031360012380F89B
:100DC40039300020704700BF022380F839300368AF
:100DD400196A41F21112114208D1196A40F24442CF
:100DE400114203D11A6822F001021A60012380F82B
:100DF40039300020704700BF704700BF0368224AA3
:100E0400904212D002F5006290420ED0B0F1804FB1
:100E14000BD0A2F59832904207D002F5806290423E
:100E240003D002F58062904203D123F070034A6834
:100E34001343154A904212D002F5006290420ED03C
:100E4400B0F1804F0BD0A2F59832904207D002F552
:100E54008062904203D002F58062904203D123F471
:100E64004073CA68134303608B68C3620B68836270
:100E7400054B984203D003F50063984201D10B69F6
:100E84000363012343617047002C0140B8B110B5DE
:100E9400044690F8393013F0FF0F04D1002380F892
:100EA4003830FFF781FF022384F83930211D206890
:100EB400FFF7A4FF012384F83930002010BD01207E
:100EC400704700BFB8B110B5044690F8393013F03C
:100ED400FF0F04D1002380F83830FFF78DFF022381
:100EE40084F83930211D2068FFF788FF012384F836
:100EF4003930002010BD0120704700BF30B4036AB0
:100F040023F010030362036A4468826922F4E64210
:100F14000D6842EA052223F020038D6843EA051395
:100F2400114DA84203D005F50065A84206D123F06F
:100F34008003CD6843EA051323F040030A4DA84219
:100F440003D005F50065A84207D124F440644D6937
:100F540044EA85048D6944EA8504446082614A68F0
:100F64008263036230BC7047002C014038B590F8AE
:100F74003830012B66D00D460446012380F8383002
:100F8400022380F839300C2A55D8DFE802F00754E0
:100F940054541A5454542E54545441000068FFF7C6
:100FA4006FFE2268936943F0080393612268936992
:100FB40023F004039361226891692B690B439361C5
:100FC40039E00068FFF79AFF2268936943F40063ED
:100FD40093612268936923F480639361226893691F
:100FE400296943EA0123936125E00068FFF77CFE49
:100FF4002268D36943F00803D3612268D36923F0DC
:101004000403D3612268D1692B690B43D36112E0D5
:101014000068FFF7A1FE2268D36943F40063D3613B
:101024002268D36923F48063D3612268D369296970
:1010340043EA0123D361012384F83930002084F882
:10104400380038BD022038BD10B4012303FA01F47E
:10105400036A23EA04030362036A8A401A430262AE
:1010640010BC704710B5044601220068FFF7ECFF7E
:1010740023680C4A934205D002F50062934203D1DF
:10108400012202E0012200E000221AB15A6C42F46B
:1010940000425A642268136843F00103136000207D
:1010A40010BD00BF002C014010B504460C291FD808
:1010B400DFE801F0071E1E1E0D1E1E1E131E1E1E3F
:1010C40019000268D36843F00203D36010E0026899
:1010D400D36843F00403D3600AE00268D36843F0A2
:1010E4000803D36004E00268D36843F01003D360BC
:1010F40001222068FFF7A8FF23680C4A934205D019
:1011040002F50062934203D1012202E0012200E0D1
:1011140000221AB15A6C42F400425A6422681368DD
:1011240043F001031360002010BD00BF002C0140F8
:1011340000BF00BF00BFFBE708B502F03FFB02F0B1
:1011440097F8FEE708B502F039FB02F091F8FEE7E4
:1011540008B502F033FB02F08BF8FEE708B502F0A5
:101164002DFB02F085F8FEE700BF00BF00BFFBE7E0
:10117400704700BF00BF00BF00BFFBE708B501F028
:1011840077FBFFF757FC08BD08B5024801F0EAFCFD
:1011940008BD00BF0804002008B5024801F06AFD3C
:1011A40008BD00BF0804002008B5024800F06CFD2B
:1011B40008BD00BF1C03002008B5024800F064FD10
:1011C40008BD00BF9403002008B5024801F052FD99
:1011D40008BD00BF0804002008B50E4B5B6913F47A
:1011E400806F09D10B4B5B6913F4006F04D1094B79
:1011F4005B6913F4805F0BD002F0F6FC054B4FF4EF
:1012040080625A614FF400625A614FF480525A610D
:1012140008BD00BF0004014008B50C4B5B6913F026
:10122400200F09D1094B5B6913F0400F04D1074B20
:101234005B6913F0800F08D002F0CEF9034B202233
:101244005A6140225A6180225A6108BD000401405B
:1012540008B50A4B1B686FF002021A616FF00402B2
:101264001A616FF008021A616FF010021A6102F03D
:10127400C3FC0348FFF744F908BD00BF6402002023
:101284000801002008B50A4B1B686FF002021A61BE
:101294006FF004021A616FF008021A616FF0100215
:1012A4001A6102F0A1F90348FFF72AF908BD00BF4B
:1012B40008020020D800002008B5024800F0E4FC31
:1012C40008BD00BF4C01002008B5024800F0DCFC5A
:1012D40008BD00BFA0000020024B1B686FF0010294
:1012E4001A617047A001002030B583B0044603683A
:1012F40013F0010F00F09680B24B5B6803F00C030F
:10130400042B0AD0AF4B5B6803F00C03082B1BD1F2
:10131400AC4B5B6813F4803F16D04FF4003393FA60
:10132400A3F3A84B1A684FF4003393FAA3F3B3FA68
:1013340083F303F01F0322FA03F313F0010F71D0B8
:101344006368002B6ED1A0E26368B3F5803F05D1DA
:101354009C4A136843F48033136026E063B903F1B5
:10136400804303F504331A6822F480321A601A6841
:1013740022F480221A6018E0B3F5A02F0CD103F1F7
:101384008043A3F53C331A6842F480221A601A6839
:1013940042F480321A6008E08A4B1A6822F48032E0
:1013A4001A601A6822F480221A606368EBB101F0B3
:1013B40067FA054605E001F063FA401B642800F271
:1013C40066824FF4003393FAA3F37E4B1A684FF40A
:1013D400003393FAA3F3B3FA83F303F01F0322FA5F
:1013E40003F313F0010FE6D01CE001F049FA0546BF
:1013F40005E001F045FA401B642800F24A824FF4EC
:10140400003393FAA3F36F4B1A684FF4003393FA43
:10141400A3F3B3FA83F303F01F0322FA03F313F0E5
:10142400010FE6D1236813F0020F00F09080654BA2
:101434005B6813F00C0F0AD0624B5B6803F00C037B
:10144400082B27D15F4B5B6813F4803F22D1022322
:1014540093FAA3F35B4B1A68022393FAA3F3B3FA48
:1014640083F303F01F0322FA03F313F0010F03D0F5
:101474002369012B40F00F825248036823F0F801DE
:101484006369F82292FAA2F2B2FA82F293400B4311
:1014940003605CE023699BB3012292FAA2F3B3FADE
:1014A40083F39B0003F1844303F584031A6001F082
:1014B400E7F9054605E001F0E3F9401B022800F2D4
:1014C400EC81022393FAA3F33E4B1A68022393FAA6
:1014D400A3F3B3FA83F303F01F0322FA03F313F025
:1014E400010FE8D03748036823F0F8016369F82254
:1014F40092FAA2F2B2FA82F293400B43036026E01E
:10150400012393FAA3F3B3FA83F39B0003F1844317
:1015140003F5840300221A6001F0B2F9054605E0E0
:1015240001F0AEF9401B022800F2B981022393FABC
:10153400A3F3244B1A68022393FAA3F3B3FA83F3B5
:1015440003F01F0322FA03F313F0010FE8D1236819
:1015540013F0080F52D0A3693BB3012292FAA2F30D
:10156400B3FA83F3184941F8232001F089F90546B9
:1015740005E001F085F9401B022800F29281022364
:1015840093FAA3F293FAA3F20E4A526A93FAA3F3DC
:10159400B3FA83F303F01F0322FA03F313F0010FEA
:1015A400E7D0012001F072F928E0012393FAA3F3B4
:1015B400B3FA83F30021044A42F8231001F060F9DE
:1015C400054609E0001002408004424201F058F947
:1015D400401B022800F26781022393FAA3F293FAD4
:1015E400A3F2BA4A526A93FAA3F3B3FA83F303F069
:1015F4001F0322FA03F313F0010FE7D1236813F05A
:10160400040F00F0A180B14BDA6942F08052DA6134
:10161400DB6903F080530193019BAD4A136843F4E3
:101624008073136001F02CF9054605E001F028F9F8
:10163400401B642800F23981A54B1B6813F4807F9A
:10164400F4D0E368012B05D1A04A136A43F00103E7
:10165400136222E063B903F1804303F504331A6A89
:1016640022F001021A621A6A22F004021A6214E0D9
:10167400052B09D1954B1A6A42F004021A621A6AC0
:1016840042F001021A6208E0904B1A6A22F0010249
:101694001A621A6A22F004021A62E36853B301F070
:1016A400EFF8054607E001F0EBF8401B41F2883300
:1016B400984200F2FC80022393FAA3F293FAA3F374
:1016C400B3FA83F35B0943F00203DBB2022B02D1CA
:1016D4007E4B1A6A01E07D4B5A6A022393FAA3F304
:1016E400B3FA83F303F01F0322FA03F313F0010F99
:1016F400D9D029E001F0C4F8054607E001F0C0F8AC
:10170400401B41F28833984200F2D380022393FABB
:10171400A3F293FAA3F3B3FA83F35B0943F002034E
:10172400DBB2022B02D1694B1A6A01E0674B5A6A99
:10173400022393FAA3F3B3FA83F303F01F0322FA09
:1017440003F313F0010FD9D1E369002B00F0B38048
:101754005E4A526802F00C02082A00F0AE80022BA6
:1017640068D14FF0807393FAA3F3B3FA83F39B0029
:1017740003F1844303F5840300221A6001F080F826
:10178400054605E001F07CF8401B022800F2978032
:101794004FF0007393FAA3F34C4B1A684FF00073A5
:1017A40093FAA3F3B3FA83F303F01F0322FA03F3C8
:1017B40013F0010FE6D1236AB3F5803F06D1434904
:1017C4004B6823F40032A36813434B603F484368DB
:1017D40023F47411236A626A13430B4343604FF08A
:1017E400807393FAA3F3B3FA83F39B0003F1844366
:1017F40003F5840301221A6001F042F8044604E070
:1018040001F03EF8001B02285BD84FF0007393FAF6
:10181400A3F32E4B1A684FF0007393FAA3F3B3FAB1
:1018240083F303F01F0322FA03F313F0010FE7D04D
:10183400002049E04FF0807393FAA3F3B3FA83F3E3
:101844009B0003F1844303F5840300221A6001F032
:1018540017F8044604E001F013F8001B022832D8FC
:101864004FF0007393FAA3F3184B1A684FF0007308
:1018740093FAA3F3B3FA83F303F01F0322FA03F3F7
:1018840013F0010FE7D100201EE001201CE003202B
:101894001AE0032018E0012016E0032014E00320DE
:1018A40012E0032010E003200EE003200CE00320EC
:1018B4000AE0032008E0002006E0012004E0032001
:1018C40002E0032000E0032003B030BD001002401A
:1018D4000070004030B486B01F4D02AC28686968BF
:1018E400AA68EB680FC42B8AADF804301B4B5B6805
:1018F40003F00C02082A2AD103F470114FF4701279
:1019040092FAA2F2B2FA82F221FA02F206A90A4487
:1019140012F8102C13F4803F15D0104B5B6803F4BD
:1019240000314FF4003393FAA3F3B3FA83F321FAAB
:1019340003F306A90B4413F8140C094BB3FBF0F0A2
:1019440000FB02F004E0074800FB02F000E004485A
:1019540006B030BC704700BF244D000800100240A0
:1019640000127A0000093D0070B5744B1B6803F047
:1019740007038B420BD2714A136823F007030B430E
:101984001360136803F00703994240F0C6800368AC
:1019940013F0020F06D06A4C636823F0F0028368E8
:1019A400134363600D460446036813F0010F75D0BA
:1019B4004268012A13D14FF4003393FAA3F3604B26
:1019C40019684FF4003393FAA3F3B3FA83F303F0E3
:1019D4001F0321FA03F313F0010F27D19FE0022A1A
:1019E40013D14FF0007393FAA3F3554B19684FF0DA
:1019F400007393FAA3F3B3FA83F303F01F0321FAFA
:101A040003F313F0010F11D18BE0022393FAA3F334
:101A14004B4B1968022393FAA3F3B3FA83F303F04D
:101A24001F0321FA03F313F0010F7CD044494B68E0
:101A340023F0030313434B6000F022FF0646636860
:101A4400012B0ED106E000F01BFF801B41F288330E
:101A540098426AD83A4B5B6803F00C03042BF2D12A
:101A64001CE0022B15D106E000F00AFF801B41F2B6
:101A7400883398425BD8324B5B6803F00C03082B25
:101A8400F2D10BE000F0FCFE801B41F28833984257
:101A94004FD82B4B5B6813F00C0FF3D1274B1B680B
:101AA40003F007039D420AD2244A136823F0070374
:101AB4002B431360136803F007039D423BD1236853
:101AC40013F0040F06D01E494B6823F4E062E36868
:101AD40013434B60236813F0080F07D0184A536868
:101AE40023F46053216943EAC1035360FFF7F2FE14
:101AF400134B5B6803F0F002F02393FAA3F3B3FAF9
:101B040083F322FA03F30F4AD35CD8400E4B1860D8
:101B1400002000F087FE002070BD012070BD012070
:101B240070BD012070BD012070BD032070BD032075
:101B340070BD032070BD012070BD00BF00200240B5
:101B440000100240384D000800000020014B1868C6
:101B5400704700BF0000002008B5FFF7F7FF084BEF
:101B64005B6803F4E0624FF4E06393FAA3F3B3FA1F
:101B740083F322FA03F3034AD35CD84008BD00BFC1
:101B840000100240484D000808B5FFF7DFFF084B7E
:101B94005B6803F460524FF4605393FAA3F3B3FA0F
:101BA40083F322FA03F3034AD35CD84008BD00BF91
:101BB40000100240484D000810B404686360436894
:101BC400102B04D103689A600368D96003E00368AA
:101BD40099600368DA6010BC704700BF20B310B48A
:101BE400034690F821200AB980F82020022283F8C5
:101BF40021201C68226822F47F5121F030015868AA
:101C04009A681043DA6810431A6910435A691043FA
:101C14009A691043DA6902430A4322600020586338
:101C2400012283F8212001E00120704710BC704795
:101C340038B590F82040012C24D00446012084F8C3
:101C44002000022084F821002568286820F0010083
:101C540028602046FFF7B0FF2268136843F00203B0
:101C640013602268136843F0040313602268136846
:101C740043F0080313602268136843F00103136000
:101C8400002038BD022038BD10B504460368B54AAB
:101C9400934248D902F560721268B3498B4221D04D
:101CA40014318B4220D014318B421FD014318B421B
:101CB4001FD014318B421FD014318B421FD01431EA
:101CC4008B421FD001F562718B421ED014318B42BE
:101CD4001DD014318B421CD014318B421CD14FF4D3
:101CE40000411BE0082119E0802117E04FF4006156
:101CF40014E04FF4004111E04FF400210EE04FF4E2
:101D040000010BE04FF0006108E0082106E08021AB
:101D140004E04FF4006101E04FF40021114214BFCC
:101D24000122002246E0914A12688F498B4221D059
:101D340014318B4220D014318B421FD014318B428A
:101D44001FD014318B421FD014318B421FD0143159
:101D54008B421FD001F562718B421ED014318B422D
:101D64001DD014318B421CD014318B421CD14FF442
:101D740000411BE0082119E0802117E04FF40061C5
:101D840014E04FF4004111E04FF400210EE04FF451
:101D940000010BE04FF0006108E0082106E080211B
:101DA40004E04FF4006101E04FF40021114214BF3C
:101DB40001220022002A00F0A2801A6812F0080F03
:101DC40000F09D801A6822F008021A602368654AB0
:101DD400934243D9783A934221D01432934220D08B
:101DE400143293421FD0143293421FD014329342C0
:101DF4001FD0143293421FD0143293421FD002F5E5
:101E0400627293421ED0143293421DD01432934214
:101E14001CD0143293421CD14FF400421BE0082220
:101E240019E0802217E04FF4006214E04FF40042FE
:101E340011E04FF400220EE04FF400020BE04FF0EB
:101E4400006208E0082206E0802204E04FF4006209
:101E540001E04FF40022464B5A6042E0424A93426A
:101E640021D01432934220D0143293421FD0143222
:101E740093421FD0143293421FD0143293421FD086
:101E8400143293421FD002F5627293421ED0143270
:101E940093421DD0143293421CD0143293421CD16D
:101EA4004FF400421BE0082219E0802217E04FF4AF
:101EB400006214E04FF4004211E04FF400220EE0FF
:101EC4004FF400020BE04FF0006208E0082206E045
:101ED400802204E04FF4006201E04FF40022234B1F
:101EE4005A60636B43F001036363042384F8213075
:101EF400002384F82030236B0BB1204698472368D5
:101F0400184A934250D902F56072126816498B42FE
:101F140021D014318B4220D014318B421FD0143184
:101F24008B4227D014318B4227D014318B4227D0D7
:101F340014318B4227D001F562718B4226D01431C3
:101F44008B4225D014318B4224D014318B4224D1BE
:101F54004FF4804123E0042121E040211FE04FF4AD
:101F640080611CE080000240080002400000024042
:101F7400000402404FF4804111E04FF480210EE050
:101F84004FF480010BE04FF0806108E0042106E08B
:101F9400402104E04FF4806101E04FF480211142BC
:101FA40014BF0122002246E0B44A1268B4498B42AD
:101FB40021D014318B4220D014318B421FD01431E4
:101FC4008B421FD014318B421FD014318B421FD04F
:101FD40014318B421FD001F562718B421ED0143133
:101FE4008B421DD014318B421CD014318B421CD136
:101FF4004FF480411BE0042119E0402117E04FF425
:10200400806114E04FF4804111E04FF480210EE030
:102014004FF480010BE04FF0806108E0042106E0FA
:10202400402104E04FF4806101E04FF4802111422B
:1020340014BF01220022002A00F09F801A6812F0C7
:10204400040F00F09A801A6812F0200F03D11A6866
:1020540022F004021A6023688A4A934243D9783AE8
:10206400934221D01432934220D0143293421FD091
:10207400143293421FD0143293421FD0143293422D
:102084001FD0143293421FD002F5627293421ED0C5
:10209400143293421DD0143293421CD01432934212
:1020A4001CD14FF480421BE0042219E0402217E0C7
:1020B4004FF4806214E04FF4804211E04FF4802228
:1020C4000EE04FF480020BE04FF0806208E004223F
:1020D40006E0402204E04FF4806201E04FF48022E5
:1020E400694B5A6042E0664A934221D014329342CB
:1020F40020D0143293421FD0143293421FD0143292
:1021040093421FD0143293421FD0143293421FD0F3
:1021140002F5627293421ED0143293421DD01432DF
:1021240093421CD0143293421CD14FF480421BE0E2
:10213400042219E0402217E04FF4806214E04FF4C7
:10214400804211E04FF480220EE04FF480020BE055
:102154004FF0806208E0042206E0402204E04FF4DD
:10216400806201E04FF48022444B5A60112384F8CA
:102174002130E36A0BB1204698472368414A9342D1
:1021840048D902F5607212683D498B4221D014315E
:102194008B4220D014318B421FD014318B421FD07C
:1021A40014318B421FD014318B421FD014318B4217
:1021B4001FD001F562718B421ED014318B421DD0A9
:1021C40014318B421CD014318B421CD14FF400517A
:1021D4001BE0022119E0202117E04FF4007114E004
:1021E4004FF4005111E04FF400310EE04FF40011B0
:1021F4000BE04FF0007108E0022106E0202104E02A
:102204004FF4007101E04FF40031114214BF012278
:1022140000224EE0194A126819498B4221D0143128
:102224008B4220D014318B421FD014318B421FD0EB
:1022340014318B421FD014318B4227D014318B427E
:1022440027D001F562718B4226D014318B4225D000
:1022540014318B4224D014318B4224D14FF40051D9
:1022640023E0022121E020211FE04FF400711CE053
:102274004FF4005119E04FF4003116E00000024021
:102284000800024080000240000402404FF40011A4
:102294000BE04FF0007108E0022106E0202104E089
:1022A4004FF4007101E04FF40031114214BF0122D8
:1022B4000022002A00F0A4801A6812F0020F00F035
:1022C4009F801A6812F0200F03D11A6822F00202CC
:1022D4001A6023684B4A934243D9783A934221D0F7
:1022E4001432934220D0143293421FD014329342BA
:1022F4001FD0143293421FD0143293421FD0143291
:1023040093421FD002F5627293421ED0143293425C
:102314001DD0143293421CD0143293421CD14FF47A
:1023240000521BE0022219E0202217E04FF4007251
:1023340014E04FF4005211E04FF400320EE04FF479
:1023440000120BE04FF0007208E0022206E02022A7
:1023540004E04FF4007201E04FF400322A4B5A605B
:1023640042E02A4A934221D01432934220D01432BC
:1023740093421FD0143293421FD0143293421FD081
:10238400143293421FD0143293421FD002F562726A
:1023940093421ED0143293421DD0143293421CD067
:1023A400143293421CD14FF400521BE0022219E074
:1023B400202217E04FF4007214E04FF4005211E0B1
:1023C4004FF400320EE04FF400120BE04FF00072B5
:1023D40008E0022206E0202204E04FF4007201E04B
:1023E4004FF400320A4B5A60636B6363012384F831
:1023F4002130002384F82030A36A0BB1204698478B
:1024040010BD00BF800002400004024008000240EA
:10241400000002402DE9F843814601680B6923F46A
:102424004052C36813430B618168036919434369CC
:1024340019430068C26822F4B05323F00C030B4321
:10244400C360D9F800104B6923F44072D9F81830EE
:1024540013434B61D9F800505B4B9D4259D1FFF7B0
:1024640093FB00EB800000EB8000D9F80440A4004B
:10247400B0FBF4F4554EA6FB043464092401FFF7C1
:1024840083FB00EB800000EB8000D9F804309B0054
:10249400B0FBF3F7FFF778FB00EB800000EB800064
:1024A400D9F804309B00B0FBF3F3A6FB03235B09CC
:1024B4004FF0640808FB13731B013233A6FB03239C
:1024C4005B0903F0F0031C44FFF75EFB00EB8000A4
:1024D40000EB8000D9F804309B00B0FBF3F7FFF762
:1024E40053FB00EB800000EB8000D9F804309B0024
:1024F400B0FBF3F3A6FB03235B0908FB13731B0177
:102504003233A6FB0323C3F343131C44AC60BDE87E
:10251400F883FFF721FB00EB800000EB8000D9F883
:102524000440A400B0FBF4F4284EA6FB0434640970
:102534002401FFF711FB00EB800000EB8000D9F8C9
:1025440004309B00B0FBF3F7FFF706FB00EB8000C1
:1025540000EB8000D9F804309B00B0FBF3F3A6FB3A
:1025640003235B094FF0640808FB13731B01323328
:10257400A6FB03235B0903F0F0031C44FFF7ECFA0A
:1025840000EB800000EB8000D9F804309B00B0FB26
:10259400F3F7FFF7E1FA00EB800000EB8000D9F8D5
:1025A40004309B00B0FBF3F3A6FB03235B0908FB99
:1025B40013731B013233A6FB0323C3F343131C44DD
:1025C400AC60BDE8F88300BF003801401F85EB51C3
:1025D40058B310B5044690F8393013F0FF0F04D106
:1025E400002380F8383001F08BFE022384F8393060
:1025F4002268D36823F40053D3602046FFF70AFF10
:102604002268136923F4904313612268536923F009
:102614002A0353612268D36843F40053D360002033
:10262400E063012384F8393010BD0120704700BFF6
:1026340010B590F83940E4B2012C01D0222C38D1E5
:10264400002938D0002A38D090F83830012B36D001
:10265400012380F8383001628284C2840023C3637A
:1026640090F83930DBB2222B03D1322380F8393091
:1026740002E0122380F8393013460446026B1148F5
:102684009062226B1048D062226B1048106322685B
:102694000432206BFFF7CCFA23686FF040021A6013
:1026A4002268536943F080035361002084F83800A2
:1026B40010BD022010BD012010BD012010BD02205C
:1026C40010BD00BF6D270008AD27000809280008C9
:1026D40010B590F83940E4B2012C01D0122C34D159
:1026E400002934D0002A34D090F83830012B32D06D
:1026F400012380F83830816282850023C36390F817
:102704003930DBB2122B03D1322380F8393002E0A6
:10271400222380F8393013460A460446416B0F4899
:102724008862616B0E48C862616B0E480863216859
:102734000431606BFFF77CFA2268536943F040036D
:102744005361002084F8380010BD022010BD012020
:1027540010BD012010BD022010BD00BFB927000824
:10276400F92700080928000808B5436A02681268B6
:1027740012F0200F12D10022DA8419684A6922F07B
:1027840080024A611968CA6842F04002CA600122A4
:1027940083F83920184601F0C3FA08BD184601F041
:1027A400BFFA08BD704700BF08B5406AFFF7FAFFDB
:1027B40008BD00BF08B5436A0268126812F0200F12
:1027C40012D10022DA8519684A6922F040024A616E
:1027D40093F83920D2B2322A03D1122283F8392055
:1027E40002E0012283F83920184601F08BFA08BD73
:1027F400704700BF08B5406AFFF7FAFF08BD00BF85
:10280400704700BF08B5406A0023C385C384012311
:1028140080F83930C36B43F01003C363FFF7F0FF54
:1028240008BD00BF10B50446FFF790F9064BA3FBA3
:1028340000308009FEF7D6F8002221464FF0FF3021
:10284400FEF784F8002010BDD34D621008B5074A86
:10285400136843F0100313600320FEF765F80020AB
:10286400FFF7E0FF01F092FC002008BD00200240C9
:10287400024A136801331360704700BF84000020CC
:10288400014B1868704700BF8400002010B582B067
:102894000190FFF7F5FF0446FFF7F2FF001B019BD1
:1028A4009842F9D302B010BD438D9BB22BB9026894
:1028B400536823F4806353600AE00268436A591C36
:1028C40041621B781361438D9BB2013B9BB24385EC
:1028D40000207047438D9BB253B10268436A591C70
:1028E40041621B781361438D9BB2013B9BB24385CC
:1028F40000207047438D9BB253B10268436A591C50
:1029040041621B781361438D9BB2013B9BB24385AB
:1029140000207047438D9BB253B1436A5A1C4262F4
:10292400026812691A70438D9BB2013B9BB24385C6
:1029340000207047438D9BB253B1436A5A1C4262D4
:10294400026812691A70438D9BB2013B9BB24385A6
:102954000020704782B003685A6901929B69019311
:10296400019B002002B07047704700BF08B50168A2
:102974004A6822F4E0624A6001684A6922F480628B
:102984004A6101680A6822F480620A60202280F8A1
:102994003520FFF7E9FF002008BD00BF704700BFE6
:1029A40000B583B001684A6822F4E0624A600168B5
:1029B4004A6901920A6842F001020A600192019A8E
:1029C40001680A6822F480620A60202280F83520B7
:1029D400FFF7E4FF002003B05DF804FB704700BF7D
:1029E40008B5438D9BB25BB10268436A591C4162CE
:1029F4001B781361438D9BB2013B9BB2438519E065
:102A04000268536823F4E06353600268136843F474
:102A14000073136090F83630DBB2402B05D12023CD
:102A240080F83530FFF7DAFF04E0202380F83530F2
:102A340001F02EFA002008BD704700BF08B5438D91
:102A44009BB2032B0BD9436A5A1C42620268126977
:102A54001A70438D9BB2013B9BB2438528E0023B35
:102A6400012B05D80268536823F4806353601FE088
:102A74000268536823F4E0635360436A5A1C426259
:102A8400026812691A70438D9BB2013B9BB2438565
:102A940090F83630DBB2402B05D1202380F8353056
:102AA400FFF7CAFF04E0202380F8353001F0FCF979
:102AB400002008BD08B5438D9BB2032B10D10268DA
:102AC400136823F480631360436A5A1C42620268E9
:102AD40012691A70438D9BB2013B9BB243853FE060
:102AE400438D9BB2022B30D10268536823F44073A8
:102AF40053600268136843F400731360436A5A1CFA
:102B04004262026812691A70438D9BB2013B9BB208
:102B14004385436A5A1C4262026812691A70438DE3
:102B24009BB2013B9BB2438590F83630DBB2402B1D
:102B340005D1202380F83530FFF77EFF10E02023F5
:102B440080F8353001F0B0F90AE0436A5A1C426259
:102B5400026812691A70438D9BB2013B9BB2438594
:102B6400002008BD38B590F83630DBB2102B04D005
:102B740090F83630DBB2402B36D103689A6912F0F4
:102B8400040F18D05C695A6802F480615A6902F033
:102B940004025B6803F4007314F0800F04D019B1CD
:102BA40012B9FFF781FE38BD002A62D0002B60D035
:102BB400FFF716FF38BD5C695A6802F480615A69F0
:102BC40002F004025B6803F4007314F0400F04D0B5
:102BD40019B112B9FFF732FF38BD002A49D0002BD2
:102BE40047D0FFF767FF38BD03685D695A6802F490
:102BF4000072596901F010019C6904F0040415F095
:102C0400020F03D012B1FFF7A5FE38BD19B112B1FE
:102C1400FFF7C6FE38BDB4B15C695A6802F480613E
:102C24005A6902F004025B6803F4007314F0800F25
:102C340004D019B112B9FFF74DFE38BDCAB1C3B102
:102C4400FFF758FE38BD5C695A6802F480615A691E
:102C540002F004025B6803F4007314F0400F04D024
:102C640019B112B9FFF756FE38BD12B10BB1FFF717
:102C740061FE38BD10B50446036859695A6811F4F9
:102C8400807F0FD002F4807262B1826B42F0010245
:102C940082635A6922F480725A610268136843F4A9
:102CA40000431360236859695A6802F4807211F46E
:102CB400007F08D03AB1A26B42F00202A2635A69C3
:102CC40022F400725A6122685169536803F48073D4
:102CD40011F4806F1ED0EBB194F83630DBB2618D05
:102CE40089B294F83500C0B2202B06D129B9212825
:102CF40003D12046FFF73AFE0CE0A36B43F0040334
:102D0400A363136843F4007313602268536923F4C4
:102D140080635361236859695A6802F4807211F41C
:102D2400006F08D03AB1A26B42F00802A2635A695C
:102D340022F400625A61A36B53B1202384F8353026
:102D44002268136823F400631360204601F0B8F886
:102D540010BD00BFF0B583B00446036813F0010F43
:102D64006FD0474BDA6942F08052DA61DB6903F0D5
:102D740080530193019B434A136843F480731360A7
:102D8400FFF77EFD054604E0FFF77AFD401B64284B
:102D94006FD83C4B1B6813F4807FF5D0384B1B6A0B
:102DA40013F4407346D0626802F44072934241D0F7
:102DB4003348016A21F440764FF4803393FAA3F246
:102DC400B2FA82F2304D012745F8227093FAA3F348
:102DD400B3FA83F3002245F82320066211F0010FB1
:102DE40028D0FFF74DFD054606E0FFF749FD401BDF
:102DF40041F2883398423ED8022393FAA3F293FA1D
:102E0400A3F3B3FA83F35B0943F00203DBB2022BAF
:102E140002D11B4B1A6A01E0194B5A6A022393FA36
:102E2400A3F3B3FA83F303F01F0322FA03F313F0BB
:102E3400010FDAD012490B6A23F44072636813431A
:102E44000B62236813F0020F06D00D494B6823F47C
:102E54004042A36813434B60236813F0100F0CD057
:102E640007494B6823F48002636913434B600020D5
:102E740004E0032002E0032000E0002003B0F0BDE2
:102E8400001002400070004000044242704700BF3E
:102E940068B310B504460368DA6812F0010F03D072
:102EA400DB6813F0020F24D1637B13F0FF0F04D10E
:102EB400002323732046FFF7E9FF0223637323688B
:102EC40045F255521A6021684B6823F00702636883
:102ED40013434B6021688B6823F47F6323F00F0353
:102EE400A26813438B6001236373002010BD01208B
:102EF4007047012010BD00BF037B012B0FD00223BC
:102F0400437303684CF6CC421A6003684AF6AA225B
:102F14001A60012343730023037318467047022089
:102F2400704700BF38B5037B012B20D00446012332
:102F3400037302234373FFF7A3FC05460AE0FFF77C
:102F44009FFC401BB0F57A7F04D9032060730023F3
:102F5400237338BD2368DA6812F0020FEFD14AF602
:102F6400AA221A60012363730020207338BD022053
:102F740038BD00BF10B584B01D4B5A6942F002023F
:102F84005A615B6903F002030093009B002211461F
:102F94003B20FDF7DBFC3B20FDF70AFD1548164BF3
:102FA400036000238360C36043614FF46022C26105
:102FB400436001230361FDF7E9FB08B101F006F862
:102FC4000A230193002303930123029301A90948CF
:102FD400FDF77CF908B100F0F9FF064C2046FDF737
:102FE4008FFA012205492046FDF706FB04B010BD07
:102FF40000100240D8000020003C0140980000204E
:103004000122014B9A7170479800002010B584B0DA
:103014002E4B5A6942F001025A615B6903F00103C5
:103024000093009B022201210B20FDF78FFC0B2053
:10303400FDF7BEFC2648274B03604FF48073836082
:103044000023C36043614FF46022C26143600423E0
:103054000361FDF79BFB08B100F0B8FF0B2301935C
:103064000123029301A91A48FDF730F908B100F0D1
:10307400ADFF0C2301930223029301A91448FDF729
:1030840025F908B100F0A2FF022301930323029360
:1030940001A90F48FDF71AF908B100F097FF0323BF
:1030A4000193042302930DEB03010948FDF70EF984
:1030B40008B100F08BFF064C2046FDF721FA0422EC
:1030C40005492046FDF798FA04B010BD00100240EF
:1030D40008010020002401404001002010B50B200D
:1030E400FDF772FC034B5C88A4B20B20FDF760FC77
:1030F400204610BD4001002010B50B20FDF764FCF4
:10310400034B9C88A4B20B20FDF752FC204610BD53
:10311400400100200122014B9A72704740010020B7
:1031240010B586B00F4B9A6942F008029A619B6908
:1031340003F008030193019BE02302930A4B0393DA
:10314400032305930024049402A90848FDF776FCA0
:10315400224621461720FDF7F9FB1720FDF728FC2E
:1031640006B010BD0010024000003110000C0140F8
:103174004FF40002014B1A61704700BF0008014080
:103184008022014B1A617047000801404FF48032DD
:10319400014B1A61704700BF000C01400122014B32
:1031A4001A617047000C01404FF40032014B1A6160
:1031B400704700BF000C01400222014B1A617047A6
:1031C400000C0140034B1A68136A43F001031362B5
:1031D400704700BF08020020044B1A68136A23F0EA
:1031E40001031B041B0C1362704700BF080200207C
:1031F400034B1A68136A43F010031362704700BF4D
:1032040008020020044B1A68136A23F010031B04FD
:103214001B0C1362704700BF08020020034B1A689E
:10322400136A43F480731362704700BF08020020DE
:10323400044B1A68136A23F480731B041B0C136277
:10324400704700BF08020020064B1B6803FB00F018
:10325400054BA3FB00308009044B1B68586398633B
:10326400D863704744020020D34D62100802002046
:1032740010B50020FFF7E8FF104C0123A373FFF7FC
:103284007FFFFFF78BFFFFF797FFFFF7A5FFFFF720
:10329400B9FFFFF7CDFF002211461720FDF756FBBB
:1032A4001720FDF791FB064B20225A6140225A61F8
:1032B40080225A6100232371637110BD44020020EF
:1032C400000401402DE9F04399B0644B9A6942F43B
:1032D40000529A619A6902F400520192019A604A7A
:1032E4001268D2085F49A1FB0212120A013A5E4F2A
:1032F4003A609A6942F400529A619A6902F400525F
:103304000292029A9A6942F004029A619A6902F05E
:1033140004020392039A9A6942F008029A619A6934
:1033240002F008020492049A9A6942F010029A6127
:103334009B6903F010030593059BFFF721FFFFF73B
:103344002DFFFFF739FF012615964FF00308CDF83E
:103354005C80169618AC802344F8103D21464348FF
:10336400FDF76CFB1496DFF8149121464846FDF7EF
:1033740065FB0225149521464846FDF75FFB15952C
:10338400CDF85C8016954FF4E073149321463848C9
:10339400FDF754FB374D384B2B6000246C603B68C1
:1033A400EB602C61AC606C612846FDF78BFD0C94DE
:1033B4000B940A9408944FF4806307934FF40063CA
:1033C40006932823099306A92846FDF787FA602364
:1033D4000D9311940F944FF00808CDF84080129487
:1033E40013940E9422460DA92846FDF7BFFD0E94B2
:1033F40004220DA92846FDF7B9FD0E9442460DA9F5
:103404002846FDF7B3FD21462846FDF72BFE04218F
:103414002846FDF727FE41462846FDF723FE0C21EA
:103424002846FDF741FE2046FFF70EFFFFF7A8FEF2
:10343400FFF7B4FEFFF7C0FEFFF7CEFEFFF7E2FE94
:10344400FFF7F6FEBE73324621462E20FDF77EFAC4
:103454002E20FDF7ADFA19B0BDE8F083001002404C
:103464000000002089B5F81444020020000801403F
:10347400001001400802002000340140000C01400B
:1034840008B5FFF71FFFFFF74BFE044B00221A712C
:103494005A71DA801A81FFF7EBFE08BD440200205E
:1034A40010B53E4B9B6803F0E0033D4CA381FFF74E
:1034B40067FEFFF773FEFFF77FFEFFF78DFEFFF752
:1034C400A1FEFFF7B5FEA37B13F0FF0F65D1A37A2E
:1034D40013F0FF0F30D0A3899BB2602B16D004D811
:1034E400202B09D0402B0CD024E0A02B18D0C02BCB
:1034F4001BD0802B1ED10EE0FFF764FEFFF746FEC3
:1035040010BDFFF775FEFFF74FFE10BDFFF75AFE23
:10351400FFF74AFE10BDFFF72BFEFFF77FFE10BD3D
:10352400FFF734FEFFF77AFE10BDFFF721FEFFF729
:103534005FFE10BD00BF10BD194B9B899BB2602B71
:1035440016D004D8202B09D0402B0CD024E0A02B7B
:1035540018D0C02B1BD0802B1ED10EE0FFF708FE25
:10356400FFF746FE10BDFFF711FEFFF757FE10BD33
:10357400FFF7FEFDFFF752FE10BDFFF723FEFFF736
:1035840013FE10BDFFF734FEFFF70EFE10BDFFF76C
:1035940019FEFFF7FBFD10BD00BF10BD000C01407C
:1035A4004402002038B50020FFF74EFE094D0024E8
:1035B4002C81EC80224621461720FDF7C7F91720FD
:1035C400FDF7F6F92046FFF73FFEAC73FFF768FFFF
:1035D40038BD00BF44020020024B01221A715A7107
:1035E400704700BF4402002008B51B4B5B7913F001
:1035F400FF0F0ED0184B1B7913F0FF0F09D1FFF703
:103604004FFF154B002159711A8992B2DA80198142
:103614000EE0114B5B7913F0FF0F09D00E4B1B79B1
:1036240013F0FF0F04D00C4A1379013BDBB2137182
:10363400094A13899BB201339BB2138113899BB24C
:1036440041F28732934205D9034B41F288321A8101
:103654000022DA8008BD00BF440200204FF000526F
:10366400014B1A61704700BF000C01404FF4005237
:10367400014B1A61704700BF000C01404FF08042BB
:10368400014B1A61704700BF000C01404FF48042A7
:10369400014B1A61704700BF000C01404FF000421B
:1036A400014B1A61704700BF000C01404FF4004207
:1036B400014B1A61704700BF000C014010B586B081
:1036C400104B9A6942F010029A619B6903F010034F
:1036D4000193019B4FF4E05302930B4B0393032399
:1036E40005930024049402A90848FDF7A7F922468B
:1036F40021462820FDF72AF92820FDF759F906B0BC
:1037040010BD00BF00100240000031100010014045
:10371400034B1A68136A43F001031362704700BF36
:1037240064020020044B1A68136A23F001031B048B
:103734001B0C1362704700BF64020020034B1A681D
:10374400136A43F010031362704700BF6402002041
:10375400044B1A68136A23F010031B041B0C136236
:10376400704700BF64020020034B1A68136A43F4D5
:1037740080731362704700BF64020020044B1A6810
:10378400136A23F480731B041B0C1362704700BF7D
:1037940064020020064B1B6803FB00F0054BA3FBEF
:1037A40000308009044B1B6858639863D8637047E2
:1037B40054020020D34D62106402002010B5002092
:1037C400FFF7E8FF124C0123A373FFF74FFFFFF746
:1037D4005DFFFFF76BFFFFF7A5FFFFF7B9FFFFF7EB
:1037E400CDFF002211462820FDF7B0F82820FDF770
:1037F400EBF8084B4FF480525A614FF400625A615F
:103804004FF480625A6100232371637110BD00BFBD
:1038140054020020000401402DE9F04196B06A4BA7
:103824009A6942F400629A619A6902F40062009211
:10383400009A664A1268D2086549A1FB0212120A6C
:10384400013A644F3A609A6942F400629A619A6953
:1038540002F400620192019A9A6942F004029A61A8
:103864009A6902F004020292029A9A6942F00802EA
:103874009A619B6903F008030393039BFFF7F6FE29
:10388400FFF704FFFFF712FF0126139614964FF07B
:103894000308CDF8548016AC4FF4005344F8103D9F
:1038A4004D4D21462846FDF7C9F84FF48043129345
:1038B40021462846FDF7C2F84FF4004312932146EF
:1038C4002846FDF7BBF8022313931493CDF85480D4
:1038D4004FF480731293A5F5806521462846FDF7C1
:1038E400ADF84FF40073129321462846FDF7A6F86D
:1038F4004FF48068CDF8488021462846FDF79EF8AD
:10390400364D374B2B6000246C603B68EB602C61B8
:10391400AC606C612846FDF7D5FA0A9409940894C2
:103924000694CDF814804FF400630493282307937E
:1039340004A92846FCF7D2FF60230B930F940D943F
:103944004FF00808CDF83880109411940C94224656
:103954000BA92846FDF70AFB0C9404220BA9284660
:10396400FDF704FB0C9442460BA92846FDF7FEFA2A
:1039740021462846FDF776FB04212846FDF772FB15
:1039840041462846FDF76EFB0C212846FDF78CFBCB
:103994002046FFF7FFFEFFF769FEFFF777FEFFF70C
:1039A40085FEFFF7BFFEFFF7D3FEFFF7E7FEBE730A
:1039B400324621461B20FCF7C9FF1B20FCF7F8FF09
:1039C40016B0BDE8F08100BF0010024000000020E6
:1039D40089B5F81454020020000C01406402002050
:1039E400002C014008B5FFF717FFFFF767FE044BF3
:1039F40000221A715A71DA801A81FFF7DFFE08BDBE
:103A04005402002010B5444B9B6803F4E053434C2C
:103A1400A381FFF72BFEFFF739FEFFF747FEFFF701
:103A240081FEFFF795FEFFF7A9FEA37B13F0FF0FBE
:103A340071D1A37A13F0FF0F36D0A3899BB2B3F5EB
:103A4400406F1BD006D8B3F5806F0DD0B3F5006F6F
:103A54000FD027E0B3F5A05F1AD0B3F5C05F1CD038
:103A6400B3F5805F1ED10EE0FFF7F8FDFFF766FEA9
:103A740010BDFFF703FEFFF777FE10BDFFF7EEFD65
:103A8400FFF772FE10BDFFF743FEFFF707FE10BD00
:103A9400FFF754FEFFF702FE10BDFFF739FEFFF7F4
:103AA400EDFD10BD00BF10BD1C4B9B899BB2B3F54F
:103AB400406F1BD006D8B3F5806F0DD0B3F5006FFF
:103AC4000FD027E0B3F5A05F1AD0B3F5C05F1CD0C8
:103AD400B3F5805F1ED10EE0FFF71AFEFFF7CEFDAF
:103AE40010BDFFF72BFEFFF7D9FD10BDFFF710FE49
:103AF400FFF7D4FD10BDFFF7B1FDFFF735FE10BD94
:103B0400FFF7BCFDFFF730FE10BDFFF7A7FDFFF781
:103B140015FE10BD00BF10BD00100140540200206E
:103B240038B50020FFF736FE094D00242C81EC80C7
:103B3400224621462820FCF709FF2820FCF738FFFD
:103B44002046FFF727FEAC73FFF75CFF38BD00BFCC
:103B54005402002010B50446B0F57A7F01DD4FF41D
:103B64007A7414F57A7F00DA1B4C002C0DDA60426B
:103B740080B204B2194B1B780BB9FFF70BFE01237B
:103B8400174A9372154A13700BE0144B1B78012BE0
:103B940002D1A0B2FFF7FEFD0023114A93720F4A2F
:103BA4001370A4B2631D9BB20A2B05D801230C4ADF
:103BB40093730C4A13700AE00022094B9A73094B61
:103BC4001B780BB1FFF71EFF0022064B1A7020462C
:103BD400FFF7E0FD10BD00BF18FCFFFF88000020C8
:103BE4005402002089000020024B01221A715A71EC
:103BF400704700BF5402002008B51B4B5B7913F0DB
:103C0400FF0F0ED0184B1B7913F0FF0F09D1FFF7EC
:103C1400F9FE154B002159711A8992B2DA80198183
:103C24000EE0114B5B7913F0FF0F09D00E4B1B799B
:103C340013F0FF0F04D00C4A1379013BDBB213716C
:103C4400094A13899BB201339BB2138113899BB236
:103C540041F28732934205D9034B41F288321A81EB
:103C64000022DA8008BD00BF5402002000B583B0F2
:103C74001A4BDA6942F48022DA61DB6903F48023A7
:103C84000193019B062205210C20FCF75FFE0C200A
:103C9400FCF78EFE072205210D20FCF757FE0D20B0
:103CA400FCF786FE0E480F4B03604FF4E13343608C
:103CB40000238360C36003610C2242618361FEF7C9
:103CC40087FC08B100F082F9074B002283F87920C1
:103CD400012283F87A2003B05DF804FB001002404F
:103CE4005403002000480040A002002010B5044600
:103CF400FCF7A4FA82B221460148FEF799FC10BDF4
:103D0400540300200268044B9A4203D10122034B5E
:103D140083F87920704700BF00480040A0020020CB
:103D24000268044B9A4203D10122034B83F87A20A0
:103D3400704700BF00480040A002002010B586B0C4
:103D44000D4B9A6942F008029A619B6903F00803DB
:103D54000193019B094C002204212046FCF764FFD7
:103D640004230293012303930223059302A920460B
:103D7400FCF764FE06B010BD00100240000C0140C8
:103D840000B587B00B4B9A6942F004029A619B69B3
:103D940003F004030193019B4FF480530293002327
:103DA40003930123049302A90348FCF747FE07B0D9
:103DB4005DF804FB001002400008014008B502460B
:103DC40004210248FCF730FF08BD00BF000C01408D
:103DD40008B5024610210248FCF726FF08BD00BFC3
:103DE4000008014030B587B0124B9A6942F00402D2
:103DF4009A619B6903F004030193019B0E4D002219
:103E040010212846FCF710FF102302930124039489
:103E14000223059302A92846FCF710FE0020FFF7B1
:103E2400D7FF2046FFF7D4FF0020FFF7D1FF07B0EC
:103E340030BD00BF001002400008014010B500244E
:103E44000FE00120FFF7C4FFA02000F081F800205C
:103E5400FFF7BEFFA02000F07BF80548FFF762F8EB
:103E64000134C72CEDDD0020FFF7B2FF10BD00BF09
:103E74005005002008B5FFF7F9FE0822024903485F
:103E8400FEF726FC08BD00BFEC030020540300200D
:103E94000268034B9A4202D10122024B1A73704703
:103EA40000580040F40300200268034B9A4202D1F8
:103EB4000122024B5A73704700580040F40300205B
:103EC4000268034B9A4202D10122024B9A73704753
:103ED40000580040F403002010B582B0114BDA6999
:103EE40042F00102DA61DB6903F001030193019BF3
:103EF4000D4C4FF0804323604FF6FF73E3600B4B90
:103F04001B680B4AA2FB03239B0C013B6360002349
:103F14002361A3602046FCF7B9FF2046FCF746FF67
:103F240002B010BD00100240B404002000000020C4
:103F340083DE1B4308B50448FCF746FF034AD369F4
:103F440023F00103D36108BDB40400200010024033
:103F540010B50446FFF7C0FF4FF080435A6A4FF094
:103F640080435B6A9B1AA342F9D9FFF7E3FF10BDB4
:103F740070B50A4C00262670FFF720FCFFF778F98D
:103F8400FEF77EFC064D6860FEF77AFC2861AE60A1
:103F94002E730023A3616362A36270BD0405002035
:103FA400F004002010B504460268064B9A4201D181
:103FB400FFF7B0F82268044B9A4201D1FFF720F8CA
:103FC40010BD00BF00240140003C014008B5FFF7CC
:103FD400F5FBFFF74DF9FEE700B583B00E4BDA6948
:103FE40042F40062DA61DB6903F400630193019B2C
:103FF4000A480B4B03600123436040F6FF73836060
:10400400FEF746FF08B1FFF7E1FF0448FEF774FF2F
:1040140003B05DF804FB00BF00100240500500200F
:104024000030004000B597B002230C930122109297
:10403400102211921393002314934FF460131593D9
:104044000CA8FDF751F908B1FFF7C0FF0F23079340
:1040540002210891002309934FF480620A920B9382
:1040640007A8FDF781FC08B1FFF7B0FF0223019315
:104074004FF44043039301A8FEF76CFE08B1FFF729
:10408400A5FFFDF763FD094BA3FB00308009FCF796
:10409400A9FC0420FCF7BCFC002211464FF0FF30C1
:1040A400FCF754FC17B05DF804FB00BFD34D62105D
:1040B40070B59AB0FEF7CAFBFFF7B4FFFFF78CFFA9
:1040C400FFF70AFFFFF7D6FEFFF78CFEFFF736FE79
:1040D400FFF756FEFEF74EFFFEF798FFFFF7D0F905
:1040E400FFF780FC0120FFF769FEFFF7A7FE4FF4FE
:1040F400AF70FEF7CBFB0020FFF760FEFFF738FF41
:10410400FFF70EFDFFF74EFA5020FFF723FD0025C1
:1041140040F6CA040134FEF7B3FB174B1860174B83
:10412400A3FB04235B0B42F2283202FB1343BBB90B
:1041340085F001052846FFF741FE6422002101A80D
:1041440000F09EF9FEF7CAFF0646FEF7D5FF0346C8
:1041540032460B4901A800F09BF901A8FFF7C6FD00
:104164000848FEF7DFFEFEF78BFB034B1B68C01A03
:10417400054B1860CEE700BF4C050020D55204E97A
:10418400504D0008500500206005002000B583B0A4
:104194001C4B9A6942F001029A619B6903F0010386
:1041A4000193019B0320FCF7BFFB002211466FF033
:1041B4000B00FCF7CBFB002211466FF00A00FCF762
:1041C400C5FB002211466FF00900FCF7BFFB00227B
:1041D40011466FF00400FCF7B9FB002211466FF0A2
:1041E4000300FCF7B3FB002211466FF00100FCF75B
:1041F400ADFB002211464FF0FF30FCF7A7FB03B0E4
:104204005DF804FB0010024030B587B00446036833
:10421400324A934232D1324B9A6942F400729A6123
:104224009B6903F400730093009B06230293032508
:10423400039502A92B48FCF701FC0C230293039578
:1042440002A92948FCF7FAFB2848294B03600023FC
:10425400436083608022C2604FF4807202614FF435
:104264008062426120228261C361FDF7B7FC08B11C
:10427400FFF7ACFE1D4B23625C622DE01D4A9342A6
:104284002AD1174B9A6942F400429A619B6903F45C
:1042940000430193019B012302930323039302A987
:1042A4001048FCF7CBFB1448144B03600023436015
:1042B40083608022C2604FF4807202614FF4806296
:1042C400426120228261C361FDF788FC08B1FFF7D7
:1042D4007DFE094B23625C6207B030BD00240140BF
:1042E4000010024000100140000801404C01002071
:1042F40008000240003C0140A00000205804024095
:104304000268334B9A4261D170B588B0044603F514
:10431400E4335A6942F001025A615A6902F0010217
:104324000192019A9A6942F008029A619A6902F02C
:1043340008020292029ADA6942F48022DA61DB69A5
:1043440003F480230393039B012306934FF48063B8
:10435400049302230593032307931E4E04A93046B6
:10436400FCF76CFB4FF4006304930025059504A946
:104374003046FCF763FB1848184B036045608560C2
:104384008023C3600561456120238361C561FDF716
:1043940025FC08B1FFF71AFE0F4B63635C621048FB
:1043A400104B036010234360002383608022C260AB
:1043B400036143618361C361FDF710FC08B1FFF73A
:1043C40005FE074B23635C6208B070BD704700BFF5
:1043D40000480040000C01401C0300203000024053
:1043E400940300201C000240002103E00B4B5B58A7
:1043F400435004310A480B4B42189A42F6D30A4AF6
:1044040002E0002342F8043B084B9A42F9D3FCF73C
:1044140011FC00F00FF8FFF74BFE7047944D0008B5
:1044240000000020680000206800002068050020CB
:10443400FEE700000E4B70B51E460E4C0025E41A34
:10444400A410A54204D056F8253098470135F8E762
:1044540000F05AFC084B094C1E46E41AA41000252F
:10446400A54204D056F8253098470135F8E770BDC9
:104474008C4D00088C4D00088C4D0008904D0008B0
:1044840003460244934202D003F8011BFAE7704743
:104494000EB400B54FF402719CB0ADF814106FF077
:1044A4000041049107914FF6FF711DAB02900690F5
:1044B400084853F8042BADF81610006802A90193BC
:1044C40000F064F8029B00221A701CB05DF804EB43
:1044D40003B07047640000202DE9F0478E688246DF
:1044E4009E420C46914698463ED88A8912F4906FB3
:1044F4003AD02568096902236F1A656905EB4505F9
:1045040095FBF3F57B1C43449D4238BF1D46530580
:104514000FD5294600F04AFB064698B13A46216970
:1045240000F0D2FAA38923F4906343F08003A381BB
:1045340013E02A4600F098FB064670B921695046FC
:1045440000F0E8FA0C23CAF80030A3894FF0FF30DA
:1045540043F04003A381BDE8F08726613E44266012
:1045640046466561ED1BA560464528BF464649465B
:104574003246206800F0B3FAA36800209B1BA360B6
:1045840023681E442660BDE8F08700002DE9F04F43
:104594009DB003938B8980461C060D4616460DD5A7
:1045A4000B695BB9402100F001FB2860286118B950
:1045B4000C23C8F80030CDE040236B61002309933D
:1045C40020238DF82930DFF89CB130238DF82A3070
:1045D40037463C4614F8013B1BB9B7EB060910D02B
:1045E40003E0252BF9D02746F3E74B46324629460C
:1045F4004046FFF771FF013000F0A780099B4B4450
:1046040009933B78002B00F0A08000234FF0FF3289
:1046140004930793059206938DF853301A93012659
:10462400052221784E4800F041FA671C049B38B1FA
:104634004B4A3C46801A06FA00F018430490EFE710
:10464400D90644BF20228DF853201A0744BF2B22D9
:104654008DF8532022782A2A03D0079A00210A20B1
:104664000BE0039A111D12680391002A10DA5242DA
:1046740043F00200079204900BE027463B78013494
:10468400303B092B03D800FB02320121F5E701B1CD
:1046940007923B782E2B1ED17B782A2B0AD1039BC1
:1046A40002371A1D1B680392002BB8BF4FF0FF336B
:1046B400059310E0002319460593781C0A24074645
:1046C4003A780130303A092A03D804FB0121012346
:1046D400F5E703B1059103223978224800F0E6F9A1
:1046E40040B14023CBEB000003FA00F0049B0137F8
:1046F40018430490397806221B487E1C8DF8281034
:1047040000F0D4F988B1194B33B9039B073323F074
:1047140007030833039314E003AB00932A46144BB6
:1047240004A94046AFF3008007E003AB00932A4698
:104734000F4B04A9404600F093F8B0F1FF3F8246C6
:1047440003D0099B5344099342E7AB895B0601D428
:10475400099801E04FF0FF301DB0BDE8F08F00BFB5
:10476400584D00085E4D0008624D0008000000002E
:10477400DD4400082DE9F04791461F460A698B681D
:1047840006469342B8BF1346C9F8003091F8432057
:104794000C46DDF8208012B10133C9F800302368DB
:1047A400990642BFD9F800300233C9F800302568B1
:1047B40015F0060510D104F1190A07E00123524649
:1047C40039463046C04701301AD00135E368D9F87C
:1047D40000209B1A9D42F1DB94F843302268003399
:1047E40018BF012392060FD5E118302081F8430049
:1047F4005A1C94F845102244023382F8431003E013
:104804004FF0FF30BDE8F08704F1430239463046EB
:10481400C0470130F4D02268D9F80050E36802F0B0
:104824000602042A08BF5D1B2269A3680CBF25EA9F
:10483400E57500259342C4BF9B1AED184FF000099B
:104844001A344D4509D00123224639463046C04723
:104854000130D5D009F10109F3E70020BDE8F08764
:104864002DE9F04317460A7E85B06E2A984606461F
:104874000C460C9B01F1430E00F0AE8011D8632A64
:1048840022D009D8002A00F0BB80582A40F0CA8000
:1048940081F84520834955E0642A1ED0692A1CD03A
:1048A400C0E0732A00F0B08009D86F2A2ED0702A95
:1048B40040F0B8800A6842F020020A603EE0752A9F
:1048C40024D0782A3AD0ADE01A6801F14205111DCE
:1048D4001960136884F84230A8E021681A6811F05E
:1048E400800F02D0111D196008E011F0400F02F191
:1048F4000401196002D0B2F9003000E01368002B03
:104904003CDA2D225B4284F8432037E021681A68A0
:1049140011F0800F02D0111D196007E011F0400F53
:1049240002F10401196001D0138800E01368227EAB
:104934005C496F2A14BF0A2208221BE078225A49D4
:1049440084F845202268186812F0800F00F10405ED
:104954001D6003D1550601D5038800E00368D00724
:1049640044BF42F0200222601BB9226822F02002D8
:1049740022601022002084F8430001E049490A2201
:104984006568002DA56008DB206820F00400206025
:104994002BB9002D7DD175460CE0002B79D07546DE
:1049A400B3FBF2F002FB1033CB5C05F8013D034688
:1049B4000028F5D1082A0BD12368DA0708D5236922
:1049C40062689A42DEBF302305F8013C05F1FF35E9
:1049D400C5EB0E0323612EE008681A6810F0800FFF
:1049E400496903D0101D1860136808E010F0400FE7
:1049F40002F104001860136801D0198000E0196006
:104A040000232361754616E01A68111D19601568A4
:104A140000216268284600F049F808B1401B606034
:104A2400636804E004F1420584F842200123236111
:104A3400002384F84330CDF800803B4603AA214686
:104A44003046FFF797FE013002D14FF0FF3026E0E9
:104A540023692A4639463046C0470130F5D02368D9
:104A64009B0710D5002504F1190907E001234A46E4
:104A740039463046C0470130E7D00135E368039A30
:104A84009B1A9D42F2DBE068039B9842B8BF18462C
:104A940005E00B7804F1420584F842308AE705B05A
:104AA400BDE8F083694D00087A4D000810B5C9B21D
:104AB40002449042034605D01C7801308C42F8D160
:104AC400184610BD002010BD10B5431E0A44914283
:104AD40004D011F8014B03F8014FF8E710BD8842E8
:104AE40010B501EB020301D8421E0BE09842FBD241
:104AF4008118D21AD34204D013F8014D01F8014DA4
:104B0400F8E710BD994204D011F8014B02F8014FA7
:104B1400F8E710BD38B50546002944D051F8043CE7
:104B24000C1F002BB8BFE41800F0D4F81E4A136819
:104B3400114613B96360146030E0A3420DD92268B2
:104B4400A018834201BF18685B6812182260636072
:104B54000C6023E0A24203D813465A68002AF9D114
:104B640018681918A1420BD12168014458188242CF
:104B7400196013D110685268014419605A600DE03D
:104B840002D90C232B6009E021686018824201BF1E
:104B9400106852680918216062605C602846BDE8AC
:104BA400384000F098B838BD9000002070B5CD1C96
:104BB40025F0030508350C2D38BF0C25002D0646BD
:104BC40001DBA94202D90C23336046E000F082F8ED
:104BD400234B1C681A462146A1B10B685B1B0ED4FB
:104BE4000B2B03D90B60CC18CD501EE08C420BBFAD
:104BF40063684B681360636018BF0C4615E00C468D
:104C04004968E9E7174C23681BB9304600F052F8AD
:104C140020602946304600F04DF8431C18D0C41CCF
:104C240024F00304A0420DD12560304600F053F86F
:104C340004F10B00231D20F00700C31A0ED05A42C2
:104C4400E25070BD211A304600F034F80130EBD147
:104C54000C233360304600F03EF8002070BD00BFE6
:104C6400900000208C000020F8B5074615460E463B
:104C740021B91146BDE8F840FFF798BF1AB9FFF70C
:104C840049FF2846F8BD00F027F885420ED9294689
:104C94003846FFF78BFF044650B131462A46FFF7EA
:104CA40013FF31463846FFF735FF01E03046F8BDC3
:104CB4002046F8BD38B5064C002305460846236057
:104CC40000F014F8431C02D1236803B12B6038BDF3
:104CD400640500207047704751F8040C0028BEBFDB
:104CE400091851F8043CC01804387047044A0549AF
:104CF4001368002B08BF0B46184410601846704711
:104D04009400002068050020F8B500BFF8BC08BC7A
:104D14009E467047F8B500BFF8BC08BC9E46704775
:104D240002030405060708090A0B0C0D0E0F1010E8
:104D34000102000000000000000000000102030462
:104D440006070809000000000102030425693B2549
:104D5400690A0D00232D302B2000686C4C00656619
:104D640067454647003031323334353637383941B8
:104D740042434445460030313233343536373839CE
:084D84006162636465660000D2
:044D8C000902000810
:044D9000E501000831
:104D940000A24A040000000000000000000000001F
:104DA40000000000000000000000000000000000FF
:104DB40000000000000000000000000000000000EF
:104DC40000000000000000000000000000000000DF
:104DD40000000000000000000000000000000000CF
:104DE40000000000000000000000000000000000BF
:084DF400000000000400002093
:04000005080043EDBF
:00000001FF
